:020000040800F2
:1000000068070020DD010008530600084B060008C1
:100010004F06000815050008570B000800000000F7
:10002000000000000000000000000000BD07000804
:100030001905000800000000C5060008D1080008E6
:10004000F7010008F7010008F7010008F7010008B0
:10005000F7010008F7010008F7010008F7010008A0
:10006000F7010008F7010008F7010008F701000890
:10007000F7010008F7010008F7010008F701000880
:10008000F7010008F7010008F7010008F701000870
:10009000F7010008F7010008F7010008F701000860
:1000A000F7010008F7010008F7010008F701000850
:1000B000F7010008F7010008F7010008F701000840
:1000C000F7010008F7010008F7010008F701000830
:1000D000F701000835090008F7010008F7010008DA
:1000E000F7010008F7010008F7010008F701000810
:1000F000F7010008F7010008F7010008F701000800
:10010000F7010008F7010008F7010008F7010008EF
:10011000F7010008F7010008F7010008F7010008DF
:10012000F7010008F7010008F7010008F7010008CF
:1001300000F002F800F042F80AA090E8000C8244B7
:100140008344AAF10107DA4501D100F037F8AFF294
:10015000090EBAE80F0013F0010F18BFFB1A43F0A5
:1001600001031847E412000004130000103A24BFF2
:1001700078C878C1FAD8520724BF30C830C144BF0C
:1001800004680C607047000000230024002500264E
:10019000103A28BF78C1FBD8520728BF30C148BFEA
:1001A0000B607047642900F0A580732900F04D8131
:1001B000002070471FB51FBD10B510BD00F078F9C5
:1001C0001146FFF7F7FF00F033FE00F096F903B495
:1001D000FFF7F2FF03BC00F0C0FC000009488047B5
:1001E00009480047FEE7FEE7FEE7FEE7FEE7FEE719
:1001F000FEE7FEE7FEE7FEE704480549054A064B31
:1002000070470000D508000831010008680100208F
:100210006807002068030020680300207047000082
:100220000FB4044910B503AA029800F013F910BCEA
:100230005DF814FB180000202DE9F0410E4604463D
:10024000002020622046E168884730B3252805D089
:10025000D4E901219047206A401CF2E7E16820467A
:1002600000278847050018D0A5F14100192802D8B9
:1002700020354FF400673246294620462760FFF7B5
:1002800091FF40B1012804D0F61D26F0070608367C
:10029000D8E7361DD6E72846DAE7206ABDE8F081C0
:1002A00070B50C460546012A05D02878800600D591
:1002B000EA69002302E0012305E05B1C934202D2BD
:1002C000E05C0028F9D1A869E618C01AA861286A7C
:1002D000184428622846AFF3008004E0D5E90121E4
:1002E00014F8010B9047B442F8D32846AFF30080CE
:1002F00070BD00002DE9F041064600241068752904
:10030000314616A510D0AFF30080002802DA404233
:1003100013A507E031688A0701D512A502E0490755
:1003200004D511A5012401E0AFF3008000210A22C9
:1003300006F1240709E0B0FBF2FCB0FBF2F302FB8C
:100340001C00303078541846491C0028F3D123464D
:100350002A463046BDE8F04100F00CB8000000002D
:100360002D0000002B0000002000000070477047A7
:10037000704770472DE9F0470D469946924604466E
:1003800000F124080168880604D5E06921F0100115
:10039000216000E00120A84201DD471B00E00027AA
:1003A000A1697A1902EB0900081AA0612078C00639
:1003B00002D42046AFF30080002608E0D4E90121F2
:1003C0001AF806009047206A401C761C20624E45B1
:1003D000F4DB2078C0060AD52046AFF3008006E0A3
:1003E000D4E9012130209047206A401C2062381E49
:1003F000A7F10107F4DC07E0D4E9012118F80500B2
:100400009047206A401C2062281EA5F10105F3DCFC
:100410002046AFF300802078000602D50220BDE818
:10042000F0870120FBE710B5436913B1AFF30080FB
:1004300001E0FFF735FF012010BD127800F1240123
:100440000A7000224A700122EDE711684FF0FF3276
:10045000E9E70000074B70B50D467B4400F011F84A
:100460000446284600F020F810B14FF0FF3070BD70
:10047000204670BDF707000001694A1C0261087838
:10048000704700B58FB0CDE90131002105910549D4
:100490007944CDE9031011466846FFF7CDFE0FB051
:1004A00000BD0000E5FFFFFF007B00F0800070470B
:1004B000754600F02BF8AE4605006946534620F01D
:1004C0000700854618B020B5FFF796FEBDE820402E
:1004D0004FF000064FF000074FF000084FF0000B00
:1004E00021F00701AC46ACE8C009ACE8C009ACE8B3
:1004F000C009ACE8C0098D46704710B50446AFF39B
:1005000000802046BDE81040FFF761BE00487047FC
:100510000801002000BFFEE770472DE9F0410246C8
:1005200000250026002000230024002791F803C0A6
:100530000CF00F0591F803C00CF0100CBCF1000F8B
:1005400003D091F802C04CEA050591F800C0BCF157
:10055000000F31D0146800202BE04FF0010C0CFA92
:1005600000F3B1F800C00CEA03069E4220D18300DC
:100570004FF00F0C0CFA03F7BC4305FA03FC4CEAEE
:10058000040491F803C0BCF1280F06D14FF0010C10
:100590000CFA00FCC2F814C00AE091F803C0BCF1E8
:1005A000480F05D14FF0010C0CFA00FCC2F810C046
:1005B000401C0828D1D31460B1F800C0BCF1FF0F73
:1005C00034DD546800202EE000F1080C4FF00108E3
:1005D00008FA0CF3B1F800C00CEA03069E4221D1E0
:1005E00083004FF00F0C0CFA03F7BC4305FA03FC31
:1005F0004CEA040491F803C0BCF1280F05D100F1C6
:10060000080C08FA0CF8C2F8148091F803C0BCF189
:10061000480F07D100F1080C4FF0010808FA0CF858
:10062000C2F81080401C0828CED35460BDE8F08189
:100630000246002093680B400BB1012000E000202F
:100640007047416170470161704700BFFEE700BF1E
:10065000FEE7704770B5002100230F22C47804B371
:10066000154C246804F4E064C4F5E064210AC1F187
:100670000403CA40447804FA03F184781440214307
:1006800009010E4C0678A155047804F01F050124D9
:10069000AC4005786D11AD0005F1E025C5F80041CD
:1006A00009E0047804F01F050124AC40044D0678ED
:1006B000761145F8264070BD0CED00E000E400E046
:1006C00080E100E07047000029B1064A92690243C8
:1006D000044B9A6104E0034A92698243014B9A6198
:1006E000704700000010024030B5002100220024B5
:1006F00000232D4D6D6805F00C0121B1042905D0B2
:10070000082923D105E0294D056022E0274D056029
:100710001FE0254D6D6805F47012234D6D6805F4DA
:100720008034022505EB92421CB9214D55430560EA
:100730000BE01D4D6D6805F400351DB11C4D554392
:10074000056002E0194D5543056002E0174D056054
:1007500000BF00BF144D6D6805F0F0010909154D8B
:100760006B5C0568DD4045600F4D6D6805F4E06128
:10077000090A104D6B5C4568DD4085600A4D6D6867
:1007800005F46051C90A0B4D6B5C4568DD40C560DE
:10079000054D6D6805F44041890B074D6B5CC568DC
:1007A000B5FBF3F5056130BD0010024000127A0080
:1007B00000093D001E0000202E000020704710B5EB
:1007C00000F002F810BD00000CB500200190009070
:1007D0003348006840F480303149086000BF304839
:1007E000006800F4003000900198401C01900098CF
:1007F00018B90198B0F5A06FF1D12948006800F44C
:10080000003010B10120009001E00020009000981D
:10081000012843D12348006840F0100021490860B6
:100820000846006820F0030008600846006840F0B1
:10083000020008601A484068194948600846406844
:1008400048600846406840F4806048600846406858
:1008500020F47C1048600846406840F4E810486086
:100860000846006840F08070086000BF0C480068CF
:1008700000F000700028F9D00948406820F003001B
:10088000074948600846406840F00200486000BFE1
:100890000348406800F00C000828F9D10CBD0000A6
:1008A0000010024000200240042808D14FF0E0214F
:1008B000096941F004014FF0E022116107E04FF0B7
:1008C000E021096921F004014FF0E0221161704735
:1008D0007047000010B51348006840F0010011494E
:1008E000086008464068104908400E4948600846BC
:1008F00000680E4908400B4908600846006820F46B
:10090000802008600846406820F4FE0048604FF4EC
:100910001F008860FFF753FF4FF000600449086034
:1009200010BD0000001002400000FFF8FFFFF6FEBF
:1009300008ED00E010B540F225511D4800F04AF8DE
:1009400010B31B4800F002F9C4B21A48008800F442
:100950000040C8B91748008800F4804060B10A2CF4
:1009600003D000201349088020E01248008840F49A
:1009700000401049088019E00D2C06D10D48008870
:1009800040F480400B49088010E00A480088C0F31A
:100990000D0009490C5407480088401C054908808F
:1009A00008460088C72801DD0020088010BD00002F
:1009B000003801401C0000203400002021B1828951
:1009C00042F40052828104E082894DF6FF731A409E
:1009D0008281704770B50246002400230025002064
:1009E00040F66A16B14200D100BFC1F3421501F0D2
:1009F0001F03012606FA03F3012D02D19689334025
:100A000006E0022D02D1168A334001E0968A334077
:100A10000C12012606FA04F41688344013B10CB106
:100A2000012000E0002070BDF0B503460024002640
:100A30000025002040F66A17B94200D100BF1846D1
:100A4000C1F3421401F01F06012707FA06F5012C35
:100A500001D10C3004E0022C01D1103000E0143040
:100A60001AB107682F43076002E00768AF430760C9
:100A7000F0BD00002DE9F04786B005460E46002483
:100A8000A24600BFA1460027B08900B100BF2F4693
:100A90002C8A4CF6FF700440F08804432C82AC8909
:100AA0004EF6F3100440B088318908437189084339
:100AB0000443AC81AC8A4FF6FF400440B089044344
:100AC000AC8201A8FFF710FE1F48874202D1DDF873
:100AD00010A001E0DDF80CA0A88900F4004040B1AE
:100AE0000AEBCA0000EB0A1031684900B0FBF1F8CC
:100AF00007E00AEBCA0000EB0A1031688900B0FB7E
:100B0000F1F86420B8FBF0F004012009642101FB36
:100B10001089A88900F4004040B1322000EBC900E0
:100B2000B0FBF1F000F00700044308E0322000EBD6
:100B300009106421B0FBF1F000F00F0004432C8198
:100B400006B0BDE8F0870000003801400146888803
:100B5000C0F30800704700BFFEE7014600BF7047C2
:100B6000002003E00021034A1154401C0A28F9DB4D
:100B700070470000FC00002010B56FF00400FFF784
:100B800093FE0A4800680A49B0FBF1F00949087071
:100B90000846007800EB4001C1EBC0104FF6FF7132
:100BA00001EAC0000449088010BD000000000020D8
:100BB00000127A0014000020160000200146114A9D
:100BC00012884A434FF0E0235A6100229A611A4684
:100BD000126942F001021A6100BF4FF0E022106971
:100BE00000F001021AB100F48032002AF5D04FF073
:100BF000E022126922F001024FF0E0231A61002284
:100C00009A617047160000200146114A12784A4343
:100C10004FF0E0235A6100229A611A46126942F0AD
:100C200001021A6100BF4FF0E022106900F00102DA
:100C30001AB100F48032002AF5D04FF0E022126998
:100C400022F001024FF0E0231A6100229A617047FE
:100C50001400002000BF054A128802F04002002A5A
:100C6000F9D0C2B2014B1B1D1A80704700380140F9
:100C70002DE9F05F4FF0000AD34610212A48FFF714
:100C8000E2FC20212848FFF7DCFC00BF10212648A9
:100C9000FFF7CEFC0028F9D10120FFF7B5FF4FF098
:100CA000000B1AE020212048FFF7CDFC4FEA4A0A4A
:100CB0000120FFF7A9FF20211B48FFF7C2FC1021EC
:100CC0001948FFF7B5FC08B10AF1010A0120FFF746
:100CD0009BFF0BF1010000F0FF0BBBF1180FE1DBF4
:100CE00020211148FFF7AFFC0120FFF78DFF8AF4A8
:100CF000000A20210C48FFF7A4FC0120FFF784FF25
:100D0000504600F090FA80460022084B00F006F9A9
:100D100006460022064B00F099FA044600F056FA07
:100D2000C0B2BDE8F09F0000000801409999394128
:100D300000E06F4000B50346322B0FDDFFF710FFD8
:100D40004520174908705220487088704F20C8709D
:100D5000522008710020134908701EE0FFF700FFC1
:100D60000A2B0FDB642B0DDA0A2093FBF0F03030F6
:100D70000B4908700A2093FBF0F100FB1130303072
:100D800007494870002B05DB0A2B03DA03F130001A
:100D900003490870012003490870014800BD0000A4
:100DA000FC0000203200002070B500244FF41650E3
:100DB00000F064F8002508E0FFF75AFF04442146DC
:100DC00008A0FFF72DFA681CC5B20A2DF4DB0A2033
:100DD00094FBF0F0044908700846017801A0FFF781
:100DE0001FFA70BD25640A003300002008B50121F8
:100DF0000C20FFF769FC2020ADF8000003208DF8DF
:100E0000020010208DF8030069460848FFF785FBB3
:100E10001020ADF8000003208DF8020004208DF8AA
:100E2000030069460148FFF778FB08BD0008014050
:100E30004FF4165000F022F8FFF7D8FFFFF79CFEA2
:100E4000FFF7B2FF11E0FFF713FF08490978401AD6
:100E5000C5B22846FFF76EFF0446214604A0FFF7FF
:100E6000DFF94FF4FA70FFF7A9FEECE7330000203A
:100E7000D1B9C1A6A3BA25730A00000010B586B087
:100E80000446012144F20400FFF71EFC4FF40070F9
:100E9000ADF8140003208DF8160018208DF8170007
:100EA00005A91C48FFF739FB4FF48060ADF814002A
:100EB00004208DF8170005A91648FFF72EFB252002
:100EC0008DF8000003208DF801008DF8020001204C
:100ED0008DF803006846FFF7BDFB01940020ADF8D4
:100EE0000800ADF80A00ADF80C00ADF810000C20B9
:100EF000ADF80E0001A90848FFF7BCFD012240F241
:100F000025510548FFF790FD01210348FFF756FDE5
:100F100006B010BD00080140003801402DE9C04175
:100F200030B4DFF8A0C23CEA111418BF3CEA131435
:100F300000F0EC8081EA03051CEA111444EAD57440
:100F400018BF1CEA131500F0C780A4EB05044FF08E
:100F5000004545EAC12145EAC32341EA505143EA2D
:100F6000525304F17F74994204F500344FEAC020D3
:100F70004FEAC22208BF904200F09C804FEA1365FE
:100F80000FF24016765D4FEA134506FB05F7C7F1F1
:100F9000807706FB07F74FEAD737A7FB036876424F
:100FA000C8F58038A7FB06CE38BFA8F1010807FBBB
:100FB00008E64FF0000EA6FB028CE6FB03CEDCF148
:100FC000000CCEF1004E38BFAEF1010EA6FB0C585E
:100FD0004FF000074FF00005E6FB0E87A1FB08C6A7
:100FE000A0FB07CE16EB0E0645F10005E1FB0765F9
:100FF00015F1E04E7EBFA4F580345FEA46066D41F0
:1010000016F1800745F100054FEA17274FEA0666FB
:1010100047EA0567A6F1DE46B6F1805F4FEA15257F
:101020001FD9384624F0010C05EBC471BCF1FE6FEA
:1010300001EB0C1102D8F0BCBDE8008124425CBF7A
:1010400001F5801E9EEAC47F02D4F0BCBDE8008199
:10105000244238D4F0BCA1F1C041BDE8004100F009
:10106000EDB94FEAD22242EA43524FEAD323A7FB1B
:1010700002864FEAD02040EA415007FB03661EEA91
:101080000E0F4FEAD12105FB026658BFA6EB0056B2
:10109000B6EB00564FEA520E4EEAC37E18EB0E0E28
:1010A00056EB530EBDD518EB02085E417F1C55F17F
:1010B0000005B6E74FF480154FF000074FF000062B
:1010C0004FF00008ADE7F0BC4FF0000001F1C04167
:1010D00001F00041BDE8008111EA0C1F0CEA131574
:1010E00000D00CE013EA0C1F00F025804FF0000048
:1010F000F0BC81EA030101F00041BDE80081F0BCD1
:10110000BDE8004181EA030100F098B9F0BCBDE8F8
:10111000004170B500F044F9097EFC3E00F007B8CC
:1011200081EA03014FF0000001F00041704781EABD
:10113000030100F083B9F0BCBDE800414FF00000AE
:1011400021497047FFFDFBF9F7F5F4F2F0EEEDEB06
:10115000E9E8E6E4E3E1E0DEDDDBDAD8D7D5D4D3B5
:10116000D1D0CFCDCCCBCAC8C7C6C5C4C2C1C0BF01
:10117000BEBDBCBBBAB9B8B7B6B5B4B3B2B1B0AF07
:10118000AEADACABAAA9A8A8A7A6A5A4A3A3A2A1EB
:10119000A09F9F9E9D9C9C9B9A99999897979695A6
:1011A00095949393929191908F8F8E8E8D8C8C8B42
:1011B0008B8A8989888887878685858484838382CA
:1011C000828181800000FF070000F87F4FEA115301
:1011D000A3F58063D3F11E03A8BFD3F1200C08DB75
:1011E0004FF0004242EAC12252EA505232FA03F072
:1011F000704709420BD4102BC4BF0020704703F581
:10120000787CBCF1FF3F05D04FF0FF3070474FF0C6
:101210000000704770B500F0C3F800BF4992248009
:1012200000207047F0E7B0FA80F310FA03F10AD01B
:10123000C3F11D0303F580634FEA41504FEA0352A7
:1012400002EBD12170474FF000007047DFF848C132
:1012500070B51CEA111E1EBF1CEA13159EEA0C0F86
:1012600095EA0C0F00F06F8081EA030423EA4C1327
:101270004EEAD47E21EA4C1141F4801143F48013EC
:10128000AE44A1FB024CA0FB0365AEF17F7E361994
:1012900055EB0C05A1FB034C4CF10003A0FB021C19
:1012A00016EB0C06654153F10003094218BF46F0E6
:1012B000010613F4007F0BD14FEA03314FEA0530EA
:1012C000340341EA155140EA16506FF003020AE078
:1012D0004FEAC3214FEAC520F40241EA555140EAE2
:1012E00056506FF0020202EB2E4201EB025585EAE6
:1012F000CE710AD05FEA440C18BF24F0004450F1CC
:10130000000041F1000120EAD47040F2FE7C624509
:1013100000D270BDA84214BF4FF080444FF040444B
:10132000002E08BF0024BEF1806FA8BFA1F1C0410C
:10133000BDE8704080F282804FF0000001F1C041B2
:1013400001F0004170479EEA0C0F0CEA131518BF1C
:1013500095EA0C0F06D04FF0000081EA030E0EF064
:10136000004170BD00F01CF88900013E00F007B894
:1013700000F009B84FEA430C5FEA5C5C08D081EAF0
:10138000030100F05BB84FEA410C5FEA5C5CF6D108
:101390004FF00000014970470000FF070000F87F90
:1013A0000EF1020E2EF0030E5EF8046B364205D4E9
:1013B000012A43EB030515F5001F12D8012841EB64
:1013C000010C1CF5001F0CD80ED14FEAD17C15F58D
:1013D000001F0CEB4C0C0CF1020C08BF4CEBD37C47
:1013E00004E04FF0080C01E04FEAD37C0CEB4C0515
:1013F00026FA05F606F00706B6F1040C06D20EEB47
:10140000860CBDE870404CF0010C6047DFE80CF042
:10141000090B02024FF000414FF00000A1F500213E
:1014200070BD19461046012851EB010418BFD4F5D0
:10143000001484BF002001F0004170BD0808A0F531
:1014400000114FEA310170476814000800000020C5
:10145000340000006C0100089C14000834000020D7
:10146000340700008801000800A24A0400000000C0
:101470000000000001020304060708090000000044
:10148000000000000000000000000102030401024F
:0C14900003040607080902040608000017
:04000005080001DD11
:00000001FF
