:020000040800F2
:10000000A818002075020008FD410008ED40000816
:10001000F9410008A53B0008135300080000000048
:10002000000000000000000000000000E946000899
:100030004D3D00080000000085420008D54700083B
:100040008F0200088F0200088F0200088F0200084C
:100050008F0200088F0200088F0200088F0200083C
:100060008F0200088F0200088F0200088F0200082C
:100070008F0200088F0200088F0200088F0200081C
:100080008F0200088F0200088F0200088F0200080C
:100090008F0200088F0200088F0200088F020008FC
:1000A0008F0200088F0200088F0200088F020008EC
:1000B000F9490008514A00088F0200088F02000821
:1000C0008F0200088F0200088F0200088F020008CC
:1000D0008F0200088F020008DD4D0008394F00082C
:1000E0008F0200088F0200088F02000800F002F85B
:1000F00000F0B0F80AA090E8000C82448344AAF112
:100100000107DA4501D100F0A5F8AFF2090EBAE80F
:100110000F0013F0010F18BFFB1A43F0010318473B
:10012000F8570000185800000A444FF0000C10F86F
:10013000013B13F0070408BF10F8014B1D1108BF65
:1001400010F8015B641E05D010F8016B641E01F805
:10015000016BF9D113F0080F1EBF10F8014BAD1C55
:100160000C1B09D16D1E58BF01F801CBFAD505E073
:1001700014F8016B01F8016B6D1EF9D59142D6D3CD
:10018000704700000023002400250026103A28BFF5
:1001900078C1FBD8520728BF30C148BF0B607047F9
:1001A0006E2900F01982702900F05B83662905F042
:1001B0000383652905F00083672905F0FD82612925
:1001C00005F0FC8203681B0A28BF41F08001692901
:1001D00000F0C681642900F0C381752900F0C08158
:1001E0006F2900F0E882782900F02783E92900F0E0
:1001F0008382E42900F08082F52900F07D82EF29D6
:1002000000F0E582F82900F026830368DB0928BFA7
:1002100041F08001632901F06780732901F06C804F
:10022000E32901F07780F32901F07C8000207047FA
:100230001FB501F083FA04000020002105F0A6FAA2
:10024000401C60600020002105F08AFAE0601FBDBC
:1002500010B510BD01F044FA1146FFF7E9FF05F0B3
:1002600017FA01F021FB03B4FFF7F2FF03BC01F022
:1002700069FB00000948804709480047FEE7FEE7A0
:10028000FEE7FEE7FEE7FEE7FEE7FEE7FEE7FEE746
:1002900004480549054A064B704700001548000808
:1002A000ED000008A8120020A8180020A8140020C3
:1002B000A81400201CB50C46064B7B4469460090F0
:1002C000204600F0A2F904460020694600F0B0F98B
:1002D00020461CBD730300000FB400B58DB010A9FB
:1002E000099000910B904FF0FF300A9000200C9085
:1002F000064878440690064878446A4607900F9965
:1003000009A800F083FB0DB05DF814FB370700006F
:100310004F0700002DE9FF5F4FF000089946144693
:1003200046469169D2E901A7DDF838B001988847BF
:10033000054659EA0B0005D009E0A1690198761C31
:1003400088470546216A284688470028F5D1681C59
:1003500003D05FEACA7005D015E04FF0FF3004B05B
:10036000BDE8F09F2068011D2160D0F800800AE000
:100370005FEACA7001D108F8015BA169761C019897
:100380007F1E88470546002F1ADD681C18D0B9F17A
:10039000000F0DD0E81705EBD060421120F01F00D0
:1003A00059F822102A1A012090400142E0D107E0BA
:1003B000BBF1000FDCD12846216A88470028D7D03E
:1003C000E16901988847BBF1000F07D1002E05DDD8
:1003D0005FEACA7002D1002188F80010A068B84214
:1003E00003DDBBF1000F03D017B16FF00100B6E7DA
:1003F0003046B4E730B505460B462A4613F8014BA4
:1004000012F8010B08B1A042F8D01CB1002802D0AC
:100410006D1CF1E7284630BD421E12F8013F002B4B
:10042000FBD111F8013B002B02F8013BF9D17047D9
:1004300010B5203AC0F00B80B1E81850203AA0E87F
:100440001850B1E81850A0E81850BFF4F5AF5FEAB3
:10045000027C24BFB1E81850A0E8185044BF18C966
:1004600018C0BDE810405FEA827C24BF51F8043B0D
:1004700040F8043B08BF7047D20728BF31F8023B61
:1004800048BF11F8012B28BF20F8023B48BF00F8F5
:10049000012B704770477047704770B504468569F7
:1004A0000068C10601D5302600E02026C00707D02D
:1004B00070BDD4E9012130469047206A401C20627B
:1004C0006D1EF6D570BD70B5044685690078C0070D
:1004D00007D170BDD4E9012120209047206A401C3B
:1004E00020626D1EF6D570BD09684A0501D540B27F
:1004F0007047C905FCD500B2704709684A0501D5A7
:10050000C0B27047C905FCD580B2704770B50C46C3
:100510000546012A05D02878800600D5EA6900231F
:1005200002E0012305E05B1C934202D2E05C00285C
:10053000F9D1A869E618C01AA861286A1844286287
:100540002846FFF7AAFF04E0D5E9012114F8010BC2
:100550009047B442F8D32846FFF7B5FF70BD0000BE
:100560002DE9F0410646002410687529314616A58C
:1005700010D0FFF7B9FF002802DA404213A507E0C8
:1005800031688A0701D512A502E0490704D511A5F3
:10059000012401E0FFF7B1FF00210A2206F1240740
:1005A00009E0B0FBF2FCB0FBF2F302FB1C003030C0
:1005B00078541846491C0028F3D123462A46304671
:1005C000BDE8F04100F0A0BA000000002D000000DE
:1005D0002B0000002000000011680268006A53052B
:1005E00001D508700AE0D30501D5088006E013069E
:1005F00003D5C217C1E9000200E00860012070477E
:1006000001694A1C02610878704700B58FB0CDE9D6
:1006100001310021059105497944CDE903101146C6
:10062000684600F029F90FB000BD0000E5FFFFFFAC
:100630000A6802F8010B0A60704700002DE9FF5FAD
:1006400015468A460446DFF8AC80F8440027D8E90E
:1006500000103E46CDE9001010E03AF816106A4648
:1006600002A801F01DF8411C07D02178890603D5A6
:10067000E269391891420DD80744761C207880062B
:1006800002D5E069B84205DDAE42E6DB3AF8160075
:100690000028E2D1A069C01BA0612046FFF7FDFE43
:1006A000D8E90010CDE90010002017E03AF8181042
:1006B0006A4602A800F0F4FFB0F1FF3F81460BD07C
:1006C00000250DF1080B05E0D4E901211BF8050018
:1006D00090476D1C4D45F7D308F10100B0428046AC
:1006E000E4DB206A384420622046FFF7ECFEBDE8D8
:1006F000FF9F0000CE5100002DE9F0418046D21D41
:1007000022F007020025D2E90002F52915A614D02F
:10071000011E72F1000106DA0023D0EB030063EB47
:10072000020211A608E0D8F800108B0701D50FA629
:1007300002E0490701D50EA601251146002408F163
:10074000240704E000F092F930323A55641C50EA74
:100750000102F7D12B46324621464046BDE8F04122
:1007600000F0D2B9000000002D0000002B000000B6
:100770002000000030B4002100F1240408E002F061
:100780000705D208303542EA4372DB086554491C3C
:1007900052EA0305F3D10468002310A2250707D508
:1007A000A40600D421B1C46901230DA2641EC46152
:1007B00030BC00F0A9B910B5044621461068FFF717
:1007C0009CFE02462046BDE810400023D2E7D21D21
:1007D00022F00701D1E90023CCE70000000000006F
:1007E00030000000F0B40D460188090502D5214C07
:1007F0007C4402E01F4C7C440E34002100F12406AE
:1008000008E002F00F071209E75D42EA03721B09D4
:100810007754491C52EA0307F3D1027800231207E8
:1008200004D5702D06D009B1022311342246F0BC44
:1008300000F06AB901231034F8E770B504460D469C
:1008400021461068FFF759FE024629462046BDE8BA
:1008500070400023C6E7D21D22F00703D3E900232E
:10086000C0E70368126843F0200303600823C361F4
:100870000023B7E7305000002DE9F05F89460446B9
:100880004FF0000ADFF874B1FB44C0F820A0204606
:10089000E1688847002874D0252806D0D4E90121D2
:1008A0009047206A401C2062F1E700265F46204600
:1008B000E16888472028054607DB312D05D27819E5
:1008C00010F8200C08B10643F1E7B00701D526F077
:1008D0000406C4F81CA00027C4F818A02A2D09D0CB
:1008E000284604F083FE38B304EB8708303DC8F88F
:1008F000185019E059F8041B204604EB8702916157
:10090000E1688847012F054618D1E069002820DA00
:1009100026F020061DE0D8F8180000EB800005EB5B
:1009200040003038C8F818002046E168884705467E
:1009300004F05CFE0028EED1012F0AD02E2D08D144
:100940002046E16888477F1C0546022F46F02006B6
:10095000C4DBA069002803DA404246F00106A0612A
:10096000F00701D026F010066C2D0BD0682D09D0B1
:100970004C2D39D06A2D35D0742D35D07A2D33D009
:1009800016E038E0E1682F4620468847B842054621
:1009900009D16C2F26D04FF48060E16806432046D1
:1009A0008847054604E06C2F1AD04FF48070064348
:1009B0000DB3A5F14100192802D8203546F4006690
:1009C0004A462946204626604E46FFF7E9FB80B19D
:1009D00001280BD0F61D26F0070000F1080956E7A4
:1009E0004020E4E78020D8E70020D6E706F104099C
:1009F0004DE7284652E7206ABDE8F09FC04F00004F
:100A0000026811441378016018467047D1600549A7
:100A10007944516104497944116200211161114600
:100A200000F084BCEDFFFFFFDD000000426842B132
:100A3000016811F8013B23B1521EC0E900121846AB
:100A400070470121C160881E704742685AB1C3686F
:100A5000016843B983688B4205D0491E521CC0E926
:100A60000012002070474FF0FF30704730B5B0F1F2
:100A70000A024FEA900E71F100034EEA817EB0EB5C
:100A80000E0061EB91014FEA101E4EEA017E10EB61
:100A90000E0041EB11114FEA102E4EEA016E10EBE1
:100AA0000E0041EB11214FEA104E4EEA014E10EBC1
:100AB0000E0041EB1141401841F100014FEAD00016
:100AC00040EA41704FEAD10110EB80054FEA810402
:100AD00044EA907444EB01046D1944EB0404521B86
:100AE000A3414FF0000348BF0A3200D530BD401C7F
:100AF00041F1000130BD10B5044600F017FE00685A
:100B0000005D00F0010010BD2DE9F0470D4699464B
:100B10009246044600F124080168880604D5E0697D
:100B200021F01001216000E00120A84201DD471BF7
:100B300000E00027A1697A1902EB0900081AA061F8
:100B40002078C00602D42046FFF7A7FC002608E064
:100B5000D4E901211AF806009047206A401C761C4F
:100B600020624E45F4DB2078C0060AD52046FFF708
:100B700094FC06E0D4E9012130209047206A401C13
:100B80002062381EA7F10107F4DC07E0D4E9012157
:100B900018F805009047206A401C2062281EA5F125
:100BA0000105F3DC2046FFF78EFC2078000602D515
:100BB0000220BDE8F0870120FBE770472DE9FF4FD9
:100BC0000C461E464FF0FF378BB0D2E90001DDF82E
:100BD00060800A908A46C1F30A5505B93D46002156
:100BE00008464FF00000BAF1000F00F4400005DAAB
:100BF00000EB80004FF4400101EA50004FEA9059A9
:100C0000B9F1010F00DDB9460A9850EA4A000ED04A
:100C100044F61050A5F2FF3545432F14B8F1000FEC
:100C20001ED07542291E1EDDC9F100021CE0B8F17C
:100C3000010F4FF0000001D0302103E0F24305E046
:100C40002154401CB042FBDB3046002200212154DD
:100C50000B99C1F80880C1E900200FB0BDE8F08F02
:100C6000BD1B6D1CDEE74A4600DA694206A800F0AB
:100C7000A9FD06AB93E8070003AB83E807005046E5
:100C80000A9900F066FE8DE80700A0F500501F38B5
:100C900000900398002D0ADD42F21F014A460844E5
:100CA000002303A90390684601F0CFF809E0A0F5FE
:100CB00000504A461F38002303A90390684601F0FC
:100CC000D9F88DE807000004000C03D04FF0FF3086
:100CD000410800E01046B8F1000F03D00022009256
:100CE00015461EE0751E05D4FFF7C0FE3032625572
:100CF0006D1EF9D5B3460122084302D000227F1CA5
:100D000004E02078302801D100227F1E002A0997B4
:100D100084D01DE0112D07DAFFF7A8FE30326255AE
:100D20006D1C50EA0102F5D1084302D00098C8B109
:100D30000EE00021681E05E0235C625C63542254CF
:100D4000401E491C8142F7DBAB46A81B401E0990A0
:100D5000002004F80B000B98099AC0F80880C0E93D
:100D6000002B7AE711264FF0000857E72DE9F04FE6
:100D700088460446D21D22F0070191B0D1E9000156
:100D8000CDE90A0104F01EFC02460B98C00F01D009
:100D90002D2007E02068810701D52B2002E02021CB
:100DA00001EAC000032A099001D0072A05DB0346A7
:100DB0004146204600F0C6FC0BE12078800601D5B4
:100DC000E06900E00620B8F1650F814606D0B8F171
:100DD000660F18D0B8F1670F70D131E00020B9F17B
:100DE000110F009001DB112301E009F101030AAAB0
:100DF00001A90CA8FFF7E2FEDDE90C70002609F15D
:100E00000105834647E001204B4600904FF0004724
:100E10000AAA01A90CA8FFF7D1FEDDE90DB00C99D3
:100E20005D46002610B909F101000D18B9EB050067
:100E300003D4C0F1FF3609F10105A5EB09002BE051
:100E4000B9F1010F01DA4FF001090020B9F1110FDA
:100E50000090484601DD112300E003460AAA01A9DB
:100E60000CA8FFF7ABFEDDE90C704D46002683466B
:100E7000207800070AD4AB4500DA5D4601A8012DB1
:100E800004DD411911F8011C302907D04F4502DA61
:100E900017F1040F04DA012082460FE06D1EEEE721
:100EA000002F02DCED1B3E4403E0781CA84200DD6D
:100EB0007D1CB81B00F1010A4FF0004720780007A5
:100EC00003D4AA4501DB4FF0FF3A0021B7F1004FF0
:100ED0000DF143088DF8431024D002202B23002F5E
:100EE00001DA7F422D230A21021EA0F1010000DC5D
:100EF0005FB197FBF1FC97FBF1F201FB1C7C1746FD
:100F00000CF1300C08F801CDEEE7A8F101000370F8
:100F10002188090501D5452100E06521A0F10108DE
:100F200000F8011C09980FA9A1EB0807FF1D00B1EB
:100F30000120411901EBEA70A1693844081A401EEA
:100F4000A0612078C00602D42046FFF7A6FA0998CF
:100F500028B1D4E901219047206A401C2062207802
:100F6000C00622D52046FFF798FA1EE0002E04DBCB
:100F7000B34502DD01A8805D00E03020D4E9012105
:100F80009047206A401C2062761CAAF101005FEAAB
:100F9000000A0AD100F0D2FBC0680168405CD4E9C5
:100FA00001219047206A401C2062281EA5F10105FE
:100FB000DCDC07E0D4E9012118F8010B9047206A36
:100FC000401C2062381EA7F10107F3DC2046FFF722
:100FD0007AFA032011B041E62DE9F04F04460D46A0
:100FE000D21D22F0070089B0D0E900974846394663
:100FF00004F0E8FA0246F80F01D02D2307E020683C
:10100000810701D52B2302E0202101EAC0038DF8DE
:1010100020300BB1012000E00020032A824601D0DD
:10102000072A04DB2946204600F08CFB3FE12078AC
:10103000800601D40D2500E0E569C7F30A560D2DA1
:1010400049DA00214FEA175B08464FF00000002FF5
:1010500000F4400007DA00EB80004FF4400100EBA1
:10106000D07001EA60008115012901DD4FF0FF31E8
:1010700000224FEA850CBCF1180F06D31346ACF1E1
:1010800018004FF08052C24003E04FF4801323FA5F
:101090000CF30CF10C0CBCF1200F04D3ACF1200CC0
:1010A00009FA0CF001E007FA0CF000294FF00048B3
:1010B00001DD18B90FE00ED140450CD319EB020940
:1010C0005F4121B9404502D19F4329EA0209BBEBA8
:1010D000175F00D0761C2088000502D57B48784435
:1010E00002E07A487844193808AA302302F80A3016
:1010F000037C0AF10101002E0AF1020A53546A46E8
:1011000002DC4FF0300101E04FF031014FF00108F7
:101110008DF8001002D0A6F2FF3603E059EA47012D
:1011200000D06B4E002D02DC2178090704D54FF06A
:1011300002082E218DF80110C44600210BE0C7F3F0
:1011400003433F01C35C491C6D1E02F808300529AA
:1011500008F1010801DA002DF1DC00210CE000EBC0
:101160001973491C1B786D1E082902F808304FEAD4
:10117000091908F1010801DA002DF0DC21688B065D
:1011800002D516E0A8F10108E04505DD02EB0803F1
:1011900013F8013C302BF5D0B8F1000F09DD02EB5C
:1011A000080313F8013C2E2B03D1090701D4A8F141
:1011B0000108002D05DD3E2102F808106D1E08F122
:1011C0000108407C002E02F8080008F1010804DA4A
:1011D0002D20764202F8080002E02B2002F80800D9
:1011E0000A214FF47A70864208F101080BDB96FB66
:1011F000F0F3303302F8083096FBF0F308F1010801
:1012000000FB136601E0642E0CDB642096FBF0F318
:10121000303302F8083096FBF0F308F1010800FBC8
:10122000136601E00A2E06DB96FBF1F0303002F87F
:10123000080008F1010896FBF1F001FB1060303066
:1012400002F80800A16908F1010808EB050202EBA9
:101250000A00081AA0612078C00602D42046FFF7D1
:101260001CF9216A08AE01EB0A00206204E0D4E90F
:10127000012116F8010B9047BAF1010AF7D2207844
:10128000C00602D52046FFF708F96E4609E016F8B9
:10129000010B3E280FD0D4E901219047206A401C61
:1012A0002062B8F10108F2D22046FFF70CF909B02C
:1012B0000320BDE8F08F206A2844206203E0D4E9CF
:1012C0000121302090476D1EEBD3F8E78E470000D8
:1012D00002FCFFFF10B5436913B1AFF3008001E0DA
:1012E000FFF714F9012010BD127800F124010A70F3
:1012F00000224A700122EDE711684FF0FF32E9E762
:1013000010B5436913B1AFF3008001E0FFF796F920
:10131000012010BD128800F1240182840022C284C1
:101320000122EDE711684FF0FF32E9E72DE9F34FB5
:101330004FF0000A0C4656468DB001200C9001F18A
:101340000C000B9062690B9801219047051E2DD06F
:10135000252D2CD0216A8847C0B162690B980121E4
:101360009047216A88470028F7D16269411E0B988F
:10137000904700E0761CA1690D988847216A88474C
:101380000028F7D1E1690D988847DBE7A1690D983E
:101390008847A842074601D1761CD3E7E1690D983A
:1013A00088477F1C02D1BAF1000F6FD06BE16269F0
:1013B0000B9800273D46394690472A2804D1626998
:1013C0000B98012190470125DFF8D08262690B98C4
:1013D00001219047A0F130010A290AD24745E5DCF6
:1013E00007EB870100EB4107303FDFD445F01005E4
:1013F000ECE7E90601D46FF000476C280AD04C28CE
:1014000014D0682815D06A280DD074281CD07A28EA
:101410001AD01DE062690B98012190476C2802D018
:1014200045F0040514E045F002050DE045F0200507
:101430000AE062690B9801219047682802D045F0C4
:10144000080505E045F4006562690B9801219047A5
:10145000C4E9015765283DD019DC58287AD00CDC46
:10146000452837D004DC252826D041289ED131E0FC
:1014700046282FD0472899D12CE05B2877D06128C7
:1014800028D063287CD0642823D15AE0F6E06F2866
:1014900048D008DC66281DD067281BD0692821D0D9
:1014A0006E2816D127E0702845D0732868D075289B
:1014B00047D078280DD14DE0A1690D98884725289F
:1014C00005463FF469AFE1690D9888476D1C3FF40C
:1014D0006AAFD8E00D9923466A466FF00100AFF37A
:1014E0000080C5E045F0400023464FF000026060F8
:1014F000A80736D43EE0E8077FF447AF2068011D17
:1015000021600068290501D506701BE7290701D570
:10151000068017E7A90703D5F117C0E9006111E7B5
:1015200006600FE745F0400023464FF00802606078
:10153000A80716D41EE040F60E0125EA01006060FF
:1015400016E045F0400023464FF00A026060A8070D
:1015500007D40FE045F040006060A80708D5234697
:1015600010220D996FF00100AFF3008080E007E0DA
:10157000102223460D996FF00100AFF3008077E051
:101580004FF0000963284F46C8464B46CB4602D071
:101590005B2806D038E0E80601D40120A0600127CE
:1015A00032E06269D4F80CB00B98012190475E28B4
:1015B00007D14FF0010949466269D4F80CB00B9885
:1015C0009047216939B900210A4603AB43F821202D
:1015D000491C0829FADBD8B3216949B308F101088D
:1015E00062690B98012190475D28F4D1B9F1000F91
:1015F00009D0002003A951F82020D24341F820202F
:10160000401C0828F7DB03AB2069002820794FEA4B
:1016100040701ED05B462246CDF80080CDE9019790
:101620000D9900286FF0010020DAAFF300801FE071
:10163000C11703AA00EBD1614B1121F01F0102EB8E
:101640008302411A13680120884003431360C7E7EF
:1016500019E00D99224600286FF00100009702DA88
:10166000AFF3008004E0FEF755FE01E0AFF3008029
:1016700000280ADA401C06D10C9820B14FF0FF3048
:101680000FB0BDE8F08F5046FAE7E90701D10AF143
:10169000010A064400200C9054E60000CCCCCC0C8F
:1016A00070B516460C46054600F040F8036893F8FE
:1016B0000101012806D0FF2C0FD8185D68B1012068
:1016C0002C7070BDD3F807013246214603F2071390
:1016D00003442846BDE8704018474FF0FF3070BD06
:1016E000754600F0EBF8AE4605006946534620F01B
:1016F0000700854618B020B5FEF7CAFDBDE82040BA
:101700004FF000064FF000074FF000084FF0000BBD
:1017100021F00701AC46ACE8C009ACE8C009ACE870
:10172000C009ACE8C0098D467047000010B500F054
:1017300005F8001D10BD00BF55400000004870476F
:10174000681200202DE9F0411F4604460326016877
:10175000072A01F4006004DB08B116A505E016A510
:1017600003E008B115A500E015A521F010002060E8
:10177000A069C01EA0610FB1401EA0612046FEF707
:101780008CFE4FB1D4E9012138469047206A401CB5
:101790002062C01C206206E0206AFAE7D4E9012139
:1017A00015F8010B9047761EF8D22046FEF78BFE07
:1017B000BDE8F0814E414E006E616E00494E46001C
:1017C000696E66002DE9F047814616468AB03548B5
:1017D00078440DC88DE80D0032487844801C03AC75
:1017E0000DC884E80D0041F69B300844372190FB7A
:1017F000F1F290FBF1F5A5F1800501FB12041B3C11
:1018000002D56442012000E00020DFF898A0804665
:101810000027FA44AAF1BE0A0EE0E0070AD03246D9
:10182000684607EB470101230AEB810100F022FB28
:101830008DE8070064107F1C002CEED1194F7F4407
:10184000AE3F19E0E80715D007EB04100DF1180AB8
:1018500090E80E008AE80E00C068F04201D19819A5
:1018600008903246012306A903A800F003FB03AB4E
:1018700083E807006D10641C002DE3D14FF00103D5
:1018800032466946B8F1000F03A802D000F0DDFA35
:1018900001E000F0EFFAC9E90001C9F808200AB038
:1018A000BDE8F0872C41000010B50446AFF300807E
:1018B0002046BDE81040FEF7D6BC00000048704747
:1018C000481200204FF0013C50F8042B51F8043B23
:1018D0009A4221D1A2EB0C03934313EACC1317D104
:1018E00050F8042B51F8043B9A4215D1A2EB0C039B
:1018F000934313EACC130BD150F8042B51F8043B5B
:101900009A4209D1A2EB0C03934313EACC13DBD028
:101910004FF00000704700BFD01A01BAB1FA81F150
:1019200001F0180122FA01F0CB40C1F12001DBB235
:10193000C0B2C01A2CFA01F3D11A914311EAC311B3
:10194000E6D1704701491820ABBEFEE72600020031
:1019500070475FEA400C08BF91F0000F4FEA8C23FC
:101960004FEAC12243EA51514FEA1C5018BF00F51B
:10197000F0404FEA300018BF41F000415FEA6C5C74
:1019800000F02980BCF1FF3F08BF40F08040704765
:10199000130C06BF12044FF0100C4FF0000C130E86
:1019A00004BF12020CF1080C130F04BF12010CF15A
:1019B000040C930F04BF92000CF1020CD30F04BF70
:1019C00052000CF1010C11464FF00002A0F11F0073
:1019D000A0EB0C00704711F0004F08BF704731F0CA
:1019E00000413FF4D5AF0B0C06BF09044FF0100CBB
:1019F0004FF0000C0B0E04BF09020CF1080C0B0F8A
:101A000004BF09010CF1040C8B0F04BF89000CF119
:101A1000020CCB0F04BF49000CF1010CCCF12003E8
:101A2000A0EB0C0022FA03F302FA0CF241EA0301E4
:101A300000F10100704720F07F4C80EA030023F0A2
:101A40007F47ACEB070303F57C5300F0004003F144
:101A5000FF032DE980494FEA154B09B44FEA1443BF
:101A600025EA0B4E24EA03480FF2042606EB13275F
:101A700049083E785FEA320203FB0667C7F50007B4
:101A800007FB06F64FEA54374FEAD64606F1020640
:101A900007FB066CCCF1005C4FEA1C472CEA074CB4
:101AA00007FB06F40CFB06F504EB15464FEA961609
:101AB00034BF00204FF000404FEAD13706FB07FC4F
:101AC0004FEA1C4C0CFB0BF7D21B03FB0CF761EB32
:101AD00007010CFB0EF7B0EB074072EB17420CFB53
:101AE00008F734BFA2EB0742B2EB074261EB1741A4
:101AF0004FEA0C444FEA910706FB07FC4FEA1C4CE7
:101B00000CFB0BF7B0EBC74072EB573203FB0CF743
:101B100034BFA2EBC742B2EBC74261EB57310CFBBB
:101B20000EF7B0EBC70072EB57720CFB08F734BF2F
:101B3000A2EBC702B2EBC70261EB5771039F4FEAFA
:101B4000816141EA921104EBCC044FEAD1374FEAAC
:101B5000826206FB07FC42EA90124FEA80604FEA7D
:101B60001C4C0CFB0BF7D21B03FB0CF761EB0701C2
:101B70000CFB0EF7B0EB074072EB17420CFB08F7BB
:101B800034BFA2EB0742B2EB074261EB17414FEAC9
:101B90008C554FEA910704EB9C2406FB07FC4FEAA7
:101BA0001C4C0CFB0BF7B0EBC74072EB573203FB3E
:101BB0000CF734BFA2EBC742B2EBC74261EB57311F
:101BC0000CFB0EF7B0EBC70072EB57720CFB08F77B
:101BD00034BFA2EBC702B2EBC70261EB577115EB42
:101BE0004C254FEA816141EA92114FEA82624FEA45
:101BF000D13742EA901206FB07FC44F100044FEA99
:101C000080604FEA1C4C0CFB0BF7D21B03FB0CF75C
:101C100061EB07010CFB0EF7B0EB074072EB1742CC
:101C20000CFB08F734BFA2EB0742B2EB074261EBB3
:101C3000174115EB1C154FEA813141EA92414FEAF9
:101C4000823242EA90424FEA80304FEA0C7644F109
:101C5000000448EA03434EEA0B484FF0000EB2EB93
:101C6000080C71EB030724BF624639464EEB0E0E9B
:101C70004FF0000B0018524149414BEB0B0BB2EBFC
:101C8000080C71EB03077BF1000B24BF6246394659
:101C90004EEB0E0E4FF0000B0018524149414BEB3A
:101CA0000B0BB2EB080C71EB03077BF1000B24BFAD
:101CB000624639464EEB0E0E51EA020718BF46F057
:101CC000010616EB0E7655F1000254F1000103D522
:101CD000BDE88901BDE80088BDE88901BDE800488C
:101CE000B619524141EB0101A3F101037047808015
:101CF0007F7E7D7C7B7A7978777676757473727166
:101D000071706F6E6E6D6C6C6B6A6A69686867661D
:101D100066656464636362616160605F5F5E5E5DAF
:101D20005D5C5C5B5B5A5A59595858575756565523
:101D300055555454535352525251515050504F4F85
:101D40004F4E4E4D4D4D4C4C4C4B4B4B4A4A4A49D5
:101D50004949484848474747474646464545454418
:101D60004444444343434342424242414141002BA5
:101D70009C4630D477002BD01CB54FEA370703B40C
:101D80004FF010004FF01001BAF1000F06D0BCF177
:101D9000000FDCBF40F0080040F008014FF00000E9
:101DA0000FBCBDE810400BF1010BBBF1010F08BFE8
:101DB0005FEA170722BF12F1010211F101014FF092
:101DC000004143F1000300F0004043EA0000704787
:101DD000F9D35708D0E746EA064613F1400F4FEA19
:101DE00016461FDD13F1200FDFBF16430A46002100
:101DF00020335B42BED0C3F1200746EA064602FA12
:101E000007F74FEA164646EA0706C3F1200722FA0B
:101E100003F201FA07F721FA03F14FF0000342EA57
:101E20000702A7E746EA020646EA06464FEA1646D2
:101E300046EA0106BCBF46EA0646360C4FF00003F0
:101E40004FF000024FF0000194E72DE9804C9A46D4
:101E5000934670B491E8380007C831EA400C48BF97
:101E600034EA430C03D5FFF7E6FDFFF780FFF0BC33
:101E7000BDE8008C2DE9804C9A46934670B491E8F9
:101E8000380007C810F0804F08BF13F0804F03D10F
:101E900000F005F8FFF76BFFF0BCBDE8008C20F008
:101EA0007F4780EA030023F07F4C07EB0C03A3F588
:101EB0007C5300F00040A3F1FE0392F0000F00F00D
:101EC000B38095F0000F00F077802DE901494FEACB
:101ED00011404FEA144621EA004800FB06FC24EAC0
:101EE000064708FB06F607FB08F800FB07F718EBA8
:101EF00006484CEB164C4FEA124B18EB07484FEADA
:101F000015464CEB174022EA0B4E0BFB06FC25EA6C
:101F100006470EFB06F607FB0EFE0BFB07F71EEB54
:101F2000064E4CEB164C4FF000061EEB074E4CEBEA
:101F3000174B18EB0B0840F1000018EB0E0B58EB99
:101F4000000840F100008F1A4FF000013CBFC94368
:101F5000661B14BFB5EB040C00213CBFC943F61B44
:101F60004FEA17444EEA8E0E27EA04454FEA1C4713
:101F700004FB07622CEA074C05FB07F70CFB05F690
:101F800004FB0CFC16EB074642EB174216EB0C4623
:101F900042EB1C421BEB060658EB0202414146EAAB
:101FA0009E0601D5BDE80189B619524141EB0101F8
:101FB000A3F10103BDE801894FEA14454FEA114737
:101FC00024EA054621EA074C05FB07F406FB07F760
:101FD0000CFB06F105FB0CFC11EB074144EB17442D
:101FE0004FEA124711EB0C4144EB1C4422EA074C28
:101FF00005FB07F206FB07F70CFB06F605FB0CFCDE
:1020000016EB074642EB174216EB0C4642EB1C451B
:102010006A1854F1000148BF7047B619524141EBAC
:102020000101A3F10103704795F0000F37D04FEA8B
:1020300011424FEA144721EA024624EA074C02FB08
:1020400007F106FB07F70CFB06F402FB0CFC14EB94
:10205000074441EB17414FEA154714EB0C4441EBA1
:102060001C4125EA074C02FB07F506FB07F70CFBB2
:1020700006F602FB0CFC16EB074645EB174516EB84
:102080000C4645EB1C42121951F1000148BF704744
:10209000B619524141EB0101A3F1010370474FEA28
:1020A00014454FEA114724EA054621EA074C05FB8F
:1020B00007F106FB07F70CFB06F24FF0000605FBE5
:1020C0000CFC12EB074241EB174112EB0C4251EBB7
:1020D0001C4148BF7047921841EB0101A3F1010375
:1020E0007047000010B504460D48007830B90D481F
:1020F0000DA1D0F8A4200F48904710E00E48007DB5
:10210000012803D1204603F011FA03E00BA1114886
:1021100003F0E1F90020024908700120207510BD8C
:10212000540100209400002041542B434553510D8D
:102130000A00000091210008B00C002043455351D3
:1021400020436865636B20544F2052455345542EFD
:102150000D0A00000038014010B504462088401CDC
:102160002080208864280BDD064802F005FE01204F
:10217000054908700020054908752080012010BD20
:102180000020FCE76010002054010020B00C00206B
:1021900010B51F4890F80702012834D101224FF4EE
:1021A0007A711C4802F06AFD1BA119488430FEF7C1
:1021B00021F9C8B91BA116488430FEF71BF998B95C
:1021C0001BA11F4803F087F9114984311C4803F013
:1021D00082F9104802F0D0FD01201A490870002051
:1021E00019490880012010BD0A4802F083FD01282A
:1021F00007D116A1124803F06EF91348FFF7ACFFA0
:10220000F1E70220EFE71048FFF7A6FFEBE7000039
:1022100070010020601000200A2B434553513A20E2
:10222000302C00000A2B434553513A2039392C00F9
:10223000434553512052656164790D0A0000000046
:1022400000380140540100205601002043455351FD
:10225000206E6F2052656164790D0A0010B5044646
:102260000D48007830B90D480DA1D0F8A4201048D1
:10227000904710E00F48007D012803D1204603F06D
:1022800055F903E00CA1124803F025F9002002499A
:1022900008700120207510BD580100209400002016
:1022A00041542B4353434F4E3D310D0A0000000073
:1022B00011230008B00C00204353434F4E205365B8
:1022C0007420544F2052455345542E0D0A000000EF
:1022D0000038014010B504462088401C208020882A
:1022E000B0F5FA7F0BDD074802F046FD01200649F4
:1022F00008700020054908752080012010BD0020CD
:10230000FCE70000A810002058010020B00C0020BD
:1023100010B50A4890F8070201280BD108A10C4813
:1023200003F0D9F801200B49087000200A49088001
:10233000012010BD0848FFF7CDFFFAE7700100202B
:102340004353434F4E2052656164790D0A000000EB
:1023500000380140580100205A01002010B5044601
:102360000D48007830B90D480DA1D0F8A4200F48D1
:10237000904710E00E48007D012803D1204603F06D
:10238000D5F803E00BA1114803F0A5F8002002499D
:1023900008700120207510BD50010020940000201D
:1023A00041542B4350494E3F0D0A00000D240008B4
:1023B000B00C00204361726420436865636B205455
:1023C0004F2052455345542E0D0A0000003801405D
:1023D00010B504462088401C20802088B0F5FA7F84
:1023E0000BDD074802F0C8FC0120064908700020F8
:1023F000054908752080012010BD0020FCE7000081
:102400001810002050010020B00C002010B5194811
:1024100090F80702012829D101224FF47A71164859
:1024200002F02CFC15A113488430FDF7E3FF70B1D6
:1024300016A11A4803F04FF80F4802F09DFC012046
:1024400017490870002017490880012010BD0A486C
:1024500002F050FC012807D113A1104803F03BF80B
:102460001048FFF7B5FFF1E70220EFE70D48FFF74F
:10247000AFFFEBE770010020181000200A2B43503B
:10248000494E3A2052454144590A00004361726462
:102490002052656164790D0A000000000038014097
:1024A000500100205201002043617264206E6F20B1
:1024B00052656164790D0A0010B504460E48007833
:1024C000012812D10D48007830B90D480DA1D0F87F
:1024D000A4200E4890470DE0002008490870012014
:1024E0002075204603F022F804E000200849087512
:1024F0000120207510BD000084000020860000200F
:10250000940000204154490D0A00000015250008E0
:10251000180E002010B504A1074802F0DCFF0120CE
:102520000649087010BD00004243323620657869C4
:1025300073740D0A0000000000380140860000207E
:1025400038B504461748007820B1012809D0022880
:1025500026D111E0144815A1D0F8A42017489047BF
:102560001EE0174800901048164B174A17A1D0F8E4
:10257000A4501248A84713E01C48007D012803D14D
:10258000204602F0D3FF03E019A11E4802F0A3FF8A
:102590000020044908701C4908700120207500BF04
:1025A00000BF38BD870000209400002041542B510B
:1025B0004D54434F4E4E3F0D0A0000004526000883
:1025C0002A0000203B000020E00F002041542B5146
:1025D0004D54434F4E4E3D302C222573222C222544
:1025E00073222C222573220D0A000000B00C00205B
:1025F000436F6E6E65637420544F205245534554AB
:102600002E0D0A00003801408400002010B5044659
:102610002078401C2070207803280BDD064802F04B
:10262000ABFB0220054908700020054908752070A1
:10263000012010BD0020FCE7300D002087000020A5
:10264000B00C002010B53C4890F8070201285CD17E
:102650003A48007810B1012856D11FE038A1364819
:102660008430FDF7C7FE50B139A13E4802F033FF78
:1026700001203D49087002203049087009E03BA163
:10268000384802F028FF00203749087001202B4904
:10269000087000203A490870012010BD012242F65E
:1026A000F821384802F0EAFA2F48007801280ED1C4
:1026B00035A12C4802F00FFF324802F05DFB0220EA
:1026C0001E49087000202E4908700120E5E72648C1
:1026D0000078022809D12B4802F04EFB002028493F
:1026E0000870214908700220D7E7264802F002FB53
:1026F000012807D129A11B4802F0EDFE2048FFF771
:1027000085FFCAE70220C8E714E001224FF4FA71FE
:102710001C4802F0B3FA1B4802F0ECFA012807D17A
:1027200022A1104802F0D7FE1548FFF76FFFB4E76B
:102730000220B2E700BFB0E7700100208700002050
:102740002B514D54434F4E4E3A20302C3300000055
:10275000416C726561647920436F6E6E6563740DC0
:102760000A0000000038014088000020446F206EFD
:102770006F7420436F6E6E6563740D0A0000000075
:1027800089000020300D002053756363657373204A
:10279000436F6E6E6563740D0A000000436F6E6ECA
:1027A000656374204661696C0D0A0000436F6E6EAC
:1027B000656374204552524F520D0A0010B504460D
:1027C0000748007830B9074807A1D0F8A4200A4884
:1027D000904704E00020024908700120207510BDD8
:1027E0005C0100209400002041542B434741545485
:1027F0003D300D0A00000000FD27000810B507A1BC
:10280000094802F068FE094890F80702012802D141
:102810000749087010BD0020FCE7000044657461A2
:102820006368206F6B0D0A000038014070010020C2
:102830005C01002008B50121042001F089FD102071
:102840008DF8030003208DF802004FF48070ADF87E
:10285000000069460A4801F0B9FB4FF4807108484E
:1028600001F041FC642001F07BFA4FF480710448D0
:1028700001F037FC03A1094802F02DFE08BD00005D
:10288000000801406C65617665207761697420728B
:102890006573706F6E640D0A00000000003801401F
:1028A00010B504460D48007830B90D480DA1D0F898
:1028B000A4200F48904710E00E48007D012803D166
:1028C000204602F033FE03E00BA1114802F003FEA4
:1028D0000020024908700120207510BD620100200F
:1028E0009400002041542B43474154543F0D0A00AB
:1028F0004D290008B00C0020495020436865636BE7
:1029000020544F2052455345542E0D0A000000001C
:102910000038014010B504462078401C2070207813
:1029200028280BDD064802F027FA01200549087027
:102930000020054908752070012010BD0020FCE72B
:102940005411002062010020B00C002010B519487D
:1029500090F80702012829D101224FF47A71164814
:1029600002F08CF915A113488430FDF743FD70B1D6
:1029700015A1184802F0AFFD0F4802F0FDF9012043
:1029800015490870002015490870012010BD0A483B
:1029900002F0B0F9012807D111A10E4802F09BFD09
:1029A0000E48FFF7B7FFF1E70220EFE70B48FFF70C
:1029B000B1FFEBE770010020541100200A2B4347C0
:1029C0004154543A20310A004950205265616479DB
:1029D0000D0A000000380140620100206301002060
:1029E0004950204E6F2052656164790D0A00000045
:1029F00010B504461D48007810B904201C49087021
:102A00001B48007805282FD2DFE800F0030A1118D0
:102A10001F00184818A1D0F8A4201E48904723E0B2
:102A200014481DA1D0F8A4201A4890471CE0114872
:102A300020A1D0F8A4201748904715E00D4825A103
:102A4000D0F8A420134890470EE02EA1314802F0A0
:102A500042FD0020064908700449087001202075D5
:102A6000204602F063FD00BF00BF10BD65010020DD
:102A7000640100209400002041542B514D544346E2
:102A8000473D226B656570616C697665222C302C40
:102A9000350D0A00192B000841542B514D54434663
:102AA000473D2273657373696F6E222C302C300D95
:102AB0000A00000041542B514D544346473D2274B7
:102AC000696D656F7574222C302C322C322C310DCF
:102AD0000A00000041542B514D544346473D227794
:102AE000696C6C222C302C302C322C302C227769E3
:102AF0006C6C222C22646973636F6E6E6563742242
:102B00000D0A0000414C4C20496E6974204F4B0D5A
:102B10000A0000000038014010B5094890F807028B
:102B200001280AD107A10B4802F0D5FC0A48007819
:102B3000401C09490870012010BD0020FCE700007E
:102B4000700100204D51545420496E6974206F6B00
:102B50000D0A0000003801406401002070B50446F1
:102B60001548007820B1012809D0022822D10FE0B1
:102B7000124813A1D0F8A420154890471AE00F4836
:102B8000144B154A15A1D0F8A4501148A84711E0DC
:102B90001848007D012803D1204602F0C7FC03E05D
:102BA00015A11A4802F097FC002003490870012083
:102BB000207500BF00BF70BD66010020940000209A
:102BC00041542B514D544F50454E3F0D0A000000CB
:102BD000492C0008240000201400002041542B51EF
:102BE0004D544F50454E3D302C222573222C2573D9
:102BF0000D0A0000B00C00204F70656E20544F206D
:102C000052455345542E0D0A000000000038014083
:102C100010B504462078401C2070207803280BDD76
:102C2000064802F0A9F8022005490870002005496D
:102C300008752070012010BD0020FCE7B8110020AD
:102C400066010020B00C002010B5354890F807024E
:102C500001284ED13348007810B1012848D11FE037
:102C600031492F488430FDF7C5FB50B12FA13348BF
:102C700002F031FC01203249087002202949087015
:102C800009E030A12D4802F026FC00202C490870F4
:102C900001202449087000202E490870012010BD31
:102CA000012242F6F8212C4801F0E8FF2448007880
:102CB00001280ED129A1214802F00DFC264802F07E
:102CC0005BF8022017490870002022490870012093
:102CD000E5E7214802F00EF8012807D123A11748A3
:102CE00002F0F9FB1B48FFF793FFD8E70220D6E775
:102CF00014E001224FF4FA71174801F0BFFF1648A3
:102D000001F0F8FF012807D11BA10C4802F0E3FBFA
:102D10001048FFF77DFFC2E70220C0E700BFBEE713
:102D2000700100206601002014000020416C7265D3
:102D3000616479204F70656E0D0A00000038014013
:102D400067010020446F206E6F204F70656E0D0A82
:102D50000000000068010020B81100205375636373
:102D6000657373204F70656E0D0A00004F70656EBD
:102D7000204661696C0D0A004F70656E2045525205
:102D80004F520D0A0000000010B5044609480078B3
:102D900030B9094809A1D0F8A4200C48904707E0B1
:102DA00000200449087001202075204602F0BEFB77
:102DB00010BD0000690100209400002041542B4305
:102DC00050534D533D300D0A00000000D12D000836
:102DD00010B507A10A4802F07EFB0A4890F80702E6
:102DE000012802D10849087010BD0020FCE700004E
:102DF00050534D204D6F6465205365740D0A0000DB
:102E0000003801407001002069010020F8B5054636
:102E10002C48007810B12C48007D18B900202B49AF
:102E200008701CE02A480078C8B9002414E004EBBC
:102E30004400284901EB00100078012805D12449FD
:102E40000870601C2149087008E000201F490870C4
:102E50001F490870601CC4B2062CE8DB00BF1B4889
:102E60000078012817D119480078401E00EB400077
:102E7000184901EB0010C06800901748174B022258
:102E800017A1D0F8A4601E48B0471E480078401C27
:102E90001C49087013E00C48007D012803D1002074
:102EA0001949087503E019A11C4802F014FB002021
:102EB00007490870012005490870287500BF00BF48
:102EC000F8BD000060000020B00C00208B00002046
:102ED0008C000020B0030020940000204C00002053
:102EE00041542B514D545055423D302C312C2564CA
:102EF0002C302C222573222C222573220D0A00004F
:102F0000612F000863000020F80C0020507562203B
:102F1000546F2052455345542E0D0A00003801408D
:102F200010B504462078401C2070207802280CDD63
:102F3000074801F021FF0020064908700649087083
:102F4000064908752070012010BD0020FCE7000034
:102F5000780D00208B0000208C000020B00C002099
:102F600010B52E4890F80702012841D1012242F203
:102F700010712B4801F082FE2A48007801281CD1EC
:102F8000002028490870284908702849284802F07C
:102F9000A2FA28A1264802F09EFA002128480078CB
:102FA000401E284A02EB001001701D4801F0E4FEAB
:102FB000002025490870012010BD1A480078022819
:102FC00007D1174801F0D8FE0020164908700220EA
:102FD000F2E7134801F08EFE012807D11BA1144827
:102FE00002F079FA1848FFF79BFFE5E70220E3E7D4
:102FF000012242F210710A4801F040FE084801F037
:1030000079FE012807D115A1094802F064FA0E489B
:10301000FFF786FFD0E70220CEE700007001002016
:10302000780D00208A0000208C00002094000020F1
:1030300000380140507562204F4B0D0A000000001F
:103040008B000020B00300208D00002052657472B8
:1030500079205075622E0D0A000000005055422064
:103060004552524F520D0A0010B504460D480078E3
:1030700030B90D480DA1D0F8A4201048904710E0B9
:103080000F48007D012803D1204602F04FFA03E0EB
:103090000CA1114802F01FFA00200249087001201B
:1030A000207510BD6A0100209400002041542B437C
:1030B000455245473D310D0A000000001931000816
:1030C000B00C00205245472053657420544F2052C5
:1030D000455345542E0D0A000038014010B50446F2
:1030E0002088401C20802088B0F5FA7F0BDD07483F
:1030F00001F042FE012006490870002005490875CC
:103100002080012010BD0020FCE700001C120020E0
:103110006A010020B00C002010B50A4890F80702A0
:1031200001280BD108A10B4802F0D5F901200A496A
:103130000870002009490880012010BD0748FFF7EA
:10314000CDFFFAE7700100205245472052656164C7
:10315000790D0A00003801406A0100206C0100204E
:1031600070B505460024CBE000BF6948B0F80812EE
:1031700000F58270405C67490855601C84B2644861
:10318000B0F80802401C6249A1F808020846B0F8ED
:103190000802B0F5807F02D10020A1F808025C4847
:1031A000B0F8081200F58270405C0A28DDD158485A
:1031B000B0F80802401C5649A1F808020846B0F8C9
:1031C0000802B0F5807F02D10020A1F808020A2091
:1031D00050490855601C84B2002008554EA1514842
:1031E00002F079F94B494F4802F075F94EA1494870
:1031F000FDF700F94749884203D1084600F0B4FFC3
:1032000077E04CA14348FDF7F5F84249884203D1E5
:1032100001204A4908706CE049A13E48FDF7EAF8F0
:103220003C49884203D101204449087061E047A12C
:103230003848FDF7DFF83749884203D101203F497C
:10324000087056E044A13348FDF7D4F8314988426C
:1032500015D145A12F48FDF7CDF82E49884206D15A
:1032600045480078012844D14449087041E044A110
:103270002C4802F030F902204049087039E043A19F
:103280002448FDF7B7F82349884203D10120434978
:1032900008702EE042A11F48FDF7ACF81D49884296
:1032A00003D101204249087023E042A11948FDF7EB
:1032B000A1F81849884203D101204249087018E05A
:1032C00041A11448FDF796F81249884211D141A155
:1032D0001048FDF78FF80F49884203D1012041497A
:1032E000087006E040A10F4802F0F5F802203D49C1
:1032F00008700748B0F80402401E0549A1F804020E
:103300000348B0F8040200283FF72EAF70BD00005C
:1033100070010020600E0020526563656976653A91
:1033200000000000003801402B514D5452454356D7
:103330003A0000002B43455245473A0084000020E4
:103340002B514D54535441543A0000002B435343E6
:103350004F4E3A20300000002B514D545055423A08
:1033600020302C31000000002B514D545055423A72
:1033700020302C312C3000008C0000208A000020EE
:1033800057414954205075620D0A00002B514D548D
:10339000554E533A20302C312C300000480100208B
:1033A0002B514D545355423A20302C312C300000D3
:1033B0008E0000202B514D544F50454E3A20302C5A
:1033C00030000000670100202B514D54434F4E4EFA
:1033D0003A2030002B514D54434F4E4E3A20302C62
:1033E000302C3000880000205741495420436F6E34
:1033F0006E6563740D0A000010B504461F4800781E
:10340000012809D11E48007D012805D100201C4952
:1034100008751A4908702FE01948007D01282BD142
:10342000184890F8280050B901226421154801F08D
:1034300025FC4FF48071144800F055FE1CE0114843
:1034400001F058FC012817D10E4801F095FC4FF40B
:1034500080710D4800F045FE0CA1124802F03BF8C7
:1034600001201149087011490870002003490870B3
:103470000F4908750120207510BD0000850000204F
:10348000D4100020CC0C0020000801406C6561764F
:1034900065207761697420726573706F6E640D0AC0
:1034A0000000000000380140650100208400002079
:1034B000F80C002070B5044618480078012802D1A5
:1034C00000201749087016480078012808D11548CF
:1034D0000223154A15A1D0F8A4501A48A8471AE0AB
:1034E0001948007D01280DD10C48007818B917A1A2
:1034F0001A4801F0F0FF012008490870204602F048
:1035000015F803E016A1154801F0E5FF0120044974
:103510000870207500BF00BF70BD00006200002071
:103520008F000020940000204C00002041542B51BB
:103530004D545355423D302C312C222573222C25DD
:10354000640D0A00A9350008B00C0020414C4C2045
:10355000537562204F4B0D0A0000000000380140F7
:1035600053756220544F2052455345542E0D0A0086
:1035700010B504462078401C207020780A280ADD07
:10358000064801F0F9FB0020054908700549087557
:103590002070012010BD0020FCE70000C00D0020BD
:1035A0008F000020B00C002010B5254890F80702CD
:1035B000012830D1012241F28831224801F05EFB1E
:1035C00021480078012817D100201F4908701FA149
:1035D000214801F080FF21491F4801F07CFF194874
:1035E00001F0CAFB1E480078401C1D4908700020ED
:1035F0001C490870012010BD124801F07BFB012816
:1036000007D119A1144801F066FF1648FFF7B0FF73
:10361000F1E70220EFE701224FF4FA71094801F0C7
:103620002DFB084801F066FB012807D112A10A48CA
:1036300001F051FF0B48FFF79BFFDCE70220DAE7C0
:1036400070010020C00D00208E0000205375622004
:103650004F4B0D0A0000000000380140940000208C
:103660008F000020900000205265747279205375FD
:10367000622E0D0A00000000535542204552524F61
:10368000520D0A0010B50249024801F024FF10BD96
:1036900094000020004800400020024981F8810089
:1036A00070470000940000200120024981F8810049
:1036B00070470000940000200FB438B504460B4852
:1036C00090F8810078B90120084981F8810006A8A6
:1036D00000900648009A0599FCF7ECFD0020009048
:1036E0000248C0F8A84038BC5DF814FB94000020E4
:1036F00070B505460024224801F0FCFA01280AD1E1
:1037000020A1244801F0E7FE1D4801F035FB01200F
:10371000214981F88100204890F88100012810D1CA
:1037200002201D4981F8810000201C4981F8060211
:10373000FFF7A8FF01224FF47A71114801F09EFAB9
:103740001DE0154890F88100022818D1134890F820
:103750000602022813D10A4801F00EFB0E49D1F8E7
:10376000A80080470446012C04D10B49D1F8B000D1
:10377000804704E01CB90849D1F8AC00804770BD0F
:10378000EC0D002054582054494D45524F55540DCE
:103790000A00000000380140940000207001002061
:1037A00010B504461E480078012802D01D48007854
:1037B00010B900201C4908701B480078012813D15B
:1037C0001A481B4A1BA1D0F8A4302048984720A1D2
:1037D000204801F080FE20A11E4801F07CFE1CA1C3
:1037E0001C4801F078FE19E01D48007D01280CD12D
:1037F0000B48007828B90B480078012801D1084906
:103800000870204601F092FE03E016A1114801F075
:1038100062FE012004490870207500BF00BF10BD82
:103820006100002062000020490100209400002077
:103830004C00002041542B514D54554E533D302CDB
:10384000312C222573220D0A00000000B138000837
:103850000D0A000000380140556E7375622E00009D
:10386000B00C0020556E73756220544F20524553A2
:1038700045542E0D0A00000010B504462078401C67
:10388000207020780A280ADD064801F075FA002029
:1038900005490870054908752070012010BD0020F9
:1038A000FCE70000340E002049010020B00C00208D
:1038B00010B5234890F8070201282CD1012241F2CB
:1038C0008831204801F0DAF91F480078012813D127
:1038D00000201D4908701DA11F4801F0FCFD19487A
:1038E00001F04AFA1D480078401C1C49087000206D
:1038F0001B490870012010BD124801F0FBF9012896
:1039000007D118A1144801F0E6FD1548FFF7B4FFF0
:10391000F1E70220EFE701224FF4FA71094801F0C4
:10392000ADF9084801F0E6F9012807D111A10A48CC
:1039300001F0D1FD0A48FFF79FFFDCE70220DAE73C
:1039400070010020340E002048010020556E756281
:10395000204F4B0D0A0000000038014049010020B3
:103960004A010020526574727920556E7375622E7B
:103970000D0A0000556E737562204552524F520D6C
:103980000A00000000B591B0424801F0A3FB0121FC
:10399000082000F0DDFC0121880400F0B9FC0121C1
:1039A000084600F0A5FC18208DF82F004FF4806029
:1039B000ADF82C0003208DF82E000BA9364800F03E
:1039C00005FB04208DF82F004002ADF82C000BA958
:1039D000314800F0FBFA2F4801F07CFB4FF4E13056
:1039E0000D900020ADF83800ADF83A00ADF83C007D
:1039F000ADF840000C20ADF83E000DA9254801F0BF
:103A000013FC27208DF8300000208DF831008DF850
:103A1000320001208DF833000CA800F0F1FB4021AA
:103A20001C4801F029FB012240F22441194801F011
:103A3000D6FB0121174801F037FB0021174800F0A1
:103A4000B3F8164800F0BCF81248001D0090144866
:103A5000019000200290802003900020049080209C
:103A6000059000200690079008904FF48050099030
:103A700000200A906946094800F048F901224021D7
:103A8000044801F01DFB0121044800F08DF811B03D
:103A900000BD000000480040000C01403000024022
:103AA0007401002010B504460D48007830B90D4867
:103AB0000DA1D0F8A4201048904710E00F48007DD9
:103AC000012803D1204601F031FD03E00CA112488A
:103AD00001F001FD0020024908700120207510BD91
:103AE0005E0100209400002041542B43454452586D
:103AF000533D300D0A000000593B0008B00C002077
:103B0000654452582053657420544F205245534504
:103B1000542E0D0A000000000038014010B5044684
:103B20002088401C20802088B0F5FA7F0BDD0748F4
:103B300001F022F9012006490870002005490875A6
:103B40002080012010BD0020FCE700000C110020A7
:103B50005E010020B00C002010B50A4890F8070262
:103B600001280BD108A10C4801F0B5FC01200B493C
:103B7000087000200A490880012010BD0848FFF79E
:103B8000CDFFFAE77001002065445258205265616C
:103B900064790D0A00000000003801405E01002039
:103BA0006001002000BFFEE721B1026842F001027F
:103BB000026004E002684FF6FE731A40026070472C
:103BC00001684FF6FE721140016000210160416002
:103BD0008160C1604B49884208D14A490839496827
:103BE00041F00F01474A083A51608AE045491431D3
:103BF000884208D143490839496841F0F001414AF7
:103C0000083A51607DE03F492831884208D13D495A
:103C10000839496841F470613A4A083A516070E0E5
:103C200038493C31884208D136490839496841F45D
:103C30007041344A083A516063E032495031884259
:103C400008D130490839496841F470212D4A083AB1
:103C5000516056E02B496431884208D1294908391E
:103C6000496841F47001274A083A516049E0254902
:103C70007831884208D123490839496841F0706198
:103C8000204A083A51603CE01F49884206D1011F92
:103C9000096841F00F01021F116032E01A49143126
:103CA000884208D11849091F096841F0F001164AF5
:103CB000121F116025E014492831884208D11249A9
:103CC000091F096841F470610F4A121F116018E062
:103CD0000D493C31884208D10B49091F096841F45C
:103CE0007041094A121F11600BE0074950318842A8
:103CF00007D10549091F096841F47021024A121FC2
:103D000011607047080002400804024010B500220C
:103D1000026847F6F0739A430C6A8B6823430C6978
:103D200023434C6923438C692343CC6923434C6A66
:103D300023438C6A23431A430260CB6843600B68B9
:103D400083604B68C36010BD4160704770474FF09F
:103D5000E020006920F004004FF0E0210861704786
:103D600000B5034642F2283058434FF0E021486145
:103D7000002088610120086100BF4FF0E020026947
:103D800002F0010018B102F480300028F5D000F0F4
:103D90002DFE00BD0149C8607047000000200240B0
:103DA00030B5044604254FF4302000F089F805466C
:103DB000042D17D10C48006940F002000A4908613F
:103DC00008464461006940F0400008614FF430202B
:103DD00000F076F805460448006941F6FD71084098
:103DE00001490861284630BD0020024004200B49EB
:103DF000C96801F0010109B101200EE00749C96855
:103E000001F0040109B1022007E00449C96801F08A
:103E1000100109B1032000E0042070470020024097
:103E200004200B49C96801F0010109B101200EE02D
:103E30000749C96801F0040109B1022007E00449FB
:103E4000C96801F0100109B1032000E004207047A7
:103E5000002002400348006940F0800001490861E9
:103E6000704700000020024070B504460D4604264D
:103E7000F00200F025F80646042E11D10948006929
:103E800040F00100074908612580F00200F018F8B1
:103E900006460448006941F6FE7108400149086180
:103EA000304670BD00200240024803494860034884
:103EB000486070472301674500200240AB89EFCD81
:103EC00000B502460423FFF791FF034603E0FFF726
:103ED0008DFF0346521E012B01D1002AF7D102B9F2
:103EE0000523184600BD000010B503A1064801F0E7
:103EF000F2FA00F075FB10BD526577726974696E55
:103F0000672E2E2E2E2E2E00003801400EB52D4A83
:103F1000126800922B4A121D12680192294A083237
:103F2000126802920022284B1A76172015E0009A98
:103F300002F00F010A2904DA01F13002224B1A546F
:103F400006E0A1F10A0251B201F141021E4B1A54DE
:103F5000009A12090092421E50B21028E7DA15E0CA
:103F6000019A02F00F010A2904DA01F13002164B1E
:103F70001A5406E0A1F10A0251B201F14102124BBA
:103F80001A54019A12090192421E50B20828E7DA27
:103F900015E0029A02F00F010A2904DA01F1300259
:103FA000094B1A5406E0A1F10A0251B201F1410293
:103FB000054B1A54029A12090292421E50B200286E
:103FC000E7DA0EBDE8F7FF1FE00F00202DE9F04112
:103FD000024600250026002000230024002791F837
:103FE00003C00CF00F0591F803C00CF0100CBCF1ED
:103FF000000F03D091F802C04CEA050591F800C00B
:10400000BCF1000F31D0146800202BE04FF0010C00
:104010000CFA00F3B1F800C00CEA03069E4220D16E
:1040200083004FF00F0C0CFA03F7BC4305FA03FCB6
:104030004CEA040491F803C0BCF1280F06D14FF0FC
:10404000010C0CFA00FCC2F814C00AE091F803C09D
:10405000BCF1480F05D14FF0010C0CFA00FCC2F87E
:1040600010C0401C0828D1D31460B1F800C0BCF1C6
:10407000FF0F34DD546800202EE000F1080C4FF0F3
:10408000010808FA0CF3B1F800C00CEA03069E42DE
:1040900021D183004FF00F0C0CFA03F7BC4305FA53
:1040A00003FC4CEA040491F803C0BCF1280F05D1CD
:1040B00000F1080C08FA0CF8C2F8148091F803C05B
:1040C000BCF1480F07D100F1080C4FF0010808FAC5
:1040D0000CF8C2F81080401C0828CED35460BDE80C
:1040E000F0814161704701617047000003E002A167
:1040F000044801F0F0F9FAE76572726F72210D0A57
:10410000000000000038014000B58BB014221249B5
:1041100006A8FCF78DF914220F49143101A8FCF709
:1041200087F901210D4800F099FA00210C4800F0B0
:1041300095FA0A4906A8FCF76FF906A9094801F0A3
:10414000CAF9074901A8FCF767F901A9054801F078
:10415000C2F90BB000BD0000F457000814000020A5
:10416000240000200038014010B504460AA1104880
:1041700001F0B1F90F4B104A10A11D48FCF7ACF843
:10418000022807D10B490A4801F0A5F919A10848EE
:1041900001F0A1F910BD00005265636569766520E4
:1041A0007375622E2E2E2E2E2E2E2E2E2E000000F9
:1041B00000380140600F0020E00E00202B514D54CC
:1041C000524543563A20302C252A5B303132333465
:1041D00035363738395D2C22253132375B5E225D2A
:1041E000222C22253132375B5E225D220000000046
:1041F000600E00202121210000BFFEE77047000073
:1042000070B5002100230F22C47804B3154C246834
:1042100004F4E064C4F5E064210AC1F10403CA4077
:10422000447804FA03F184781440214309010E4CC8
:104230000678A155047804F01F050124AC400578E8
:104240006D11AD0005F1E025C5F8004109E00478E5
:1042500004F01F050124AC40044D0678761145F8A2
:10426000264070BD0CED00E000E400E080E100E0DD
:1042700002490143024A1160704700000000FA053C
:104280000CED00E07047017BB9B98168096821B97C
:1042900081680860406000600DE081680968096815
:1042A000016081680968416081680968096848603F
:1042B000816809680860012101737047017B012949
:1042C00015D14168814203D100218268116005E067
:1042D000D0E900215160D0E90012116081680968BD
:1042E000814202D1D0E901121160002101737047AF
:1042F00029B1064A52690243044B5A6104E0034A59
:1043000052698243014B5A6170470000001002401D
:1043100029B1064AD2690243044BDA6104E0034A38
:10432000D2698243014BDA617047000000100240FD
:1043300029B1064A12690243044B1A6104E0034A98
:1043400012698243014B1A6170470000001002405D
:1043500029B1064A92690243044B9A6104E0034A78
:1043600092698243014B9A6170470000001002403D
:1043700029B1064AD2680243044BDA6004E0034ADA
:10438000D2688243014BDA6070470000001002409F
:1043900030B500210022002400232D4D6D6805F06A
:1043A0000C0121B1042905D0082923D105E0294DAC
:1043B000056022E0274D05601FE0254D6D6805F47E
:1043C0007012234D6D6805F48034022505EB92428E
:1043D0001CB9214D554305600BE01D4D6D6805F47A
:1043E00000351DB11C4D5543056002E0194D554384
:1043F000056002E0174D056000BF00BF144D6D68F9
:1044000005F0F0010909154D6B5C0568DD4045605C
:104410000F4D6D6805F4E061090A104D6B5C45684D
:10442000DD4085600A4D6D6805F46051C90A0B4D89
:104430006B5C4568DD40C560054D6D6805F4404125
:10444000890B074D6B5CC568B5FBF3F5056130BDA5
:104450000010024000127A0000093D000000002018
:104460001000002030B503465BE014883648005D3C
:104470000D2804D014883448005D0A280FD1334831
:10448000007800284AD10120304C20700A240D8881
:104490002D48803044550888401C08803EE02A485A
:1044A000001F90F8060202280DD128480078012844
:1044B00009D10020254C207000240D88224880302E
:1044C0004455002030BD2148007801281AD11488B5
:1044D0001D48005D452808D100201B4C241F84F88E
:1044E0000702022084F806020CE014881648005DDA
:1044F0004F2807D10120144C241F84F80702022002
:1045000084F806020020114C207014880E48045DC7
:104510000D88803044550888401C08801088401C55
:10452000108010889842A0DB0748001F90F8060210
:10453000022807D10020054C207000240D88024875
:10454000803044550120BDE774010020A403002001
:1045500070B50346002439E015881F48405D0D28DA
:1045600004D015881C48405D0A2818D15CBB012482
:104570000A250E8819488555A0F58270B0F8040206
:10458000401C154D2D1FA5F804020888401C08800A
:104590000888B0F5807F16D10020088013E0012C38
:1045A00001D1002070BD002415880B48455D0E88A0
:1045B0000A4885550888401C08800888B0F5807F27
:1045C00001D1002008801088401C1080108898427B
:1045D000C2DB0120E6E70000740100207402002025
:1045E0000EB5002002901A48019000BFFFF718FC9A
:1045F0000428FBD1FFF758FC00BFFFF711FC04288B
:10460000FBD13420FFF7C6FB00BF1148FFF7C8FB02
:104610000428FAD1002001AB02AA0E4900900E48EE
:1046200000F08EFF012001AB02AA0A490090084663
:1046300000F086FF00BFFFF7F3FB0428FBD1FFF774
:1046400009FC00BFFFF7ECFB0428FBD10EBD000006
:1046500000F00008240000201400002010B50246DD
:10466000012902D1104B114C236000200AE00F4BAE
:104670001B681B781354431CD8B20C4B1B685B1C83
:104680000A4C2360094B1B68094CA34204D8074B12
:104690001B681B78002BEAD1044B1B685B1C034C86
:1046A00023600023135410BD00F000088000002098
:1046B000FFF3000870B505460C46286878B12068FD
:1046C00008B92868206020680069007D18B9226850
:1046D00010698169884720684068206003E020688D
:1046E00008B10020206070BD704710B500F002F8DE
:1046F00010BD00000CB50020019000903348006808
:1047000040F480303149086000BF3048006800F450
:10471000003000900198401C0190009818B9019851
:10472000B0F5A06FF1D12948006800F4003010B155
:104730000120009001E0002000900098012843D162
:104740002348006840F010002149086008460068CE
:1047500020F0030008600846006840F0020008608E
:104760001A48406819494860084640684860084649
:10477000406840F4806048600846406820F47C103F
:1047800048600846406840F4E81048600846006801
:1047900040F08070086000BF0C48006800F00070B6
:1047A0000028F9D00948406820F003000749486014
:1047B0000846406840F00200486000BF0348406877
:1047C00000F00C000828F9D10CBD000000100240D8
:1047D000002002407047000010B500F01BF80A20CE
:1047E000FFF7BEFA4FF4A060FFF742FDFFF7AFFA04
:1047F00000F00FFA00F090FDFFF788FB044908680D
:104800008047FEF717F800F075FE00F033F810BD92
:104810007001002010B51348006840F001001149F4
:10482000086008464068104908400E49486008463C
:1048300000680E4908400B4908600846006820F4EB
:10484000802008600846406820F4FE0048604FF46D
:104850001F008860FFF749FF4FF0006004490860BF
:1048600010BD0000001002400000FFF8FFFFF6FE40
:1048700008ED00E010B53A4800233A49D0F8A020EE
:10488000843000F0B7F9384800233649D0F82822A0
:1048900000F5037000F0AEF900F03AFE0023334A51
:1048A0003049334800F0A6F90123324A2D493248F5
:1048B00000F0A0F90123314A2A49314800F09AF961
:1048C0000123304A2749304800F094F901232F4A48
:1048D00024492F4800F08EF901232E4A21492E4801
:1048E00000F088F901232D4A1E492D4800F082F975
:1048F00001232C4A1B492C4800F07CF901232B4A48
:1049000018492B4800F076F901232A4A15492A480C
:1049100000F070F90123294A1249294800F06AF988
:104920000123284A0F49284800F064F90123274A47
:104930000C49274800F05EF90123264A0949264818
:1049400000F058F90123254A0649254800F052F99C
:104950000123244A0349244800F04CF910BD00000B
:10496000940000204C01002070010020B9240008B0
:10497000F80C0020892D0008E41100205D230008B8
:10498000FC0F0020E52000084410002069300008DA
:10499000001200205D2200088C100020A1280008D1
:1049A00038110020A53A0008F0100020F129000875
:1049B000801100205D2B00089C110020412500087B
:1049C000140D0020A1370008180E0020B53400088F
:1049D000A40D00200D2E00085C0D0020F933000806
:1049E000B00C0020BD270008D410002000204FF09C
:1049F000E02108618861704710B50121880700F047
:104A00008AF8F8B10121880700F076F80E480068AE
:104A1000C0B10D4800680D49086000BF0B48006830
:104A200000698069401C094909680969886107486B
:104A3000006840680549086008460068024909683E
:104A40008842EBD110BD0000A8030020AC03002079
:104A500010B50121204800F05EF800283BD001216C
:104A60001D4800F049F81D48007820B100201C497D
:104A700008701A4908701B480078012828D11A4884
:104A80000078401C184908701848007801280DD19A
:104A90000846007816490978884207D10120104954
:104AA0000870114800781349087014E00E48007827
:104AB00010490978401A0E49097888420BD1012023
:104AC0000A4908700020084908700A49087002E085
:104AD00000200349087010BD00040040630000205E
:104AE000B00300208800002068000020690000203A
:104AF0006A0000206B000020CA430282704721B187
:104B0000028842F00102028004E002884FF6FE7340
:104B10001A400280704730B502460020002300246E
:104B2000158A05EA0103958905EA010413B10CB160
:104B3000012000E0002030BD1AB183890B4383813E
:104B400002E083898B438381704781847047000032
:104B5000002202881D4B98420ED01D4B98420BD06C
:104B6000B0F1804F08D01B4B984205D01A4B9842A9
:104B700002D01A4B984204D14FF68F731A404B88DB
:104B80001A43174B984207D0164B984204D04FF661
:104B9000FF431A40CB881A4302808B8883850B8899
:104BA00003850A4B98420BD0094B984208D00E4B14
:104BB000984205D00D4B984202D00D4B984201D13E
:104BC0000B7A03860123838270470000002C01408A
:104BD000003401400004004000080040000C004088
:104BE000001000400014004000400140004401401B
:104BF000004801402DE9F04104460D4616461F4687
:104C00002775A6612461A5602046FFF73CFBBDE83F
:104C1000F0811FB501210846FFF77AFB42F20F70C1
:104C2000ADF8080048F69F40ADF804000020ADF84C
:104C30000A00ADF8060001A94FF08040FFF788FF99
:104C4000012211469007FFF777FF1C208DF8000026
:104C500003208DF8010002208DF8020001208DF85C
:104C6000030001218007FFF747FF6846FFF7C8FAF6
:104C700000214FF08040FFF742FF1FBD70B5044692
:104C80000D46164694F82800012800D170BD4FF05B
:104C9000804080894FF6FE7108404FF08041888146
:104CA0001348006840B900214FF08040FFF74DFFE6
:104CB00001218807FFF723FF24610D48A060002031
:104CC000A06120624FF08040808C60616800E061EC
:104CD00066622046FFF7D7FA012084F82800800793
:104CE000808940F001004FF08041888100BFCDE70E
:104CF000A803002010B5014691F8280008B900204B
:104D000010BD4FF08040828C80894FF6FE742040A9
:104D10004FF08044A081E2B140F271248869604381
:104D200002EB00104C69001BCC69A04211D3088B28
:104D300040F27124604302EB00108C8A001B8C8BC4
:104D4000001B83B200208861D01A4861086A401CA9
:104D500008624FF08040808940F001004FF08044AD
:104D6000A081D1E90804A04203D3002008620120F9
:104D7000C6E70020C4E7000010B5044694F82800F8
:104D800000B910BD4FF0804080894FF6FE71084099
:104D90004FF0804188810020A06160612062204640
:104DA000FFF78CFA002084F828000B48006848B907
:104DB00000214FF08040FFF7A2FE00214FF080401D
:104DC000FFF7C3FE4FF08040808940F001004FF0B4
:104DD0008041888100BFD4E7A803002010B540F2CD
:104DE0002441484800F0D1F900287CD000214648F1
:104DF000FEF7DAFE434800F083FA43486C38006F50
:104E0000C0F1800041490880414800880988084471
:104E1000B0F5007F07DB00213E483D4A12888154EF
:104E200000203B49088000203B4908703B4908802E
:104E300031E03B4839490988405C0D2805D03848A5
:104E400036490988405C0A2810D133480078E8B90F
:104E50000120314908700A212E482D4A12888154B8
:104E60002B480088401C2A4908800FE000202A496E
:104E700008702B4829490988415C2648244A128831
:104E8000815423480088401C214908802348008819
:104E9000401C22490880214800881C490988884212
:104EA000C7DB00211B481A4A128881541848008821
:104EB00040F2FF11884203D100201549088004E028
:104EC00013480088401C1249088016484088401C3E
:104ED0001449488080210C48FEF736FF01210A481A
:104EE000FEF762FE00E004E040F22441054800F0D5
:104EF000CCF80DA10F4800F0EEFA09490D4800F07A
:104F0000EAFA10BD004400406C0002407800002026
:104F10007A000020B00800207E0000207C000020E5
:104F2000B00500206C0000200D0A757361727432A8
:104F30003A0D0A000038014010B5002440F2244127
:104F4000464800F022F900287ED000214448FEF7B0
:104F50002BFE424800F0D4F941483038406BC0F194
:104F600080004049088000203F49088004E03E4816
:104F70000088401C3C4908803C483B490988405C0B
:104F80000D28F4D0394838490988405C0A28EED009
:104F9000364835490988405C0028E8D03148008807
:104FA00080284BD02F4800882F490988884245D057
:104FB0002E482D490988405C41280BD02B482A49AE
:104FC0000988405C2B2805D02848001F90F806026D
:104FD000012833D100BF2548001F90F806020128A0
:104FE00007D1214A22491F480088FFF73BFA0446AF
:104FF00022E01E481C490988405C41280FD100204E
:105000001B49088001201949091F81F80602164A28
:10501000174914480088FFF725FA04460CE01348A6
:1050200011490988405C2B2806D10F4A11490D48C7
:105030000088FFF78DFA0446002CCCD08021084868
:10504000FEF782FE012100E007E00548FEF7ACFD17
:1050500040F22441014800F018F810BD004800401B
:10506000300002409C030020A203002074010020B5
:105070009E030020A003002001F40072B2F5007F1F
:1050800000D100BFCA430280704710B50022002340
:1050900040F66A14A14200D100BF0A1201249440D4
:1050A000A3B2DC43048010BD21B1828942F40052D6
:1050B000828104E082894DF6FF731A408281704735
:1050C0001AB1838A0B43838202E0838A8B438382F3
:1050D0007047000010B504462048844209D10121E0
:1050E0008803FFF745F900214FF48040FFF740F9AE
:1050F00032E01B48844209D101214804FFF718F926
:1051000000214FF40030FFF713F925E015488442E1
:1051100009D101218804FFF70BF900214FF4802009
:10512000FFF706F918E01048844209D10121C804AC
:10513000FFF7FEF800214FF40020FFF7F9F80BE02D
:105140000A48844208D101210805FFF7F1F800213F
:105150004FF48010FFF7ECF810BD0000003801405C
:105160000044004000480040004C00400050004017
:1051700002460020B1F5007F00D100BF13880B402C
:105180000BB1012000E00020704770B502460024FA
:1051900000230025002040F66A16B14200D100BF6E
:1051A000C1F3421501F01F03012606FA03F3012D96
:1051B00002D19689334006E0022D02D1168A33408F
:1051C00001E0968A33400C12012606FA04F4168890
:1051D000344013B10CB1012000E0002070BDF0B5E7
:1051E0000346002400260025002040F66A17B94235
:1051F00000D100BF1846C1F3421401F01F06012779
:1052000007FA06F5012C01D10C3004E0022C01D183
:10521000103000E014301AB107682F43076002E035
:105220000768AF430760F0BD2DE9F04786B005463B
:105230000E460024A24600BFA1460027B08900B157
:1052400000BF2F462C8A4CF6FF700440F0880443C0
:105250002C82AC894EF6F3100440B08831890843A3
:10526000718908430443AC81AC8A4FF6FF40044087
:10527000B0890443AC8201A8FFF78AF81F4887422F
:1052800002D1DDF810A001E0DDF80CA0A88900F43F
:10529000004040B10AEBCA0000EB0A103168490037
:1052A000B0FBF1F807E00AEBCA0000EB0A10316826
:1052B0008900B0FBF1F86420B8FBF0F0040120098C
:1052C000642101FB1089A88900F4004040B132201C
:1052D00000EBC900B0FBF1F000F00700044308E068
:1052E000322000EB09106421B0FBF1F000F00F0058
:1052F00004432C8106B0BDE8F0870000003801406F
:1053000001468888C0F308007047C1F30802828014
:10531000704700BFFEE7000000B585B01D48FFF7ED
:10532000D9FE012144F20400FFF712F818208DF88D
:1053300003004FF40070ADF8000003208DF8020068
:1053400069461548FEF742FE04208DF8030000026E
:10535000ADF8000069461048FEF738FE0D48FFF72B
:10536000B9FE4FF4E13001900020ADF80800ADF82F
:105370000A00ADF80C00ADF810000820ADF80E00E2
:1053800001A90448FFF750FF01210248FFF78CFEF6
:1053900005B000BD003801400008014000B591B0E3
:1053A0004148FFF797FE01210420FEF7D1FF0121BC
:1053B0004804FEF7ADFF01210846FEF799FF1820CB
:1053C0008DF82F000420ADF82C0003208DF82E005E
:1053D0000BA93648FEF7FAFD04208DF82F000820AF
:1053E000ADF82C000BA93148FEF7F0FD2E48FFF771
:1053F00071FE4FF4E1300D900020ADF83800ADF8AB
:105400003A00ADF83C00ADF840000C20ADF83E008D
:105410000DA92548FFF708FF26208DF83000002051
:105420008DF831008DF8320001208DF833000CA882
:10543000FEF7E6FE40211C48FFF71EFE012240F267
:1054400024411948FFF7CBFE01211748FFF72CFE36
:1054500000211748FEF7A8FB1548FEF7B1FB1248DC
:10546000001D0090134801900020029080200390BE
:1054700000200490802005900020069007902020B6
:105480000890C001099000200A9069460848FEF77C
:105490003DFC012240210448FFF712FE012104488F
:1054A000FEF782FB11B000BD00440040000801403F
:1054B0006C000240B005002070B504460D46294638
:1054C0002046FFF722FF00BF80212046FFF750FE55
:1054D0000028F9D070BD70B506460C46002505E0E1
:1054E000615D3046FFF7E8FF681C85B2605D00280B
:1054F000F6D170BD10B500F081F8FFF74FFF00F056
:10550000FDF8FEF7F1FCFEF7FFFD00F015F910BD08
:1055100010B50023024A03490348FFF76BFB10BD97
:10552000555700084C010020DC040020D0E901128E
:105530001268914203D000214268126911757047C8
:105540002DE9F04706460F4614461D46DDF820902B
:1055500018E0206820B12068401E305C00B915E0DA
:105560002068315C401C305C01EB00201FFA80F8A1
:1055700041462868FEF778FC2868801C286020686F
:10558000801C20602068305C0028E2D100BF2068C9
:10559000401E305C90B1B9F1010F02D14FF000080C
:1055A00002E038784FEA002841462868FEF75CFCA4
:1055B0002868801C28600120206001E00020206015
:1055C000BDE8F087490050EAC12018BF04204A0D09
:1055D00018BF40F0010040F2FF72B2EB515F08BF0C
:1055E00040F00200012808BF0520704730380A2823
:1055F00001D20120704700207047000010B505A1BE
:105600000948FFF768FFFFF787FE08A10648FFF784
:1056100062FF10BD496E6974696E672073656E73B1
:105620006F72732E2E2E000000380140416C6C20EA
:1056300073656E736F7220696E6974206F6B2E00D4
:1056400010B588B020220F496846FAF7F1FE002411
:1056500005E01DF804100C480155601CC4B21E2C56
:10566000F7DB002405E00848015D08480155601C8F
:10567000C4B21E2CF7DB0548A0F11001C86008B0C9
:1056800010BD0000C057000810050020C003002016
:1056900008B5FFF7A1F803E069460248FFF70AF8EA
:1056A000FAE700004C0100207FB505460C460121B9
:1056B0000220FEF72DFEADF80850ADF804400020A2
:1056C000ADF80A00ADF8060001A90B48FFF740FA53
:1056D000012211460848FFF72FFA1D208DF800001F
:1056E00000208DF801008DF8020001208DF80300E4
:1056F0006846FEF785FD7FBD0004004000B585B01B
:10570000142209496846FAF793FE08490848FAF74F
:1057100083FE07496846FAF77FFE69460548FFF7AA
:10572000DAFE05B000BD0000E0570008D0040020FC
:105730004C0000200038014010B541F61F4141F2F5
:105740008730FFF7B1FF01210148FFF7D8F910BDFD
:105750000004004010B50446FFF772FF10BD0000C2
:1057600010B500290AD00878002807D005487844E9
:10577000FCF7A8F8002801D0002010BD02487844AA
:1057800010BD0000CA010000C201000010B50029D0
:105790000AD00878002807D005487844FCF792F82A
:1057A000002801D0002010BD0248784410BD000040
:1057B000BA010000B2010000FBF7D8BAFBF70CBC3D
:1057C000317C327C337C340000000000000000009B
:1057D00000000000000000000000000000000000C9
:1057E000544F5049433A0000000000000000000000
:1057F0000000000049503A000000000000000000D6
:105800000000000000000000506F72743A000000B9
:105810000000000000000000000000000000000088
:1058200000000000303132333435363738394142E8
:1058300043444546403058003031323334353637F2
:10584000383961626364656640307800040000089E
:1058500000000000000000020001000010303132A2
:105860003334353637383961626364656678700081
:105870003031323334353637383941424344454686
:105880005850000002400000000000A0000000008E
:1058900005400000000000C8000000000C400000AF
:1058A0000000409C00000000194000000020BCBE29
:1058B0000000000034400000BFC91B8E000000043F
:1058C000B5400000504BCFD06607E2CF010000008A
:1058D0006C4100003E8251AADFEEA73401000000B7
:1058E000D9420000DCB5A0E23A301F97FFFFFFFF6E
:1058F000B4450000FD25A0C8E9A3C14FFFFFFFFF8D
:10590000FF3F00000000008000000000FF3F00009B
:105910000000008000000000645A00080000002021
:10592000B003000028010008D45A0008B00300208A
:10593000F8140000840100081C000000430000006F
:10594000F8FFFFFF0C0000000E0000000F00000039
:105950002E0000001001000043000000F8FFFFFFD0
:105960000040404040404040404041414141414072
:105970004040404040404040404040404040404027
:1059800040050202020202020202020202020202B6
:1059900002202020202020202020200202020202BB
:1059A0000202909090909090101010101010101013
:1059B000101010101010101010101010020202021F
:1059C0000202888888888888080808080808080863
:1059D000080808080808080808080808020202025F
:1059E0004000000000000000000000000000000077
:1059F00000000000000000000000000000000000A7
:105A00000000000000000000000000000000000096
:105A10000000000000000000000000000000000086
:105A20000000000000000000000000000000000076
:105A30000000000000000000000000000000000066
:105A40000000000000000000000000000000000056
:105A50000000000000000000000000000000000046
:105A600000000000412D010203040430160607085F
:105A7000090204060834372E3130362E3234392EDE
:105A80003139163631363133900970617373776F5F
:105A90007264C661646D696EE773746174652F6BBF
:105AA00001010902190A59232907692E019D13F1E1
:105AB000361B08B904411AA9082A990C091ABA997F
:105AC0001C4B85393801FF01FF012213613102149B
:045AD00008000000CA
:04000005080000ED02
:00000001FF
