:020000040800F2
:10000000680B0020DD0100087D090008DB070008FF
:10001000790900089F060008DF11000800000000B1
:10002000000000000000000000000000450E000875
:10003000A306000800000000370D0008590F000853
:10004000F7010008F7010008F7010008F7010008B0
:10005000F7010008F7010008F7010008F7010008A0
:10006000F7010008F7010008F7010008F701000890
:10007000F7010008F7010008F7010008F701000880
:10008000F7010008F7010008F7010008F701000870
:10009000F7010008F7010008F7010008F701000860
:1000A000F7010008F7010008F7010008F701000850
:1000B000F7010008F7010008F7010008F701000840
:1000C000F7010008F7010008F7010008F701000830
:1000D000F7010008BD0F0008F7010008F70100084C
:1000E000F7010008F7010008F7010008F701000810
:1000F000F7010008F7010008F7010008F701000800
:10010000F7010008F7010008F7010008F7010008EF
:10011000F7010008F7010008F7010008F7010008DF
:10012000F7010008F7010008F7010008F7010008CF
:1001300000F002F800F042F80AA090E8000C8244B7
:100140008344AAF10107DA4501D100F037F8AFF294
:10015000090EBAE80F0013F0010F18BFFB1A43F0A5
:10016000010318470037000020370000103A24BF71
:1001700078C878C1FAD8520724BF30C830C144BF0C
:1001800004680C607047000000230024002500264E
:10019000103A28BF78C1FBD8520728BF30C148BFEA
:1001A0000B607047642900F0A580732900F04D8131
:1001B000002070471FB51FBD10B510BD00F078F9C5
:1001C0001146FFF7F7FF01F0C7F900F096F903B405
:1001D000FFF7F2FF03BC01F004F800000948804774
:1001E00009480047FEE7FEE7FEE7FEE7FEE7FEE719
:1001F000FEE7FEE7FEE7FEE704480549054A064B31
:10020000704700005D0F00083101000868050020FC
:10021000680B002068070020680700207047000076
:100220000FB4044910B503AA029800F013F910BCEA
:100230005DF814FB180000202DE9F0410E4604463D
:10024000002020622046E168884730B3252805D089
:10025000D4E901219047206A401CF2E7E16820467A
:1002600000278847050018D0A5F14100192802D8B9
:1002700020354FF400673246294620462760FFF7B5
:1002800091FF40B1012804D0F61D26F0070608367C
:10029000D8E7361DD6E72846DAE7206ABDE8F081C0
:1002A00070B50C460546012A05D02878800600D591
:1002B000EA69002302E0012305E05B1C934202D2BD
:1002C000E05C0028F9D1A869E618C01AA861286A7C
:1002D000184428622846AFF3008004E0D5E90121E4
:1002E00014F8010B9047B442F8D32846AFF30080CE
:1002F00070BD00002DE9F041064600241068752904
:10030000314616A510D0AFF30080002802DA404233
:1003100013A507E031688A0701D512A502E0490755
:1003200004D511A5012401E0AFF3008000210A22C9
:1003300006F1240709E0B0FBF2FCB0FBF2F302FB8C
:100340001C00303078541846491C0028F3D123464D
:100350002A463046BDE8F04100F00CB8000000002D
:100360002D0000002B0000002000000070477047A7
:10037000704770472DE9F0470D469946924604466E
:1003800000F124080168880604D5E06921F0100115
:10039000216000E00120A84201DD471B00E00027AA
:1003A000A1697A1902EB0900081AA0612078C00639
:1003B00002D42046AFF30080002608E0D4E90121F2
:1003C0001AF806009047206A401C761C20624E45B1
:1003D000F4DB2078C0060AD52046AFF3008006E0A3
:1003E000D4E9012130209047206A401C2062381E49
:1003F000A7F10107F4DC07E0D4E9012118F80500B2
:100400009047206A401C2062281EA5F10105F3DCFC
:100410002046AFF300802078000602D50220BDE818
:10042000F0870120FBE710B5436913B1AFF30080FB
:1004300001E0FFF735FF012010BD127800F1240123
:100440000A7000224A700122EDE711684FF0FF3276
:10045000E9E70000074B70B50D467B4400F011F84A
:100460000446284600F020F810B14FF0FF3070BD70
:10047000204670BD1F0F000001694A1C0261087808
:10048000704700B58FB0CDE90131002105910549D4
:100490007944CDE9031011466846FFF7CDFE0FB051
:1004A00000BD0000E5FFFFFF007B00F0800070470B
:1004B000754600F02BF8AE4605006946534620F01D
:1004C0000700854618B020B5FFF796FEBDE820402E
:1004D0004FF000064FF000074FF000084FF0000B00
:1004E00021F00701AC46ACE8C009ACE8C009ACE8B3
:1004F000C009ACE8C0098D46704710B50446AFF39B
:1005000000802046BDE81040FFF761BE00487047FC
:100510000405002021B1826842F00102826003E0FC
:10052000826822F0010282607047014600208A68DA
:1005300002F004020AB1012000E0002070470146E9
:10054000C86C80B270470246002013680B400BB1A4
:10055000012000E000207047014600208A6802F078
:1005600008020AB1012000E00020704730B50246C1
:100570000020002350680F4C20400D790C6844EA9D
:1005800005242043506090680B4C2040D1E9025470
:100590002C434D7944EA450420439060D06A20F40E
:1005A00070000C7C641EE4B2234340EA0350D06226
:1005B00030BD0000FFFEF0FFFDF7F1FFF0B504468F
:1005C0000D4600200021092D11DDE068A5F10A0685
:1005D00006EB4607072606FA07F18843A5F10A0647
:1005E00006EB460603FA06F10843E0600CE02069DA
:1005F00005EB4507072606FA07F1884305EB450694
:1006000003FA06F108432061072A0FDA606B561ED1
:1006100006EB86071F2606FA07F18843561E06EBEF
:10062000860605FA06F10843606322E00D2A0FDA18
:10063000206BD61F06EB86071F2606FA07F18843B4
:10064000D61F06EB860605FA06F10843206310E084
:10065000E06AA2F10D0606EB86071F2606FA07F1EF
:100660008843A2F10D0606EB860605FA06F108435B
:10067000E062F0BD816841F008018160704721B1FE
:10068000826842F4A002826003E0826822F4A00241
:1006900082607047816841F004018160704700BF4B
:1006A000FEE77047032803D10021034A117002E0DE
:1006B0000121014A11707047380000202DE9F041F6
:1006C000024600250026002000230024002791F880
:1006D00003C00CF00F0591F803C00CF0100CBCF136
:1006E000000F03D091F802C04CEA050591F800C054
:1006F000BCF1000F31D0146800202BE04FF0010C4A
:100700000CFA00F3B1F800C00CEA03069E4220D1B7
:1007100083004FF00F0C0CFA03F7BC4305FA03FCFF
:100720004CEA040491F803C0BCF1280F06D14FF045
:10073000010C0CFA00FCC2F814C00AE091F803C0E6
:10074000BCF1480F05D14FF0010C0CFA00FCC2F8C7
:1007500010C0401C0828D1D31460B1F800C0BCF10F
:10076000FF0F34DD546800202EE000F1080C4FF03C
:10077000010808FA0CF3B1F800C00CEA03069E4227
:1007800021D183004FF00F0C0CFA03F7BC4305FA9C
:1007900003FC4CEA040491F803C0BCF1280F05D116
:1007A00000F1080C08FA0CF8C2F8148091F803C0A4
:1007B000BCF1480F07D100F1080C4FF0010808FA0E
:1007C0000CF8C2F81080401C0828CED35460BDE855
:1007D000F081416170470161704700BFFEE7000092
:1007E00008B50121082000F0B3FAC020ADF80000E0
:1007F00010208DF8030003208DF80200694604489C
:10080000FFF75CFFC0210248FFF7E5FF08BD0000CD
:10081000000C014070B504461548006820F0704097
:10082000134908600846006840F040500860002006
:1008300010490860002517E0E0090E49091D08600D
:100840006006040E022000F073FD01200A49C1F881
:100850009801022000F06CFD00200649086002208B
:1008600000F066FD681CC5B2082DE5DB70BD000018
:10087000000C0140988121420080214210B50F48B0
:10088000006820F070400D4908600846006840F09C
:100890004050086001200A4908600A49C1F89801DF
:1008A000042000F045FD002005490860042000F008
:1008B0003FFD00200349C1F8980110BD000C014024
:1008C0009C8121420080214210B50F48006820F031
:1008D00070400D4908600846006840F040500860CC
:1008E00000200A4908600A49C1F89C01042000F070
:1008F0001FFD0120054908600549C1F89C0104203D
:1009000000F016FD10BD0000000C0140988121424E
:100910000080214210B500241448006820F0704087
:10092000124908600846006840F000400860012055
:100930000F49086000F0FCFC01200E49C1F8980145
:1009400000F0F6FC07E0601CC4B2FA2C03DDFFF7F0
:10095000BBFF012010BD0648803800680028F2D196
:100960000349091F086000BFF4E70000000C0140C4
:100970009C8121420080214200BFFEE770470000B9
:1009800070B5002100230F22C47804B3154C2468ED
:1009900004F4E064C4F5E064210AC1F10403CA4030
:1009A000447804FA03F184781440214309010E4C81
:1009B0000678A155047804F01F050124AC400578A1
:1009C0006D11AD0005F1E025C5F8004109E004789E
:1009D00004F01F050124AC40044D0678761145F85B
:1009E000264070BD0CED00E000E400E080E100E096
:1009F00070B500240CE0002506E00020074901EB5B
:100A0000C5010855681CC5B2802DF6DB601CC4B258
:100A1000082CF0DB00F08CF870BD00000401002011
:100A2000F0B5144600267F2801DC3F2900DDF0BD2B
:100A30000B46CF1701EB5777FF10C7F10707FAB244
:100A4000CF1701EB5777FF10A1EBC707FDB2C5F138
:100A500007070123BB40DEB24CB10A4B03EBC003D6
:100A60009B5C3343074F07EBC007BB5408E0054BC3
:100A700003EBC0039B5CB343024F07EBC007BB54BF
:100A800000BFD4E70401002010B5FFF7A9FE6420E1
:100A900000F028FCAE2000F038F9D52000F035F940
:100AA000502000F032F9A82000F02FF93F2000F08C
:100AB0002CF9D32000F029F9002000F026F940207D
:100AC00000F023F98D2000F020F9142000F01DF92A
:100AD000202000F01AF9022000F017F9A12000F000
:100AE00014F9C02000F011F9DA2000F00EF91220FC
:100AF00000F00BF9812000F008F9EF2000F005F973
:100B0000D92000F002F9F12000F0FFF8DB2000F01E
:100B1000FCF8302000F0F9F8A42000F0F6F8A62048
:100B200000F0F3F8AF2000F0F0F8FFF761FF10BD20
:100B300070B5002418E004F1B001C8B200F0E5F887
:100B4000002000F0E2F8102000F0DFF8002507E0B8
:100B5000074901EBC501085D00F0C1F8681CC5B28A
:100B6000802DF5DB601CC4B2082CE4DB70BD0000F6
:100B7000040100202DE9F84F80460F4616461C461A
:100B8000BA462046E31704EB5373DB1021464FEAC5
:100B9000E47C04EB5C7C4FEAEC0CA4EBCC0CBCF1E9
:100BA000000F02D04FF0010C01E04FF0000C634445
:100BB000224604EBD27C4FEA6C0C03FB0CF303F0EF
:100BC000FF0BA6F12000C6B200254EE00C2C07D189
:100BD00006EB4600274901EB8000405D009013E0E2
:100BE000102C05D1244800EB0610405D00900BE06E
:100BF000182C07D106EBC600204901EB8000405DB0
:100C0000009001E0BDE8F88F4FF0000927E0009860
:100C100000F0800028B1394640460A9AFFF700FFED
:100C200009E00A9808B9012000E000200246394690
:100C30004046FFF7F5FE00984006000E0090781C35
:100C4000C7B2A7EB0A00A04205D1574608F1010040
:100C500000F0FF0806E009F1010000F0FF09B9F11A
:100C6000080FD4DB00BF681CC5B25D45AEDB00BF1A
:100C7000C8E70000A220000816250008062B00087F
:100C8000F8B506460F4615461C4621E004EBD47124
:100C90004910C1F18001B14202DA00263819C7B209
:100CA000C4F14000B84204DA002006460746FFF7C8
:100CB0009FFE012000902A78234639463046FFF7F0
:100CC00059FF204604EBD07106EB6101CEB26D1CDA
:100CD00028787E2802DC28782028D7DAF8BD10B5DD
:100CE0000446FFF7CBFD7820FFF794FDFFF712FED7
:100CF0004020FFF78FFDFFF70DFE2046FFF78AFD2E
:100D0000FFF708FEFFF7E0FD10BD10B50446FFF742
:100D1000B5FD7820FFF77EFDFFF7FCFD0020FFF713
:100D200079FDFFF7F7FD2046FFF774FDFFF7F2FDB1
:100D3000FFF7CAFD10BD704701460020034A506806
:100D400020F440400843506070470000001002400B
:100D500029B1064A92690243044B9A6104E0034AAE
:100D600092698243014B9A61704700000010024073
:100D700030B500210022002400232D4D6D6805F0C0
:100D80000C0121B1042905D0082923D105E0294D02
:100D9000056022E0274D05601FE0254D6D6805F4D4
:100DA0007012234D6D6805F48034022505EB9242E4
:100DB0001CB9214D554305600BE01D4D6D6805F4D0
:100DC00000351DB11C4D5543056002E0194D5543DA
:100DD000056002E0174D056000BF00BF144D6D684F
:100DE00005F0F0010909154D6B5C0568DD404560B3
:100DF0000F4D6D6805F4E061090A104D6B5C4568A4
:100E0000DD4085600A4D6D6805F46051C90A0B4DDF
:100E10006B5C4568DD40C560054D6D6805F440417B
:100E2000890B074D6B5CC568B5FBF3F5056130BDFB
:100E30000010024000127A0000093D001E00002050
:100E40002E000020704710B500F002F810BD000021
:100E50000CB50020019000903348006840F48030C9
:100E60003149086000BF3048006800F4003000904D
:100E70000198401C0190009818B90198B0F5A06F36
:100E8000F1D12948006800F4003010B10120009031
:100E900001E0002000900098012843D12348006819
:100EA00040F01000214908600846006820F0030067
:100EB00008600846006840F0020008601A48406870
:100EC000194948600846406848600846406840F450
:100ED000806048600846406820F47C1048600846FE
:100EE000406840F4E81048600846006840F08070B0
:100EF000086000BF0C48006800F000700028F9D0BE
:100F00000948406820F003000749486008464068E7
:100F100040F00200486000BF0348406800F00C0049
:100F20000828F9D10CBD000000100240002002404A
:100F3000042808D14FF0E021096941F004014FF085
:100F4000E022116107E04FF0E021096921F004017E
:100F50004FF0E022116170477047000010B5134850
:100F6000006840F0010011490860084640681049D7
:100F700008400E494860084600680E4908400B4981
:100F800008600846006820F4802008600846406831
:100F900020F4FE0048604FF41F008860FFF753FF05
:100FA0004FF000600449086010BD000000100240CE
:100FB0000000FFF8FFFFF6FE08ED00E010B540F27C
:100FC00025511D4800F04AF810B31B4800F002F903
:100FD000C4B21A48008800F40040C8B91748008815
:100FE00000F4804060B10A2C03D00020134908802F
:100FF00020E01248008840F400401049088019E0C1
:101000000D2C06D10D48008840F480400B49088023
:1010100010E00A480088C0F30D0009490C54074845
:101020000088401C0549088008460088C72801DD63
:101030000020088010BD0000003801401C00002086
:101040003C00002021B1828942F40052828104E0F8
:1010500082894DF6FF731A408281704770B502464F
:10106000002400230025002040F66A16B14200D17A
:1010700000BFC1F3421501F01F03012606FA03F376
:10108000012D02D19689334006E0022D02D1168A45
:10109000334001E0968A33400C12012606FA04F42C
:1010A0001688344013B10CB1012000E0002070BD5F
:1010B000F0B50346002400260025002040F66A17FC
:1010C000B94200D100BF1846C1F3421401F01F0617
:1010D000012707FA06F5012C01D10C3004E0022C9F
:1010E00001D1103000E014301AB107682F430760B7
:1010F00002E00768AF430760F0BD00002DE9F0474C
:1011000086B005460E460024A24600BFA146002731
:10111000B08900B100BF2F462C8A4CF6FF70044006
:10112000F08804432C82AC894EF6F3100440B0885A
:1011300031890843718908430443AC81AC8A4FF676
:10114000FF400440B0890443AC8201A8FFF710FEC1
:101150001F48874202D1DDF810A001E0DDF80CA0A5
:10116000A88900F4004040B10AEBCA0000EB0A1065
:1011700031684900B0FBF1F807E00AEBCA0000EB68
:101180000A1031688900B0FBF1F86420B8FBF0F078
:1011900004012009642101FB1089A88900F40040A2
:1011A00040B1322000EBC900B0FBF1F000F00700C5
:1011B000044308E0322000EB09106421B0FBF1F099
:1011C00000F00F0004432C8106B0BDE8F08700005A
:1011D0000038014001468888C0F30800704700BF0E
:1011E000FEE7014600BF704710B504460C2C06D040
:1011F0000D2C14D00E2C22D00F2C40D12FE04FF408
:1012000000512048FFF7E5FA4FF480411D48FFF7F1
:10121000E0FA4FF480511B48FFF7DDFA2FE04FF45E
:1012200080511848FFF7D5FA4FF480411548FFF771
:10123000D0FA4FF400511348FFF7CDFA1FE04FF4F6
:1012400000511048FFF7C5FA4FF480510D48FFF7E1
:10125000C0FA4FF480410B48FFF7BDFA0FE04FF49E
:1012600000510848FFF7B7FA4FF480510548FFF7DF
:10127000B2FA4FF480410348FFF7ADFA00BF00BF58
:1012800010BD0000000C0140002003E00021034AD3
:101290001154401C0628F9DB704700003200002082
:1012A00010B56FF00400FFF743FE0A4800680A49D2
:1012B000B0FBF1F0094908700846007800EB4001E6
:1012C000C1EBC0104FF6FF7101EAC000044908806D
:1012D00010BD00000000002000127A001400002061
:1012E000160000200146114A12884A434FF0E023BD
:1012F0005A6100229A611A46126942F001021A618B
:1013000000BF4FF0E022106900F001021AB100F4B2
:101310008032002AF5D04FF0E022126922F001025B
:101320004FF0E0231A6100229A61704716000020F6
:101330000146114A12784A434FF0E0235A610022D5
:101340009A611A46126942F001021A6100BF4FF019
:10135000E022106900F001021AB100F48032002A84
:10136000F5D04FF0E022126922F001024FF0E023A5
:101370001A6100229A6170471400002000BF054ADC
:10138000128802F04002002AF9D0C2B2014B1B1DA4
:101390001A807047003801402DE9F84F4FF0000BDC
:1013A000DA462BE001211C48FFF769F900BF022152
:1013B0001948FFF7C8F80028F9D01748FFF7BFF819
:1013C000009000F046FB80460022144B00F0BCF970
:1013D00006460022124B00F04FFB044600F00CFBC7
:1013E000104901F80A0011F80A0000F087FD0446D0
:1013F000594600F03FFC83460AF1010ABAF1060F94
:10140000D0DB0949584600F097FC044600F056FD31
:10141000C0B2BDE8F88F0000002801400000B040D5
:1014200000E06F40320000200000C04070B5002492
:10143000002500264FF4165000F0D8F80C20FFF7D6
:10144000D3FEFFF7A9FF0446214612A0FEF7E8FEEF
:101450000D20FFF7C9FEFFF79FFF0546294611A0A3
:10146000FEF7DEFE0E20FFF7BFFEFFF795FF0646F4
:10147000314610A0FEF7D4FEC82E01DD032070BD5A
:10148000C82D01DD0220FAE7C82C01DD0120F6E7B6
:101490000020F4E72020B4ABB8D0C6F731A3BA25BA
:1014A000640000002020B4ABB8D0C6F732A3BA2540
:1014B000640000002020B4ABB8D0C6F733A3BA252F
:1014C0006400000000B503467BB9FFF7DDFE4C2049
:1014D0002049087045204870562088704520C87003
:1014E0004C2008713020487132E0012B0FD1FFF7FA
:1014F000CBFE4C2017490870452048705620887054
:101500004520C8704C2008713120487120E0022B22
:101510000FD1FFF7B9FE4C200E49087045204870E6
:10152000562088704520C8704C20087132204871C0
:101530000EE0FFF7A9FE44200649087041204870DC
:101540004E2088704720C87045200871522048718D
:10155000004800BD320000204FF4165000F046F85D
:1015600000F094F8FFF79CFEFFF78EFA26E0FFF7F5
:101570005DFF0546FFF7A6FF04460C232246002127
:101580000846FFF77DFBFFF7D3FAFFF74FFF06464C
:10159000FFF798FF0546294609A0FEF741FEFFF731
:1015A00045FF0546FFF77EF80948017809A0FEF7D8
:1015B00037FE4FF47A70FFF795FE00BFD7E70000C3
:1015C0002020CBAECEBBA3BA25730D0A00000000CD
:1015D00038000020202030D2ECB3A3A3AC31D5FDDD
:1015E000B3A320202564200D0A20200010B586B06A
:1015F0000446012144F20400FFF7AAFB4FF40070F7
:10160000ADF8140003208DF8160018208DF817008F
:1016100005A91C48FFF752F84FF48060ADF814009C
:1016200004208DF8170005A91648FFF747F8252074
:101630008DF8000003208DF801008DF802000120D4
:101640008DF803006846FFF79BF901940020ADF880
:101650000800ADF80A00ADF80C00ADF810000C2041
:10166000ADF80E0001A90848FFF748FD012240F23D
:1016700025510548FFF71CFD01210348FFF7E2FC57
:1016800006B010BD000801400038014000B587B029
:10169000012140F20940FFF75BFB4FF40040FFF7E8
:1016A0004BFB0220ADF8180003208DF81A00002033
:1016B0008DF81B0006A92248FFF700F84FF4E04020
:1016C000ADF8180003208DF81A0010208DF81B00CB
:1016D00006A91B48FEF7F2FF002001908DF80800D4
:1016E0008DF809004FF46020039000200490012041
:1016F0008DF8140001A91348FEF738FF07230122D3
:1017000009211048FEF75AFF01210E48FEF702FF9B
:101710000C48FEF7AFFF00BF0A48FEF71DFF002888
:10172000FAD10848FEF7B6FF00BF0648FEF7FDFEF7
:101730000028FAD101210348FEF7A1FF07B000BD40
:10174000000C0140002801402DE9C04130B4DFF811
:10175000A0C23CEA111418BF3CEA131400F0EC805C
:1017600081EA03051CEA111444EAD57418BF1CEA87
:10177000131500F0C780A4EB05044FF0004545EABF
:10178000C12145EAC32341EA505143EA525304F1CF
:101790007F74994204F500344FEAC0204FEAC22218
:1017A00008BF904200F09C804FEA13650FF240168C
:1017B000765D4FEA134506FB05F7C7F1807706FB18
:1017C00007F74FEAD737A7FB03687642C8F580389A
:1017D000A7FB06CE38BFA8F1010807FB08E64FF0CB
:1017E000000EA6FB028CE6FB03CEDCF1000CCEF172
:1017F000004E38BFAEF1010EA6FB0C584FF00007AB
:101800004FF00005E6FB0E87A1FB08C6A0FB07CE44
:1018100016EB0E0645F10005E1FB076515F1E04EFC
:101820007EBFA4F580345FEA46066D4116F180075D
:1018300045F100054FEA17274FEA066647EA0567B4
:10184000A6F1DE46B6F1805F4FEA15251FD938466E
:1018500024F0010C05EBC471BCF1FE6F01EB0C111F
:1018600002D8F0BCBDE8008124425CBF01F5801EB7
:101870009EEAC47F02D4F0BCBDE80081244238D483
:10188000F0BCA1F1C041BDE8004100F0EDB94FEA64
:10189000D22242EA43524FEAD323A7FB02864FEA01
:1018A000D02040EA415007FB03661EEA0E0F4FEAC4
:1018B000D12105FB026658BFA6EB0056B6EB0056D9
:1018C0004FEA520E4EEAC37E18EB0E0E56EB530E45
:1018D000BDD518EB02085E417F1C55F10005B6E747
:1018E0004FF480154FF000074FF000064FF000084E
:1018F000ADE7F0BC4FF0000001F1C04101F0004144
:10190000BDE8008111EA0C1F0CEA131500D00CE0B1
:1019100013EA0C1F00F025804FF00000F0BC81EAB4
:10192000030101F00041BDE80081F0BCBDE80041C9
:1019300081EA030100F098B9F0BCBDE8004170B540
:1019400000F044F9097EFC3E00F007B881EA03018B
:101950004FF0000001F00041704781EA030100F000
:1019600083B9F0BCBDE800414FF000002149704749
:10197000FFFDFBF9F7F5F4F2F0EEEDEBE9E8E6E454
:10198000E3E1E0DEDDDBDAD8D7D5D4D3D1D0CFCDDB
:10199000CCCBCAC8C7C6C5C4C2C1C0BFBEBDBCBB14
:1019A000BAB9B8B7B6B5B4B3B2B1B0AFAEADACAB0F
:1019B000AAA9A8A8A7A6A5A4A3A3A2A1A09F9F9EE9
:1019C0009D9C9C9B9A99999897979695959493939B
:1019D000929191908F8F8E8E8D8C8C8B8B8A898932
:1019E00088888787868585848483838282818180B5
:1019F0000000FF070000F87F4FEA1153A3F5806352
:101A0000D3F11E03A8BFD3F1200C08DB4FF0004236
:101A100042EAC12252EA505232FA03F070470942B8
:101A20000BD4102BC4BF0020704703F5787CBCF1A9
:101A3000FF3F05D04FF0FF3070474FF00000704778
:101A400070B500F0C3F800BF4992248000207047B1
:101A5000F0E7B0FA80F310FA03F10AD0C3F11D03E6
:101A600003F580634FEA41504FEA035202EBD12164
:101A700070474FF000007047DFF848C170B51CEAAE
:101A8000111E1EBF1CEA13159EEA0C0F95EA0C0FDF
:101A900000F06F8081EA030423EA4C134EEAD47EFF
:101AA00021EA4C1141F4801143F48013AE44A1FBB0
:101AB000024CA0FB0365AEF17F7E361955EB0C0599
:101AC000A1FB034C4CF10003A0FB021C16EB0C061F
:101AD000654153F10003094218BF46F0010613F4B3
:101AE000007F0BD14FEA03314FEA0530340341EA5E
:101AF000155140EA16506FF003020AE04FEAC32185
:101B00004FEAC520F40241EA555140EA56506FF0C1
:101B1000020202EB2E4201EB025585EACE710AD099
:101B20005FEA440C18BF24F0004450F1000041F17A
:101B3000000120EAD47040F2FE7C624500D270BD04
:101B4000A84214BF4FF080444FF04044002E08BF1D
:101B50000024BEF1806FA8BFA1F1C041BDE8704074
:101B600080F282804FF0000001F1C04101F000419D
:101B700070479EEA0C0F0CEA131518BF95EA0C0F7C
:101B800006D04FF0000081EA030E0EF0004170BD58
:101B900000F01CF88900013E00F007B800F009B819
:101BA0004FEA430C5FEA5C5C08D081EA030100F075
:101BB0005BB84FEA410C5FEA5C5CF6D14FF0000085
:101BC000014970470000FF070000F87F0EF1020E88
:101BD0002EF0030E5EF8046B364205D4012A43EB67
:101BE000030515F5001F12D8012841EB010C1CF567
:101BF000001F0CD80ED14FEAD17C15F5001F0CEB5D
:101C00004C0C0CF1020C08BF4CEBD37C04E04FF001
:101C1000080C01E04FEAD37C0CEB4C0526FA05F6E4
:101C200006F00706B6F1040C06D20EEB860CBDE8F2
:101C300070404CF0010C6047DFE80CF0090B020229
:101C40004FF000414FF00000A1F5002170BD194692
:101C50001046012851EB010418BFD4F5001484BFCD
:101C6000002001F0004170BD0808A0F500114FEA06
:101C70003101704790EA010F48BF81F0004100F147
:101C8000A281421A3CBF801A89184FEAD0524FF005
:101C90007F4C1CEA410FA2EBD15318BF9CEA026FA4
:101CA00000F03B804FF0004C4CEA00204CEA012150
:101CB00021FA03FC10EB0C0C1ED202F1FF325FEA9A
:101CC0001C2040EBC25038BF70471CF07F0F4FEA1A
:101CD000400C18BFBCF17F4F38BF7047C3F12003E1
:101CE000994008BF20F00100BCF17F4F38BF70471A
:101CF000A0F1C04000F05BB94FEA3C00000A40EBA5
:101D0000C25028BF1CF0FF0F4FEA400CE6D018BFAE
:101D1000BCF17F4F38BF7047EAE79CEA026F05D0FD
:101D200010EA5C0F08BF00F00040704710B500F0EB
:101D3000F8F800BF64FBBE3E4FF47F0C1CEAD012E3
:101D40001EBF1CEAD11392EA0C0F93EA0C0F00F0AD
:101D5000858090EA010F48BF42F4807240F4000C85
:101D600041F400002CF07F4120F07F4000B581421B
:101D7000A2EB03020FF2081CACEB504EC0F10000C6
:101D80009EF800E04FEA4E0E00FB0EFC38BF490003
:101D90004FEA2C1C02F5FA020CFB0EF34FEACE1EA2
:101DA0004FEA112C4FEAC1210EEB635E42EB224257
:101DB0000EFB0CFC4FEA1C5300FB03114FEA112CE5
:101DC0004FEA01310EFB0CFC4FEADC4C00FB0C111E
:101DD000C14228BF09184CEB03335DF804EB10EB4C
:101DE000410143EBC250B2F57C0F38BF704729D593
:101DF00012F0F00F1CBF00F1C04000F0004070472F
:101E0000008182838485868788898B8C8D8E8F91D3
:101E10009293959697999A9C9D9FA0A2A3A5A7A8F7
:101E2000AAACAEB0B2B3B5B7B9BCBEC0C2C5C7C923
:101E3000CCCED1D4D7D9DCDFE2E6E9ECF0F3F7FA87
:101E4000FE0000004FEA400C0CF1807CBCF17E4F9C
:101E500028BF7047B0F1C04000F0A9B890EA010F68
:101E60000CEAD11348BF42F48072624538BF634523
:101E700007D213F47F0F16D080EA010000F0004073
:101E8000704710B500F04DF8097EFC3E00F005B833
:101E900080EA010000F00040704780EA010000F095
:101EA000004000F084B812F47F0F04BF024870476E
:101EB00080EA010000F07BB80000C07FC10DD1F1C5
:101EC0009E0206DB4FEA002343F0004323FA02F0B0
:101ED0007047004207D54FEA4001B1F1FE4F02D2F0
:101EE0004FF00000704710B500F01BF849922480B5
:101EF000002070476FEA200070470000B0FA80F3BE
:101F000010FA03F2C3F19D030AD0D90501EB1220A8
:101F1000530638BF704700F1010008BF20F00100F0
:101F200070470EF1020E2EF0030E5EF8044B2442B1
:101F300004D44FEA4102B2F17F4F11D84FEA400377
:101F4000B3F17F4F0CD80ED14FEAD07CB2F17F4F66
:101F50000CEB4C0C0CF1020C08BF4CEBD17C04E0F8
:101F60004FF0080C01E04FEAD17C0CEB4C0324FA53
:101F700003F404F00704B4F1040C06D20EEB840C55
:101F8000BDE810404CF0010C6047DFE80CF007089A
:101F900002024FF00040A0F5800010BD084642004C
:101FA00018BFD2F1807288BF00F0004010BDFF2141
:101FB00041EAD050C005704790EA010F48BF81F058
:101FC00000413FF55EAE421A04D882F00042A0EB19
:101FD000020011444FEAD0524FF07F4C1CEA410FEF
:101FE000A2EBD15318BF9CEA026F4AD04FF0004CCD
:101FF0004CEA00204CEA012121FA03FCB0EB0C0C66
:102000000FD412F0FE0F36D05FEA4C001DD500123F
:1020100040EBC25038BF70471CF03F0F18BF7047ED
:102020000BE0A2F101025FEA1C2040EBC25038BF76
:1020300070471CF07F0F18BF7047C3F12003994011
:1020400014BF401E20F00100704780084FEA1223A1
:1020500008BF7047B0FA80FCA2EB0C02CCF1280C50
:1020600060FA0CF093EA122F04BF00EBC2507047E5
:102070004FEAC3707047130A5FEADC1008BF70476D
:10208000F6E79CEA026F04D010EA5C0F08BF00205C
:10209000704710B5FFF745FF40DFF63E81F0004086
:1020A0007047000000000000000000000000000079
:1020B00000003F4000000000000000003000400031
:1020C00030004000000009000BC03D000BC03D0087
:1020D000090018C024407FE0224031800000180031
:1020E00024C01B000D803240018003801C4027402B
:1020F0001C8007400040100060000000000000004D
:1021000000000000000000001F8020404020000070
:10211000402020401F8000000000090006001F80B2
:10212000060009000000040004003F8004000400D1
:10213000000000100060000000000000000004002B
:10214000040004000400040000000000004000003F
:10215000000000000000002001C006003800400020
:1021600000001F802040204020401F800000000011
:1021700010403FC000400000000018C02140224035
:1021800024401840000010802040244024401B8040
:10219000000002000D0011003FC0014000003C8023
:1021A000244024402440238000001F8024402440F9
:1021B0003440038000003000200027C03800200099
:1021C00000001B802440244024401B8000001C0091
:1021D00022C0224022401F80000000000000084072
:1021E000000000000000000000000460000000008B
:1021F0000000000004000A00110020804040090097
:10220000090009000900090000000000404020808A
:1022100011000A00040018002000234024001800C8
:1022200000001F802040274029401F400000004040
:1022300007C039000F0001C0004020403FC02440CB
:1022400024401B8000001F80204020402040308020
:10225000000020403FC0204020401F800000204060
:102260003FC024402E4030C0000020403FC02440EA
:102270002E00300000000F001080204022403380EC
:10228000020020403FC0040004003FC02040204026
:1022900020403FC02040204000000060202020203F
:1022A0003FC02000200020403FC024400B0030C031
:1022B000204020403FC020400040004000C03FC0C0
:1022C0003C0003C03C003FC0000020403FC00C4029
:1022D00023003FC020001F802040204020401F805E
:1022E000000020403FC024402400180000001F8050
:1022F0002140214020E01FA0000020403FC024409A
:10230000260019C0004018C02440244022403180DB
:102310000000300020403FC020403000000020007E
:102320003F80004000403F80200020003E0001C070
:10233000070038002000380007C03C0007C0380004
:102340000000204039C0060039C0204000002000B5
:10235000384007C0384020000000304021C02640EF
:10236000384020C00000000000007FE040204020F6
:102370000000000070000C0003800040000000001E
:10238000402040207FE000000000000020004000CE
:1023900020000000000000100010001000100010CD
:1023A00000100000000040000000000000000000DD
:1023B00002800540054003C0004020003FC00440AB
:1023C00004400380000000000380044004400640F5
:1023D000000000000380044024403FC00040000093
:1023E00003800540054003400000000004401FC07A
:1023F000244024402000000002E005500550065013
:10240000042020403FC00440040003C000400000FE
:10241000044027C00040000000000010001004101D
:1024200027E00000000020403FC00140070004C03A
:102430000440204020403FC000400040000007C052
:10244000040007C0040003C00000044007C00440AB
:10245000040003C0004000000380044004400380E7
:102460000000041007F00450044003800000000046
:1024700003800440045007F00010044007C00240ED
:10248000040004000000000006400540054004C0B0
:102490000000000004001F80044000400000040011
:1024A00007800040044007C000400400070004C04B
:1024B000018006000400060001C0070001C00600FC
:1024C0000000044006C0010006C0044000000410E3
:1024D000071004E00180060004000000044005C06D
:1024E0000640044000000000000004007BE04020A3
:1024F0000000000000000000FFF0000000000000ED
:1025000040207BE00400000000004000800040000C
:10251000200020004000000000000000000000003B
:102520000000000000000000000000001FCC000CB4
:1025300000000000000000000800300060000800FB
:10254000300060000000022003FC1E20022003FC7B
:102550001E200220000000000E1811043FFF10840E
:102560000C78000000000F0010840F3800C00778BE
:1025700018840078000000780F8410C411240E988D
:1025800000E40084000808006800700000000000FB
:1025900000000000000000000000000007E0181824
:1025A000200440020000000040022004181807E048
:1025B0000000000000000240024001800FF0018096
:1025C0000240024000000080008000800FF8008080
:1025D0000080008000000001000D000E00000000DF
:1025E00000000000000000000080008000800080EB
:1025F0000080008000800000000C000C0000000043
:1026000000000000000000000006001800600180CB
:10261000060018002000000007F00808100410044D
:10262000080807F000000000080408041FFC00046C
:1026300000040000000000000E0C101410241044D0
:1026400011840E0C000000000C1810041104110479
:1026500012880C700000000000E00320042408240D
:102660001FFC0024000000001F98108411041104B6
:10267000108810700000000007F008881104110491
:1026800018880070000000001C00100010FC1300EF
:102690001C001000000000000E381144108410844B
:1026A00011440E38000000000700088C104410444C
:1026B000088807F00000000000000000030C030C75
:1026C0000000000000000000000000010106000002
:1026D0000000000000000000008001400220041003
:1026E000080810040000022002200220022002201C
:1026F000022002200000000010040808041002203C
:1027000001400080000000000E001200100C106C50
:1027100010800F00000003E00C1813E4142417C409
:10272000082807D000000004003C03C41C400740F8
:1027300000E4001C000410041FFC11041104110427
:102740000E880070000003E00C1810041004100440
:1027500010081C10000010041FFC100410041004CA
:10276000080807F0000010041FFC1104110417C42E
:1027700010040818000010041FFC1104110017C0F9
:1027800010000800000003E00C18100410041044AE
:102790001C780040000010041FFC108400800080A2
:1027A00010841FFC10040000100410041FFC10040F
:1027B00010040000000000030001100110011FFEC2
:1027C00010001000000010041FFC110403801464AA
:1027D000181C1004000010041FFC10040004000466
:1027E0000004000C000010041FFC1F0000FC1F0070
:1027F0001FFC1004000010041FFC0C04030000E088
:1028000010181FFC100007F0080810041004100432
:10281000080807F0000010041FFC108410801080CE
:1028200010800F00000007F0081810241024101C5E
:10283000080A07F2000010041FFC1104110011C067
:1028400011300E0C000400000E1C110410841084C2
:1028500010441C3800001800100010041FFC100465
:1028600010001800000010001FF8100400040004FD
:1028700010041FF8100010001E0011E0001C007072
:1028800013801C0010001FC0103C00E01F0000E07F
:10289000103C1FC000001004180C163401C001C009
:1028A0001634180C100410001C00130400FC130450
:1028B0001C00100000000804101C10641084130495
:1028C0001C04101800000000000000007FFE400201
:1028D000400240020000000030000C000380006055
:1028E000001C0003000000004002400240027FFE86
:1028F0000000000000000000000020004000400038
:102900004000200000000001000100010001000162
:102910000001000100010000400040002000000014
:102920000000000000000000009801240144014460
:10293000014400FC000410001FFC00880104010495
:10294000008800700000000000700088010401048D
:1029500001040088000000000070008801040104E8
:1029600011081FFC0004000000F801440144014468
:10297000014400C800000000010401040FFC110420
:10298000110411001800000000D6012901290129B5
:1029900001C90106000010041FFC008401000100B1
:1029A000010400FC000400000104190419FC0004E7
:1029B00000040000000000000003000101011901F3
:1029C00019FE0000000010041FFC0024004001B4A8
:1029D000010C010400000000100410041FFC00049E
:1029E000000400000000010401FC0104010001FCDE
:1029F0000104010000FC010401FC0084010001004D
:102A0000010400FC0004000000F8010401040104BA
:102A1000010400F80000010101FF00850104010428
:102A200000880070000000000070008801040104AC
:102A3000010501FF00010104010401FC00840104FF
:102A4000010001800000000000CC012401240124C9
:102A500001240198000000000100010007F80104B2
:102A6000010400000000010001F80004000400045B
:102A7000010801FC0004010001800170000C00103D
:102A800001600180010001F0010C003001C0003044
:102A9000010C01F0010000000104018C00740170C0
:102AA000018C01040000010101810171000E001878
:102AB00001600180010000000184010C0134014427
:102AC0000184010C00000000000000000000010073
:102AD0003EFC400240020000000000000000FFFF3A
:102AE0000000000000000000400240023EFC010027
:102AF0000000000000000000600080008000400036
:102B00004000200020000000000000000000000045
:102B100000000000000000000000000000000000B5
:102B200000000000000000000000000000000000A5
:102B30000000000000000000000F80380FFE380F7A
:102B400080380000000000000000000000000000CD
:102B5000000000000100000600000C00003800002A
:102B60003100000600000C000038000030000000BA
:102B700000000000000061800067F807F980006134
:102B8000800061800061800061800067F807F98043
:102B900000618000000000000000000001C0E003B0
:102BA000E0F00630080418081FFFFE040E0807872F
:102BB000F00381E000000000000001F000060C00BE
:102BC000040408060C7001F9C0000E00003BE00090
:102BD000EC18070808040C180003E00000000001CE
:102BE000E00007F003F818041C0804170807E1D0F8
:102BF00003C0E00023B0003C0800200800001000E3
:102C000000000000000100003100003200001C0044
:102C100000000000000000000000000000000000B4
:102C200000000000000000000000000000000000A4
:102C30000000000000007F0001FFC00780F00C00D2
:102C40001810000420000200000000000020000214
:102C50001000040C00180780F001FFC0007F000086
:102C60000000000000000000000000000000000064
:102C700000004200006600006600003C00001800F2
:102C800003FFC0001800003C000066000066000062
:102C900042000000000008000008000008000008D2
:102CA0000000080001FFC000080000080000080044
:102CB00000080000080000000000000100003100D2
:102CC000003200001C0000000000000000000000B6
:102CD00000000000000000000000000000000800EC
:102CE00000080000080000080000080000080000BC
:102CF00008000008000008000008000000000000B4
:102D0000000000000000380000380000380000001B
:102D100000000000000000000000000000000000B3
:102D2000000000000000000600001C000070000110
:102D300080000E0000380000C0000700001C0000EA
:102D4000300000000000000000007F8001FFE00371
:102D500080700600180400080400080600180380AC
:102D60007001FFE0007F8000000000000000000014
:102D700001000801000801000803FFF807FFF80040
:102D8000000800000800000800000000000000002B
:102D90000001C03802C05804009804011804021849
:102DA000040418061C1803F81801E0F800000000DD
:102DB000000000000001C0E003C0F00400080408A7
:102DC0000804080806180803F41801E7F00001E0F9
:102DD000000000000000000000000300000D0000E3
:102DE000110000610000810803010807FFF80FFFD0
:102DF000F80001080001080000000000000000E0E9
:102E000007FCD00608080610080610080610080679
:102E10001838060FF00607C0000000000000000090
:102E200000003F8001FFE00384300208180410080E
:102E3000041008041008071810030FF00007C00062
:102E4000000000000000000003C0000700000600B2
:102E5000000600F80607F806180006E00007000064
:102E600006000000000000000001E1E003F7F006AA
:102E70003410041808041808040C08040C0806167A
:102E80001803F3F001C1E000000000000000F800AA
:102E900003FC300306380402080402080402080494
:102EA00004100308F001FFC0007F000000000000D4
:102EB000000000000000000000000000000070386A
:102EC00000703800703800000000000000000000B2
:102ED00000000000000000000000000000000000F2
:102EE0000000301A00301C0000000000000000004C
:102EF00000000000000000000000000000080000CA
:102F00001400002200004100008080010040020007
:102F1000200400100800080000000000000021004C
:102F200000210000210000210000210000210000FC
:102F3000210000210000210000210000000000000D
:102F400000000000080008040010020020010040FA
:102F500000808000410000220000140000080000F2
:102F6000000000000003C00004C0000400000800CE
:102F700038080F380808380810000C300007E00047
:102F800003C000000000000000003F8000FFE003DD
:102F90008070020F1006708804C088048308047FC4
:102FA0008802C09003012000FE40000008000018C5
:102FB0000001F8003E0801C20007020007E200001D
:102FC000FE00001FC80001F80000380000080400DF
:102FD0000807FFF807FFF8040808040808040808B1
:102FE00004080806180803F41801E7F00001E000DF
:102FF0000000000000003F8001FFE003807002003D
:10300000180400080400080400080400100600204A
:103010000780C000000004000807FFF807FFF8045D
:1030200000080400080400080400180200100380CF
:103030007001FFE0007F8000000004000807FFF837
:1030400007FFF8040808040808040808040808042E
:103050003E0804000806001801006000000004009B
:103060000807FFF807FFF804080804080004080030
:10307000040800043E000600000600000180000075
:103080000000000000003F8001FFE00380700600A8
:10309000180400080402080402080203F00783F081
:1030A00000020000020004000807FFF807FFF80410
:1030B00008080008000008000008000008000408D4
:1030C0000807FFF807FFF8040008000000000000F0
:1030D00004000804000804000807FFF807FFF804CC
:1030E00000080400080400080000000000000000C0
:1030F00000000006000007000001040001040001B8
:1031000004000307FFFE07FFFC04000004000004A6
:10311000000004000807FFF807FFF8040C08001877
:1031200000003E0004C7800503C80600F80400380C
:1031300004001800000804000807FFF807FFF8045F
:103140000008000008000008000008000008000057
:103150000800001800006000000004000807FFF8E5
:1031600007800807FC00007FC00003F80007C000CC
:10317000780007800807FFF807FFF804000804003C
:103180000807FFF807000803C00000E0000038004F
:10319000001E000007000001C00400F007FFF80453
:1031A0000000000000007F8001FFE0038070060047
:1031B0001804000804000806001803003001FFE0AE
:1031C000007F8000000004000807FFF807FFF804F4
:1031D0000408040400040400040400040400060CB1
:1031E0000003F80001F000000000000000007F80F4
:1031F00001FFE00380700600880400880400C80610
:10320000003C03003E01FFE6007F84000000040054
:103210000807FFF807FFF8040808040800040C007A
:10322000040F00040BC00610F003F03801E00800A2
:10323000000800000001E0F803F030063010041828
:1032400008041808040C08040C080206180207F009
:103250000781E00000000180000600000400000477
:10326000000004000807FFF807FFF8040008040046
:103270000004000006000001800004000007FFE0D9
:1032800007FFF00400180000080000080000080014
:10329000000800000804001007FFE004000004001C
:1032A0000006000007E00007FE00041FE00001F830
:1032B0000000380001E0043E0007C00006000004E2
:1032C000000004000007E00007FFC0041FF800072B
:1032D000C007F80007FF80043FF80007C004F800AB
:1032E00007000004000000000004000806001807A2
:1032F000C07805F1C8003E00001F800463E8078025
:10330000F806001804000800000004000006000091
:1033100007800007E008047C08001FF80007F80099
:10332000180804E008070000060000040000000080
:10333000000100080600380400F80403E8040F0840
:10334000047C0805F00807C00807001804006000A6
:10335000000000000000000000000000000000006D
:10336000003FFFFE20000220000220000220000299
:10337000200002000000000000000000080000071C
:10338000000000C0000038000006000001C000007E
:103390003000000E000001000000000000000000EE
:1033A0002000022000022000022000022000023F34
:1033B000FFFE000000000000000000000000000010
:1033C00000000000000000080000100000300000B5
:1033D0002000003000001000000800000000000085
:1033E00000000000010000010000010000010000D9
:1033F00001000001000001000001000001000001C7
:10340000000001000001000000000000000000209A
:10341000000020000010000010000000000000006C
:10342000000000000000000000000000000000F0AC
:103430000019F8001B1800220800260800240800C4
:103440002410003FF8001FF80000080000180000DA
:103450000004000007FFF80FFFF000181800100824
:10346000002008002008003018001FF0000FC000E6
:1034700000000000000007C0001FF000183000200E
:1034800008002008002008003C08001C1000006014
:103490000000000000000000000007C0001FF00056
:1034A000381800200800200800200804101007FF2A
:1034B000F80FFFF000001000000000000000000006
:1034C0000007C0001FF00012300022180022080080
:1034D0002208003208001E10000E2000000000002C
:1034E0000000200000200800200801FFF803FFF87A
:1034F000062008042008042008072000030000001C
:10350000000000000000000E000E6E001FF30031EE
:10351000B10020B10020B1003191001F13002E1E18
:1035200000200E00300000000004000807FFF80F24
:10353000FFF8001008002000002000002008003FD5
:10354000F8001FF800000800000000000000000064
:10355000002008002008002008063FF8063FF80079
:103560000008000008000008000000000000000043
:103570000000000000000300000300200100200103
:10358000002003063FFE063FFC0000000000000094
:10359000000000000004000807FFF80FFFF800011A
:1035A00088000300002FC00038F8002038002008F1
:1035B00000000800000000000000000004000804F3
:1035C000000804000807FFF80FFFF80000080000DB
:1035D00008000008000000000000002008003FF87C
:1035E000003FF8001008002000003FF8003FF800FE
:1035F0001008002000003FF8003FF800000800001D
:1036000000002008003FF8003FF8001008001000FC
:10361000002000002008003FF8001FF8000008000C
:1036200000000000000007C0000FF000183000305C
:1036300008002008002008003008001830000FF0B3
:103640000007C0000000000000002001003FFF0054
:103650003FFF001011002009002008002008003062
:1036600038001FF0000FC00000000000000007C07D
:10367000001FF00038180020080020080020090072
:103680001011001FFF003FFF00000100000000209C
:1036900008002008002008003FF8003FF800080854
:1036A000001008002008002000003000003000005A
:1036B0000000000000000000000C78001E1800331D
:1036C000080023080021080021880021980030F01C
:1036D0000038600000000000000020000020000012
:1036E000200000FFF003FFF8002008002008002061
:1036F0000800003000000000000000000000200072
:10370000003FF0007FF800001800000800000800EB
:103710002010003FF8007FF00000100000000000C3
:1037200000002000003000003C00003F800023F03B
:10373000000078000070002380003C000030000092
:103740002000002000003C00003FE00023F80000C3
:10375000E0002700003E00003FE00021F80001E00B
:10376000003E0000200000000000200800200800AB
:103770003838003E680027800003C8002CF8003865
:103780003800201800200800000000000000200081
:10379000003003003C01003F830023EC0000700078
:1037A0002380003C000020000020000000000000FA
:1037B000000000000038080020380020F80023E84E
:1037C000002F88003E080038080020180000700014
:1037D00000000000000000000000000000000000E9
:1037E000000008000014001FF7FC30000620000253
:1037F00000000000000000000000000000000000C9
:103800000000000000000000FFFFFF0000000000BB
:1038100000000000000000000000000000000000A8
:103820002000023000061FF7FC0014000008000012
:103830000000000000000000000000000000000088
:103840000018000060000040000040000020000060
:103850001000000800000400000400000C0000102C
:103860000000000084380008000000203C00000038
:103870006C010008C03800083C0000202C0B000040
:103880008801000800A24A040000000000000000B7
:103890000102030406070809000000000000000000
:1038A00000000000000001020304010203040607F7
:1038B00008090204060800000000000000000000E3
:04000005080001DD11
:00000001FF
