:030000000208D320
:0C08D300787FE4F6D8FD75813A02091A1E
:10098C0014270003009F0025000D00990049004129
:10099C00001F000100090223000602250009C18086
:0E09C100E4FFFE0FBF00010EBE03F8BFE8F515
:0109CF002205
:0509D000D2A0C2A1222B
:0509D500C2A0D2A12226
:1009AD00758901758C3C758AB0D2A9D2AFD28CC233
:0409BD00A2C2A6220A
:10095F001209ADE52425E02427F808E6F5801209F1
:10096F00D01209C1E4F580E52625E02427F808E632
:0D097F00F5801209D51209C1E4F58080D67B
:03000B00020800E8
:04080000C0E0C0D0C4
:10080400758C3C758AB00522E522700205216414BA
:10081400452160030208CEF521F522E52415247054
:10082400021523E52615267002152530004FC2A6B1
:10083400D2A3C3E5269403E52564809480501BC3AA
:10084400E52364809480500CE526452560067523D5
:1008540000752402D2A2B2A48002C2A2C3E5256418
:1008640080948050657523007524097525007526CC
:1008740006C200C2A3D2A2D2A6C2A5804DC2A3D2F0
:10088400A6C3E5249403E52364809480501BC3E548
:100894002564809480500CE524452360067525006A
:1008A400752602D2A5B2A78002C2A5C3E52364803F
:1008B4009480501675230075240675250075260945
:0A08C400D200C2A6D2A5D2A3C2A2A0
:0508CE00D0D0D0E032A3
:1008DF0002095FE493A3F8E493A34003F68001F2C7
:1008EF0008DFF48029E493A3F85407240CC8C3331A
:1008FF00C4540F4420C8834004F456800146F6DFE9
:10090F00E4800B010204081020408090098CE47EE3
:10091F00019360BCA3FF543F30E509541FFEE493DD
:10092F00A360010ECF54C025E060A840B8E493A3A4
:10093F00FAE493A3F8E493A3C8C582C8CAC583CACF
:10094F00F0A3C8C582C8CAC583CADFE9DEE780BE87
:0109AC00004A
:00000001FF
