:020000040800F2
:1000000090060020CD0100085105000849050008B0
:100010004D05000825040008F7070008000000004F
:10002000000000000000000000000000750500084E
:1000300029040008000000005305000861060008BC
:10004000E7010008E7010008E7010008E7010008F0
:10005000E7010008E7010008E7010008E7010008E0
:10006000E7010008E7010008E7010008E7010008D0
:10007000E7010008E7010008E7010008E7010008C0
:10008000E7010008E7010008E7010008E7010008B0
:10009000E7010008E7010008E7010008E7010008A0
:1000A000E7010008E7010008E7010008E701000890
:1000B000E7010008E7010008E7010008E701000880
:1000C000E7010008E7010008E7010008E701000870
:1000D000E7010008C5060008010700082D07000811
:1000E000E7010008E7010008E7010008E701000850
:1000F000E7010008E7010008E7010008E701000840
:10010000E7010008E7010008E7010008E70100082F
:10011000E7010008E7010008E7010008E70100081F
:10012000E7010008E7010008E7010008E70100080F
:1001300000F002F800F03AF80AA090E8000C8244BF
:100140008344AAF10107DA4501D100F02FF8AFF29C
:10015000090EBAE80F0013F0010F18BFFB1A43F0A5
:10016000010318472C0700004C070000103A24BF79
:1001700078C878C1FAD8520724BF30C830C144BF0C
:1001800004680C607047000000230024002500264E
:10019000103A28BF78C1FBD8520728BF30C148BFEA
:1001A0000B6070471FB51FBD10B510BD00F031F8D2
:1001B0001146FFF7F7FF00F065FB00F04FF803B4BE
:1001C000FFF7F2FF03BC00F057F800000948804732
:1001D00009480047FEE7FEE7FEE7FEE7FEE7FEE729
:1001E000FEE7FEE7FEE7FEE704480549054A064B41
:1001F00070470000650600083101000890000020EB
:100200009006002090020020900200207047704766
:100210007047754600F02CF8AE4605006946534617
:1002200020F00700854618B020B5FFF7DDFFBDE8D8
:1002300020404FF000064FF000074FF000084FF04D
:10024000000B21F00701AC46ACE8C009ACE8C009DE
:10025000ACE8C009ACE8C0098D46704710B504464B
:10026000AFF300802046BDE81040FFF7A8BF0000B4
:10027000004870472C00002001491820ABBEFEE763
:10028000260002007047000008B50121042000F09C
:1002900061F910208DF8030003208DF80200402042
:1002A000ADF800006946054800F0BFF804A1094810
:1002B00000F0B2FA00F010F808BD0000000801409C
:1002C0004254206770696F20696E6974206F6B2ECD
:1002D0000D0A00000038014010B54021334800F0FD
:1002E00031F94FF4FA7000F0A7FA31A1334800F069
:1002F00093FA00BF324800780028FBD00020304934
:10030000087030A12D4800F087FA00BF2C48007813
:100310000028FBD000202A4908702FA1274800F0B0
:100320007BFA00BF264800780028FBD00020244933
:1003300008702CA1214800F06FFA2D491F4800F0E9
:100340006BFA2CA11D4800F067FA00BF1C4800782A
:100350000028FBD000201A49087027A1174800F098
:100360005BFA2849154800F057FA22A1134800F01B
:1003700053FA00BF124800780028FBD00020104933
:1003800008704021094800F0DBF81FA10B4800F07D
:1003900043FA00BF0A4800780028FBD00020084933
:1003A00008701CA11E4800F037FA10BD000801407B
:1003B00041542B494E49540D0A00000000440040AE
:1003C0002600002041542B554152543D33383430DF
:1003D000302C302C300D0A0041542B524D414144F9
:1003E0000D0A000041542B505357443D2200000099
:1003F00004000020220D0A0041542B4E414D453D82
:10040000220000001500002041542B524553455452
:100410000D0A0000425420494E495445440D0A003B
:100420000038014000BFFEE770472DE9F041024669
:1004300000250026002000230024002791F803C097
:100440000CF00F0591F803C00CF0100CBCF1000F7C
:1004500003D091F802C04CEA050591F800C0BCF148
:10046000000F31D0146800202BE04FF0010C0CFA83
:1004700000F3B1F800C00CEA03069E4220D18300CD
:100480004FF00F0C0CFA03F7BC4305FA03FC4CEADF
:10049000040491F803C0BCF1280F06D14FF0010C01
:1004A0000CFA00FCC2F814C00AE091F803C0BCF1D9
:1004B000480F05D14FF0010C0CFA00FCC2F810C037
:1004C000401C0828D1D31460B1F800C0BCF1FF0F64
:1004D00034DD546800202EE000F1080C4FF00108D4
:1004E00008FA0CF3B1F800C00CEA03069E4221D1D1
:1004F00083004FF00F0C0CFA03F7BC4305FA03FC22
:100500004CEA040491F803C0BCF1280F05D100F1B6
:10051000080C08FA0CF8C2F8148091F803C0BCF17A
:10052000480F07D100F1080C4FF0010808FA0CF849
:10053000C2F81080401C0828CED35460BDE8F0817A
:10054000416170470161704700BFFEE700BFFEE7F1
:100550007047704729B1064A92690243044B9A6179
:1005600004E0034A92698243014B9A61704700009C
:1005700000100240704710B500F002F810BD0000F6
:100580000CB50020019000903348006840F48030A2
:100590003149086000BF3048006800F40030009026
:1005A0000198401C0190009818B90198B0F5A06F0F
:1005B000F1D12948006800F4003010B1012000900A
:1005C00001E0002000900098012843D123480068F2
:1005D00040F01000214908600846006820F0030040
:1005E00008600846006840F0020008601A48406849
:1005F000194948600846406848600846406840F429
:10060000806048600846406820F47C1048600846D6
:10061000406840F4E81048600846006840F0807088
:10062000086000BF0C48006800F000700028F9D096
:100630000948406820F003000749486008464068C0
:1006400040F00200486000BF0348406800F00C0022
:100650000828F9D10CBD0000001002400020024023
:100660007047000010B51348006840F001001149C0
:10067000086008464068104908400E49486008462E
:1006800000680E4908400B4908600846006820F4DD
:10069000802008600846406820F4FE0048604FF45F
:1006A0001F008860FFF767FF4FF000600449086093
:1006B00010BD0000001002400000FFF8FFFFF6FE32
:1006C00008ED00E010B540F225510A4800F060F84E
:1006D00070B140F22551074800F03EF8054800F09F
:1006E00081F80549087008460178044800F085F84B
:1006F00010BD0000003801402700002000480040E5
:1007000010B540F22551074800F042F848B140F2D8
:100710002551044800F020F8024800F063F802492F
:10072000087010BD004400402800002010B540F2C1
:100730002551074800F02CF848B140F225510448F3
:1007400000F00AF8024800F04DF80249087010BDA8
:10075000004800402900002010B50022002340F688
:100760006A14A14200D100BF0A1201249440A3B22E
:10077000DC43048010BD02460020B1F5007F00D1AB
:1007800000BF13880B400BB1012000E00020704730
:1007900070B50246002400230025002040F66A16AA
:1007A000B14200D100BFC1F3421501F01F03012681
:1007B00006FA03F3012D02D19689334006E0022D9B
:1007C00002D1168A334001E0968A33400C1201268A
:1007D00006FA04F41688344013B10CB1012000E08D
:1007E000002070BD01468888C0F308007047C1F33F
:1007F00008028280704700BFFEE770B504460D46D0
:1008000029462046FFF7F3FF00BF80212046FFF76F
:10081000B2FF0028F9D070BD70B506460C46002521
:1008200005E0615D3046FFF7E8FF681CC5B2605D1A
:100830000028F6D170BD00000146114A12884A43D3
:100840004FF0E0235A6100229A611A46126942F081
:1008500001021A6100BF4FF0E022106900F00102AE
:100860001AB100F48032002AF5D04FF0E02212696C
:1008700022F001024FF0E0231A6100229A617047D2
:100880000200002010B5FFF7FFFC002010BD0000A3
:10089000B0080008000000202C0000006C010008D7
:1008A000DC0800082C000020640600008801000815
:1008B0000000000031323334353600000000000003
:1008C0000000000000575358000000000000000026
:0C08D0000000000000000000000000001C
:04000005080001CD21
:00000001FF
