:020000040800F2
:10000000280F002035020008D11C0008791C0008C8
:10001000CD1C000821180008672600080000000019
:10002000000000000000000000000000A51F000804
:100030000D1A000800000000451D0008B12100084D
:100040004F0200084F0200084F0200084F0200084C
:100050004F0200084F0200084F0200084F0200083C
:100060004F0200084F0200084F0200084F0200082C
:100070004F0200084F0200084F0200084F0200081C
:100080004F0200084F0200084F0200084F0200080C
:100090004F0200084F0200084F0200084F020008FC
:1000A0004F0200084F0200084F0200084F020008EC
:1000B0004F0200084F0200084F0200084F020008DC
:1000C0004F0200084F0200084F0200084F020008CC
:1000D0004F020008152200089D2200084F02000868
:1000E0004F0200084F0200084F02000800F002F81B
:1000F00000F090F80AA090E8000C82448344AAF132
:100100000107DA4501D100F085F8AFF2090EBAE82F
:100110000F0013F0010F18BFFB1A43F0010318473B
:10012000D4290000F4290000103A24BF78C878C10F
:10013000FAD8520724BF30C830C144BF04680C60ED
:10014000704700000023002400250026103A28BF35
:1001500078C1FBD8520728BF30C148BF0B60704739
:100160006E2900F00982702900F05583662902F09B
:100170005384652902F05084672902F04D84612977
:10018000AFF3008003681B0A28BF41F08001692992
:1001900000F0B681642900F0B381752900F0B081C8
:1001A0006F2900F0E282782900F02183E92900F02C
:1001B0007D82E42900F07A82F52900F07782EF2928
:1001C00000F0DF82F82900F020830368DB0928BFF4
:1001D00041F08001632900F0ED81732900F0F28184
:1001E000E32900F0F385F32900F0F885002070473B
:1001F0001FB500F049FE04000020002102F0F6FBCC
:10020000401C60600020002102F0DAFBE0601FBDAE
:1002100010B510BD00F00AFE1146FFF7E9FF02F02D
:1002200069FB00F0E7FE03B4FFF7F2FF03BC02F046
:1002300008FB00000948804709480047FEE7FEE741
:10024000FEE7FEE7FEE7FEE7FEE7FEE7FEE7FEE786
:1002500004480549054A064B70470000B5210008CF
:10026000ED00000828090020280F0020280B00209E
:10027000280B0020704700000FB4044910B503AAF2
:10028000029800F0A3F910BC5DF814FB18000020E0
:100290000FB4044910B503AA029800F097F910BCF6
:1002A0005DF814FB1800002070B50C460546012AC5
:1002B00005D02878800600D5EA69002302E00123F2
:1002C00005E05B1C934202D2E05C0028F9D1A869EA
:1002D000E618C01AA861286A18442862284600F067
:1002E000D5F804E0D5E9012114F8010B9047B44298
:1002F000F8D3284600F0E0F870BD00002DE9F05F6B
:10030000894604464FF0000ADFF874B1FB44C0F898
:1003100020A02046E1688847002874D0252806D010
:10032000D4E901219047206A401C2062F1E70026B1
:100330005F462046E16888472028054607DB312DC7
:1003400005D2781910F8200C08B10643F1E7B00780
:1003500001D526F00406C4F81CA00027C4F818A094
:100360002A2D09D0284602F065FA38B304EB870835
:10037000303DC8F8185019E059F8041B204604EB2A
:1003800087029161E1688847012F054618D1E0692D
:10039000002820DA26F020061DE0D8F8180000EB2F
:1003A000800005EB40003038C8F818002046E168AE
:1003B0008847054602F03EFA0028EED1012F0AD008
:1003C0002E2D08D12046E16888477F1C0546022F64
:1003D00046F02006C4DBA069002803DA404246F05C
:1003E0000106A061F00701D026F010066C2D0BD09D
:1003F000682D09D04C2D39D06A2D35D0742D35D0CB
:100400007A2D33D016E038E0E1682F462046884741
:10041000B842054609D16C2F26D04FF48060E168C0
:10042000064320468847054604E06C2F1AD04FF457
:10043000807006430DB3A5F14100192802D820357C
:1004400046F400664A462946204626604E46FFF797
:1004500087FE80B101280BD0F61D26F0070000F1C1
:10046000080956E74020E4E78020D8E70020D6E7D7
:1004700006F104094DE7284652E7206ABDE8F09FDF
:100480000C270000704770477047704770B50446EE
:1004900085690068C10601D5302600E02026C00726
:1004A00007D070BDD4E9012130469047206A401C36
:1004B00020626D1EF6D570BD70B504468569007862
:1004C000C00707D170BDD4E9012120209047206AE0
:1004D000401C20626D1EF6D570BD09684A0501D525
:1004E00040B27047C905FCD500B2704709684A059B
:1004F00001D5C0B27047C905FCD580B27047000075
:100500002DE9F0410646002410687529314616A5EC
:1005100010D0FFF7E2FF002802DA404213A507E0FF
:1005200031688A0701D512A502E0490704D511A553
:10053000012401E0FFF7DAFF00210A2206F1240777
:1005400009E0B0FBF2FCB0FBF2F302FB1C00303020
:1005500078541846491C0028F3D123462A463046D1
:10056000BDE8F04100F0A7B9000000002D00000038
:100570002B0000002000000011680268006A53058B
:1005800001D508700AE0D30501D5088006E01306FE
:1005900003D5C217C1E9000200E0086001207047DE
:1005A00010B5436913B1AFF3008001E0FFF77CFEA3
:1005B000012010BD127800F124010A7000224A7057
:1005C0000122EDE711684FF0FF32E9E7074B70B504
:1005D0000D467B4400F0DDFB0446284600F002FC9B
:1005E00010B14FF0FF3070BD204670BD03230000F6
:1005F0002DE9FF5F15468A460446DFF8AC80F844D3
:100600000027D8E900103E46CDE9001010E03AF886
:1006100016106A4602A800F0E9FB411C07D02178B9
:10062000890603D5E269391891420DD80744761C32
:100630002078800602D5E069B84205DDAE42E6DBEF
:100640003AF816000028E2D1A069C01BA06120463C
:10065000FFF71CFFD8E90010CDE90010002017E0DB
:100660003AF818106A4602A800F0C0FBB0F1FF3F4C
:1006700081460BD000250DF1080B05E0D4E90121DE
:100680001BF8050090476D1C4D45F7D308F101009C
:10069000B0428046E4DB206A384420622046FFF7FF
:1006A0000BFFBDE8FF9F00002E2400002DE9F04164
:1006B0008046D21D22F007020025D2E90002F5296A
:1006C00015A614D0011E72F1000106DA0023D0EB4A
:1006D000030063EB020211A608E0D8F800108B07B4
:1006E00001D50FA602E0490701D50EA60125114646
:1006F000002408F1240704E000F098F830323A555D
:10070000641C50EA0102F7D12B463246214640468E
:10071000BDE8F04100F0CFB8000000002D0000005F
:100720002B0000002000000030B4002100F1240460
:1007300008E002F00705D208303542EA4372DB08D0
:100740006554491C52EA0305F3D10468002310A242
:10075000250707D5A40600D421B1C46901230DA241
:10076000641EC46130BC00F0A6B810B50446214632
:100770001068FFF7BBFE02462046BDE8104000238C
:10078000D2E7D21D22F00701D1E90023CCE7000017
:100790000000000030000000F0B40D46018809059B
:1007A00002D5214C7C4402E01F4C7C440E340021D5
:1007B00000F1240608E002F00F071209E75D42EAA3
:1007C00003721B097754491C52EA0307F3D10278DC
:1007D0000023120704D5702D06D009B1022311346D
:1007E0002246F0BC00F067B801231034F8E770B57A
:1007F00004460D4621461068FFF778FE024629465A
:100800002046BDE870400023C6E7D21D22F0070352
:10081000D3E90023C0E70368126843F020030360B4
:100820000823C3610023B7E79022000030B5B0F180
:100830000A024FEA900E71F100034EEA817EB0EB9E
:100840000E0061EB91014FEA101E4EEA017E10EBA3
:100850000E0041EB11114FEA102E4EEA016E10EB23
:100860000E0041EB11214FEA104E4EEA014E10EB03
:100870000E0041EB1141401841F100014FEAD00058
:1008800040EA41704FEAD10110EB80054FEA810444
:1008900044EA907444EB01046D1944EB0404521BC8
:1008A000A3414FF0000348BF0A3200D530BD401CC1
:1008B00041F1000130BD2DE9F0470D4699469246C1
:1008C000044600F124080168880604D5E06921F097
:1008D0001001216000E00120A84201DD471B00E07B
:1008E0000027A1697A1902EB0900081AA061207893
:1008F000C00602D42046FFF7C9FD002608E0D4E96F
:1009000001211AF806009047206A401C761C2062DC
:100910004E45F4DB2078C0060AD52046FFF7B6FD29
:1009200006E0D4E9012130209047206A401C206273
:10093000381EA7F10107F4DC07E0D4E9012118F81B
:1009400005009047206A401C2062281EA5F1010581
:10095000F3DC2046FFF7B0FD2078000602D5022028
:10096000BDE8F0870120FBE770472DE9FF4F0C46FB
:100970001E464FF0FF378BB0D2E90001DDF86080F2
:100980000A908A46C1F30A5505B93D46002108463A
:100990004FF00000BAF1000F00F4400005DA00EB60
:1009A00080004FF4400101EA50004FEA9059B9F13C
:1009B000010F00DDB9460A9850EA4A000ED044F60D
:1009C0001050A5F2FF3545432F14B8F1000F1ED08B
:1009D0007542291E1EDDC9F100021CE0B8F1010FAD
:1009E0004FF0000001D0302103E0F24305E0215434
:1009F000401CB042FBDB30460022002121540B9901
:100A0000C1F80880C1E900200FB0BDE8F08FBD1B20
:100A10006D1CDEE74A4600DA694206A800F078FA63
:100A200006AB93E8070003AB83E8070050460A993A
:100A300000F02EFB8DE80700A0F500501F38009055
:100A40000398002D0ADD42F21F014A4608440023A4
:100A500003A90390684600F097FD09E0A0F5005057
:100A60004A461F38002303A90390684600F0A1FD01
:100A70008DE807000004000C03D04FF0FF30410860
:100A800000E01046B8F1000F03D000220092154696
:100A90001EE0751E05D4FFF7C9FE303262556D1E8B
:100AA000F9D5B3460122084302D000227F1C04E09E
:100AB0002078302801D100227F1E002A099784D097
:100AC0001DE0112D07DAFFF7B1FE303262556D1CC3
:100AD00050EA0102F5D1084302D00098C8B10EE0F7
:100AE0000021681E05E0235C625C63542254401EB2
:100AF000491C8142F7DBAB46A81B401E0990002031
:100B000004F80B000B98099AC0F80880C0E9002B84
:100B10007AE711264FF0000857E72DE9F04F884695
:100B20000446D21D22F0070191B0D1E90001CDE9C0
:100B30000A0101F06BFE02460B98C00F01D02D2078
:100B400007E02068810701D52B2002E0202101EA7F
:100B5000C000032A099001D0072A05DB034641465D
:100B6000204600F095F90BE12078800601D5E06978
:100B700000E00620B8F1650F814606D0B8F1660F97
:100B800018D0B8F1670F70D131E00020B9F1110F22
:100B9000009001DB112301E009F101030AAA01A978
:100BA0000CA8FFF7E2FEDDE90C70002609F1010553
:100BB000834647E001204B4600904FF000470AAAC9
:100BC00001A90CA8FFF7D1FEDDE90DB00C995D4637
:100BD000002610B909F101000D18B9EB050003D486
:100BE000C0F1FF3609F10105A5EB09002BE0B9F1D1
:100BF000010F01DA4FF001090020B9F1110F009047
:100C0000484601DD112300E003460AAA01A90CA809
:100C1000FFF7ABFEDDE90C704D46002683462078D9
:100C200000070AD4AB4500DA5D4601A8012D04DDBA
:100C3000411911F8011C302907D04F4502DA17F18C
:100C4000040F04DA012082460FE06D1EEEE7002F4C
:100C500002DCED1B3E4403E0781CA84200DD7D1C55
:100C6000B81B00F1010A4FF000472078000703D4B9
:100C7000AA4501DB4FF0FF3A0021B7F1004F0DF11B
:100C800043088DF8431024D002202B23002F01DAD3
:100C90007F422D230A21021EA0F1010000DC5FB17A
:100CA00097FBF1FC97FBF1F201FB1C7C17460CF162
:100CB000300C08F801CDEEE7A8F10100037021889F
:100CC000090501D5452100E06521A0F1010800F8E2
:100CD000011C09980FA9A1EB0807FF1D00B1012015
:100CE000411901EBEA70A1693844081A401EA0615D
:100CF0002078C00602D42046FFF7C8FB099828B127
:100D0000D4E901219047206A401C20622078C00667
:100D100022D52046FFF7BAFB1EE0002E04DBB345C8
:100D200002DD01A8805D00E03020D4E90121904778
:100D3000206A401C2062761CAAF101005FEA000ACA
:100D40000AD100F0A1F8C0680168405CD4E9012133
:100D50009047206A401C2062281EA5F10105DCDCBA
:100D600007E0D4E9012118F8010B9047206A401CE4
:100D70002062381EA7F10107F3DC2046FFF79CFB39
:100D8000032011B041E6000001694A1C02610878A5
:100D9000704700B58FB0CDE90131002105910549BB
:100DA0007944CDE9031011466846FFF7A7FA0FB062
:100DB00000BD0000E5FFFFFF10B5436913B1AFF3BD
:100DC000008001E0FFF714FC012010BD128800F143
:100DD000240182840022C2840122EDE711684FF0D1
:100DE000FF32E9E7007B00F08000704770B51646DF
:100DF0000C46054600F040F8036893F8010101280D
:100E000006D0FF2C0FD8185D68B101202C7070BD82
:100E1000D3F807013246214603F20713034428465C
:100E2000BDE8704018474FF0FF3070BD754600F0C8
:100E3000EBF8AE4605006946534620F007008546AC
:100E400018B020B5FFF704FABDE820404FF00006C7
:100E50004FF000074FF000084FF0000B21F00701A2
:100E6000AC46ACE8C009ACE8C009ACE8C009ACE8E5
:100E7000C0098D467047000010B500F005F8001D50
:100E800010BD00BF691B000000487047E808002043
:100E90002DE9F0411F46044603260168072A01F4A4
:100EA000006004DB08B116A505E016A503E008B153
:100EB00015A500E015A521F010002060A069C01E56
:100EC000A0610FB1401EA0612046FFF7DFFA4FB1CD
:100ED000D4E9012138469047206A401C2062C01C9A
:100EE000206206E0206AFAE7D4E9012115F8010B37
:100EF0009047761EF8D22046FFF7DEFABDE8F08173
:100F00004E414E006E616E00494E4600696E6600AD
:100F10002DE9F047814616468AB0354878440DC819
:100F20008DE80D0032487844801C03AC0DC884E87D
:100F30000D0041F69B300844372190FBF1F290FB05
:100F4000F1F5A5F1800501FB12041B3C02D56442BA
:100F5000012000E00020DFF898A080460027FA4436
:100F6000AAF1BE0A0EE0E0070AD03246684607EB57
:100F7000470101230AEB810100F01BFB8DE807000C
:100F800064107F1C002CEED1194F7F44AE3F19E056
:100F9000E80715D007EB04100DF1180A90E80E00D1
:100FA0008AE80E00C068F04201D1981908903246D4
:100FB000012306A903A800F0FCFA03AB83E80700AD
:100FC0006D10641C002DE3D14FF0010332466946D9
:100FD000B8F1000F03A802D000F0D6FA01E000F04B
:100FE000E8FAC9E90001C9F808200AB0BDE8F087AD
:100FF000BC1B000010B50446AFF300802046BDE8DE
:101000001040FFF710B9000000487047C8080020E2
:101010004FF0013C50F8042B51F8043B9A4221D187
:10102000A2EB0C03934313EACC1317D150F8042B13
:1010300051F8043B9A4215D1A2EB0C03934313EAF7
:10104000CC130BD150F8042B51F8043B9A4209D130
:10105000A2EB0C03934313EACC13DBD04FF0000058
:10106000704700BFD01A01BAB1FA81F101F018013E
:1010700022FA01F0CB40C1F12001DBB2C0B2C01AAC
:101080002CFA01F3D11A914311EAC311E6D170474A
:101090005FEA400C08BF91F0000F4FEA8C234FEA43
:1010A000C12243EA51514FEA1C5018BF00F5F040ED
:1010B0004FEA300018BF41F000415FEA6C5C00F07D
:1010C0002980BCF1FF3F08BF40F080407047130CFF
:1010D00006BF12044FF0100C4FF0000C130E04BFAB
:1010E00012020CF1080C130F04BF12010CF1040CD6
:1010F000930F04BF92000CF1020CD30F04BF5200F7
:101100000CF1010C11464FF00002A0F11F00A0EB02
:101110000C00704711F0004F08BF704731F00041DC
:101120003FF4D5AF0B0C06BF09044FF0100C4FF085
:10113000000C0B0E04BF09020CF1080C0B0F04BFCE
:1011400009010CF1040C8B0F04BF89000CF1020C97
:10115000CB0F04BF49000CF1010CCCF12003A0EB34
:101160000C0022FA03F302FA0CF241EA030100F147
:101170000100704720F07F4C80EA030023F07F4796
:10118000ACEB070303F57C5300F0004003F1FF03D1
:101190002DE980494FEA154B09B44FEA144325EA7B
:1011A0000B4E24EA03480FF2042606EB13274908E6
:1011B0003E785FEA320203FB0667C7F5000707FBCC
:1011C00006F64FEA54374FEAD64606F1020607FB09
:1011D000066CCCF1005C4FEA1C472CEA074C07FB7D
:1011E00006F40CFB06F504EB15464FEA961634BFE1
:1011F00000204FF000404FEAD13706FB07FC4FEAD2
:101200001C4C0CFB0BF7D21B03FB0CF761EB07012B
:101210000CFB0EF7B0EB074072EB17420CFB08F724
:1012200034BFA2EB0742B2EB074261EB17414FEA32
:101230000C444FEA910706FB07FC4FEA1C4C0CFBE1
:101240000BF7B0EBC74072EB573203FB0CF734BF20
:10125000A2EBC742B2EBC74261EB57310CFB0EF772
:10126000B0EBC70072EB57720CFB08F734BFA2EB70
:10127000C702B2EBC70261EB5771039F4FEA81616E
:1012800041EA921104EBCC044FEAD1374FEA826273
:1012900006FB07FC42EA90124FEA80604FEA1C4CC2
:1012A0000CFB0BF7D21B03FB0CF761EB07010CFBEC
:1012B0000EF7B0EB074072EB17420CFB08F734BF98
:1012C000A2EB0742B2EB074261EB17414FEA8C55A4
:1012D0004FEA910704EB9C2406FB07FC4FEA1C4CE9
:1012E0000CFB0BF7B0EBC74072EB573203FB0CF76C
:1012F00034BFA2EBC742B2EBC74261EB57310CFBE4
:101300000EF7B0EBC70072EB57720CFB08F734BF57
:10131000A2EBC702B2EBC70261EB577115EB4C258C
:101320004FEA816141EA92114FEA82624FEAD13776
:1013300042EA901206FB07FC44F100044FEA806089
:101340004FEA1C4C0CFB0BF7D21B03FB0CF761EBB9
:1013500007010CFB0EF7B0EB074072EB17420CFBDA
:1013600008F734BFA2EB0742B2EB074261EB17412B
:1013700015EB1C154FEA813141EA92414FEA823266
:1013800042EA90424FEA80304FEA0C7644F1000482
:1013900048EA03434EEA0B484FF0000EB2EB080C4C
:1013A00071EB030724BF624639464EEB0E0E4FF039
:1013B000000B0018524149414BEB0B0BB2EB080CF0
:1013C00071EB03077BF1000B24BF624639464EEBFD
:1013D0000E0E4FF0000B0018524149414BEB0B0B26
:1013E000B2EB080C71EB03077BF1000B24BF6246E4
:1013F00039464EEB0E0E51EA020718BF46F00106C1
:1014000016EB0E7655F1000254F1000103D5BDE84C
:101410008901BDE80088BDE88901BDE80048B6192A
:10142000524141EB0101A3F10103704780807F7EAF
:101430007D7C7B7A7978777676757473727171704A
:101440006F6E6E6D6C6C6B6A6A69686867666665FC
:101450006464636362616160605F5F5E5E5D5D5C8A
:101460005C5B5B5A5A5959585857575656555555FB
:101470005454535352525251515050504F4F4F4E5B
:101480004E4D4D4D4C4C4C4B4B4B4A4A4A494949A9
:1014900048484847474747464646454545444444EB
:1014A000444343434342424242414141002B9C4614
:1014B00030D477002BD01CB54FEA370703B44FF078
:1014C00010004FF01001BAF1000F06D0BCF1000F70
:1014D000DCBF40F0080040F008014FF000000FBCF6
:1014E000BDE810400BF1010BBBF1010F08BF5FEA33
:1014F000170722BF12F1010211F101014FF0004163
:1015000043F1000300F0004043EA00007047F9D3C4
:101510005708D0E746EA064613F1400F4FEA164651
:101520001FDD13F1200FDFBF16430A4600212033D1
:101530005B42BED0C3F1200746EA064602FA07F72F
:101540004FEA164646EA0706C3F1200722FA03F2DD
:1015500001FA07F721FA03F14FF0000342EA07020C
:10156000A7E746EA020646EA06464FEA164646EA74
:101570000106BCBF46EA0646360C4FF000034FF0AA
:1015800000024FF0000194E72DE9804C9A46934603
:1015900070B491E8380007C831EA400C48BF34EA1B
:1015A000430C03D5FFF7E6FDFFF780FFF0BCBDE875
:1015B000008C2DE9804C9A46934670B491E838002F
:1015C00007C810F0804F08BF13F0804F03D100F020
:1015D00005F8FFF76BFFF0BCBDE8008C20F07F47FB
:1015E00080EA030023F07F4C07EB0C03A3F57C5348
:1015F00000F00040A3F1FE0392F0000F00F0B38072
:1016000095F0000F00F077802DE901494FEA114075
:101610004FEA144621EA004800FB06FC24EA06478C
:1016200008FB06F607FB08F800FB07F718EB06486F
:101630004CEB164C4FEA124B18EB07484FEA154695
:101640004CEB174022EA0B4E0BFB06FC25EA064743
:101650000EFB06F607FB0EFE0BFB07F71EEB064E16
:101660004CEB164C4FF000061EEB074E4CEB174BA5
:1016700018EB0B0840F1000018EB0E0B58EB0008BC
:1016800040F100008F1A4FF000013CBFC943661BB8
:1016900014BFB5EB040C00213CBFC943F61B4FEA55
:1016A00017444EEA8E0E27EA04454FEA1C4704FB16
:1016B00007622CEA074C05FB07F70CFB05F604FB59
:1016C0000CFC16EB074642EB174216EB0C4642EBBE
:1016D0001C421BEB060658EB0202414146EA9E06FD
:1016E00001D5BDE80189B619524141EB0101A3F1D1
:1016F0000103BDE801894FEA14454FEA114724EA86
:10170000054621EA074C05FB07F406FB07F70CFB2F
:1017100006F105FB0CFC11EB074144EB17444FEAC3
:10172000124711EB0C4144EB1C4422EA074C05FB29
:1017300007F206FB07F70CFB06F605FB0CFC16EBA5
:10174000074642EB174216EB0C4642EB1C456A1863
:1017500054F1000148BF7047B619524141EB0101F5
:10176000A3F10103704795F0000F37D04FEA114203
:101770004FEA144721EA024624EA074C02FB07F12C
:1017800006FB07F70CFB06F402FB0CFC14EB07440A
:1017900041EB17414FEA154714EB0C4441EB1C4158
:1017A00025EA074C02FB07F506FB07F70CFB06F6DC
:1017B00002FB0CFC16EB074645EB174516EB0C46F7
:1017C00045EB1C42121951F1000148BF7047B61990
:1017D000524141EB0101A3F1010370474FEA144567
:1017E0004FEA114724EA054621EA074C05FB07F1B9
:1017F00006FB07F70CFB06F24FF0000605FB0CFC9E
:1018000012EB074241EB174112EB0C4251EB1C412A
:1018100048BF7047921841EB0101A3F101037047E3
:1018200000BFFEE7002004E000210C4A1154411CD7
:10183000C8B21028F8D3002004E00021084A11544F
:10184000411CC8B20628F8D3002004E00022054954
:101850000A54411CC8B28028F8D370471C010020EC
:1018600034000020C501002021B1026842F00102CD
:10187000026004E002684FF6FE731A40026070478F
:1018800001684FF6FE721140016000210160416065
:101890008160C1604B49884208D14A49083949688A
:1018A00041F00F01474A083A51608AE04549143136
:1018B000884208D143490839496841F0F001414A5A
:1018C000083A51607DE03F492831884208D13D49BE
:1018D0000839496841F470613A4A083A516070E049
:1018E00038493C31884208D136490839496841F4C1
:1018F0007041344A083A516063E0324950318842BD
:1019000008D130490839496841F470212D4A083A14
:10191000516056E02B496431884208D12949083981
:10192000496841F47001274A083A516049E0254965
:101930007831884208D123490839496841F07061FB
:10194000204A083A51603CE01F49884206D1011FF5
:10195000096841F00F01021F116032E01A49143189
:10196000884208D11849091F096841F0F001164A58
:10197000121F116025E014492831884208D112490C
:10198000091F096841F470610F4A121F116018E0C5
:101990000D493C31884208D10B49091F096841F4BF
:1019A0007041094A121F11600BE00749503188420B
:1019B00007D10549091F096841F47021024A121F25
:1019C00011607047080002400804024010B5002270
:1019D000026847F6F0739A430C6A8B6823430C69DC
:1019E00023434C6923438C692343CC6923434C6ACA
:1019F00023438C6A23431A430260CB6843600B681D
:101A000083604B68C36010BD416070477047000041
:101A10000149C860704700000020024030B504460C
:101A200004254FF4302000F089F80546042D17D125
:101A30000C48006940F002000A4908610846446108
:101A4000006940F0400008614FF4302000F076F863
:101A500005460448006941F6FD71084001490861E6
:101A6000284630BD0020024004200B49C96801F01F
:101A7000010109B101200EE00749C96801F0040124
:101A800009B1022007E00449C96801F0100109B159
:101A9000032000E0042070470020024004200B498E
:101AA000C96801F0010109B101200EE00749C968C8
:101AB00001F0040109B1022007E00449C96801F0FE
:101AC000100109B1032000E004207047002002400B
:101AD0000348006940F08000014908617047000038
:101AE0000020024070B504460D460426F00200F0C6
:101AF00025F80646042E11D10948006940F001007E
:101B0000074908612580F00200F018F806460448ED
:101B1000006941F6FE71084001490861304670BD18
:101B2000002002400248034948600348486070476B
:101B30002301674500200240AB89EFCD00B5024686
:101B40000423FFF791FF034603E0FFF78DFF0346F1
:101B5000521E012B01D1002AF7D102B905231846E4
:101B600000BD2DE9F041024600250026002000239B
:101B70000024002791F803C00CF00F0591F803C072
:101B80000CF0100CBCF1000F03D091F802C04CEA2D
:101B9000050591F800C0BCF1000F31D01468002099
:101BA0002BE04FF0010C0CFA00F3B1F800C00CEA86
:101BB00003069E4220D183004FF00F0C0CFA03F76E
:101BC000BC4305FA03FC4CEA040491F803C0BCF1E1
:101BD000280F06D14FF0010C0CFA00FCC2F814C01B
:101BE0000AE091F803C0BCF1480F05D14FF0010C99
:101BF0000CFA00FCC2F810C0401C0828D1D31460B5
:101C0000B1F800C0BCF1FF0F34DD546800202EE0B5
:101C100000F1080C4FF0010808FA0CF3B1F800C00D
:101C20000CEA03069E4221D183004FF00F0C0CFA00
:101C300003F7BC4305FA03FC4CEA040491F803C023
:101C4000BCF1280F05D100F1080C08FA0CF8C2F815
:101C5000148091F803C0BCF1480F07D100F1080CC3
:101C60004FF0010808FA0CF8C2F81080401C082850
:101C7000CED35460BDE8F08100BFFEE710B501216E
:101C80000C4800F063F900210B4800F05FF90BA04D
:101C9000FEF7FEFA0748FEF7EFFA09A0FEF7F8FA9A
:101CA00008A0FEF7F5FA0448FEF7E6FA04A0FEF7EE
:101CB000EFFA10BD1C0100203400002049503A000A
:101CC0000D0A0000504F5254A3BA000000BFFEE7B7
:101CD0007047000070B5002100230F22C47804B3C0
:101CE000154C246804F4E064C4F5E064210AC1F1F1
:101CF0000403CA40447804FA03F184781440214371
:101D000009010E4C0678A155047804F01F05012442
:101D1000AC4005786D11AD0005F1E025C5F8004136
:101D200009E0047804F01F050124AC40044D067856
:101D3000761145F8264070BD0CED00E000E400E0AF
:101D400080E100E07047000029B1064A5269024371
:101D5000044B5A6104E0034A52698243014B5A61C1
:101D6000704700000010024029B1064AD2690243C0
:101D7000044BDA6104E0034AD2698243014BDA6121
:101D8000704700000010024029B1064A1269024360
:101D9000044B1A6104E0034A12698243014B1A6141
:101DA000704700000010024029B1064A92690243C0
:101DB000044B9A6104E0034A92698243014B9A61A1
:101DC000704700000010024029B1064AD268024361
:101DD000044BDA6004E0034AD2688243014BDA60C4
:101DE000704700000010024030B50021002200249E
:101DF00000232D4D6D6805F00C0121B1042905D09B
:101E0000082923D105E0294D056022E0274D056012
:101E10001FE0254D6D6805F47012234D6D6805F4C3
:101E20008034022505EB92421CB9214D55430560D3
:101E30000BE01D4D6D6805F400351DB11C4D55437B
:101E4000056002E0194D5543056002E0174D05603D
:101E500000BF00BF144D6D6805F0F0010909154D74
:101E60006B5C0568DD4045600F4D6D6805F4E06111
:101E7000090A104D6B5C4568DD4085600A4D6D6850
:101E800005F46051C90A0B4D6B5C4568DD40C560C7
:101E9000054D6D6805F44041890B074D6B5CC568C5
:101EA000B5FBF3F5056130BD0010024000127A0069
:101EB00000093D001E0000202E0000200EB500206D
:101EC00002901B48019000BFFFF7E8FD0428FBD1FA
:101ED000FFF728FE00BFFFF7E1FD0428FBD1342007
:101EE000FFF796FD00BF1248FFF798FD0428FAD1CE
:101EF000002001AB02AA0F4900900F4800F044FCFB
:101F0000012001AB02AA0B490090084600F03CFCFE
:101F10000AA0FEF7BDF900BFFFF7C0FD0428FBD102
:101F2000FFF7D6FD00BFFFF7B9FD0428FBD10EBDBA
:101F300000F00008340000201C0100200A52655700
:101F40007269746544617461730A000010B50246D9
:101F5000012902D1104B114C236000200AE00F4BE5
:101F60001B681B781354431CD8B20C4B1B685B1CBA
:101F70000A4C2360094B1B68094CA34204D8074B49
:101F80001B681B78002BEAD1044B1B685B1C034CBD
:101F900023600023135410BD00F000083C00002013
:101FA000FFF300087047000070B54FF47A7000F03E
:101FB0006DFC274927A0FEF76BF92548803890F87B
:101FC0008000492805D02248803890F88000692890
:101FD00034D1012424E01E48005D502803D01C4861
:101FE000005D702815D1002021490855002507E023
:101FF0002819401C1649085C1E494855681CC5B282
:102000002819401C1249085C0028F1D1194948558B
:1020100004E00F48015D601E154A1154601CC4B2F3
:102020000B48005D0028D6D1114913A0FEF730F906
:10203000104915A0FEF72CF9012070BD15A0FEF780
:1020400027F9FFF7EFFBFFF7AFFF00BFF5E7000051
:10205000C5010020526563656976654275666665EF
:102060007254656D705B315D3D25730D0A00000093
:102070001C01002034000020495041646472203D5E
:102080002025730D0A000000506F7274203D20253A
:10209000730D0A0041424F52542E0D0A00000000F9
:1020A00010B500F001F810BD0CB5002001900090B3
:1020B0003348006840F480303149086000BF304840
:1020C000006800F4003000900198401C01900098D6
:1020D00018B90198B0F5A06FF1D12948006800F453
:1020E000003010B10120009001E000200090009825
:1020F000012843D12348006840F0100021490860BE
:102100000846006820F0030008600846006840F0B8
:10211000020008601A48406819494860084640684B
:1021200048600846406840F480604860084640685F
:1021300020F47C1048600846406840F4E81048608D
:102140000846006840F08070086000BF0C480068D6
:1021500000F000700028F9D00948406820F0030022
:10216000074948600846406840F00200486000BFE8
:102170000348406800F00C000828F9D10CBD0000AD
:102180000010024000200240042808D14FF0E02156
:10219000096941F004014FF0E022116107E04FF0BE
:1021A000E021096921F004014FF0E022116170473C
:1021B0007047000010B51348006840F00100114955
:1021C000086008464068104908400E4948600846C3
:1021D00000680E4908400B4908600846006820F472
:1021E000802008600846406820F4FE0048604FF4F4
:1021F0001F008860FFF754FF4FF00060044908603B
:1022000010BD0000001002400000FFF8FFFFF6FEC6
:1022100008ED00E010B540F225511D4800F062F9CC
:1022200010B31B4800F01AFAC4B21A48008800F430
:102230000040C8B91748008800F4804060B10A2CFB
:1022400003D000201349088020E01248008840F4A1
:1022500000401049088019E00D2C06D10D48008877
:1022600040F480400B49088010E00A480088C0F321
:102270000D0009490C5407480088401C0549088096
:1022800008460088C72801DD0020088010BD000036
:10229000003801401C0000205400002010B540F21E
:1022A0002441464800F01EF900287CD00021444813
:1022B000FFF7DAFA414800F0D1F941486C38006F75
:1022C000C0F180003F4908803F48008809880844E1
:1022D000B0F5007F07DB00213C483B4A128881545F
:1022E00000203949088000203949087039490880A0
:1022F00031E0394837490988405C0D2805D0364817
:1023000034490988405C0A2810D131480078E8B97E
:1023100001202F4908700A212C482B4A1288815429
:1023200029480088401C284908800FE000202849DF
:102330000870294827490988415C2448224A1288A4
:10234000815421480088401C1F490880214800888A
:10235000401C204908801F4800881A490988884283
:10236000C7DB00211948184A128881541648008892
:1023700040F2FF11884203D100201349088004E095
:1023800011480088401C1049088014484088401CAF
:102390001249488080210A48FFF736FB012108488E
:1023A000FFF762FA00E004E040F22441034800F045
:1023B00026F809490AA0FDF76BFF10BD0044004054
:1023C0006C0002404C0000204E000020C50400209C
:1023D0005200002050000020C501002040000020D5
:1023E0007573617274323A257300000001F4007253
:1023F000B2F5007F00D100BFCA430280704710B51C
:102400000022002340F66A14A14200D100BF0A1244
:1024100001249440A3B2DC43048010BD21B1828921
:1024200042F40052828104E082894DF6FF731A4023
:10243000828170471AB1838A0B43838202E0838AC8
:102440008B4383827047000010B5044620488442C5
:1024500009D101218803FFF7B7FC00214FF4804028
:10246000FFF7B2FC32E01B48844209D10121480445
:10247000FFF78AFC00214FF40030FFF785FC25E0D0
:102480001548844209D101218804FFF77DFC002111
:102490004FF48020FFF778FC18E01048844209D1FF
:1024A0000121C804FFF770FC00214FF40020FFF762
:1024B0006BFC0BE00A48844208D101210805FFF7B4
:1024C00063FC00214FF48010FFF75EFC10BD00009C
:1024D000003801400044004000480040004C0040EB
:1024E0000050004070B50246002400230025002063
:1024F00040F66A16B14200D100BFC1F3421501F0A7
:102500001F03012606FA03F3012D02D196893340F9
:1025100006E0022D02D1168A334001E0968A33404C
:102520000C12012606FA04F41688344013B10CB1DB
:10253000012000E0002070BDF0B503460024002615
:102540000025002040F66A17B94200D100BF1846A6
:10255000C1F3421401F01F06012707FA06F5012C0A
:1025600001D10C3004E0022C01D1103000E0143015
:102570001AB107682F43076002E00768AF4307609E
:10258000F0BD00002DE9F04786B005460E46002458
:10259000A24600BFA1460027B08900B100BF2F4668
:1025A0002C8A4CF6FF700440F08804432C82AC89DE
:1025B0004EF6F3100440B08831890843718908430E
:1025C0000443AC81AC8A4FF6FF400440B089044319
:1025D000AC8201A8FFF708FC1F48874202D1DDF852
:1025E00010A001E0DDF80CA0A88900F4004040B183
:1025F0000AEBCA0000EB0A1031684900B0FBF1F8A1
:1026000007E00AEBCA0000EB0A1031688900B0FB52
:10261000F1F86420B8FBF0F004012009642101FB0B
:102620001089A88900F4004040B1322000EBC900B5
:10263000B0FBF1F000F00700044308E0322000EBAB
:1026400009106421B0FBF1F000F00F0004432C816D
:1026500006B0BDE8F08700000038014001468888D8
:10266000C0F30800704700BFFEE7000000B591B05E
:102670004148FFF7E9FE01210420FFF795FB012106
:102680004804FFF771FB01210846FFF75DFB1820A6
:102690008DF82F000420ADF82C0003208DF82E00BB
:1026A0000BA93648FFF75DFA04208DF82F000820AB
:1026B000ADF82C000BA93148FFF753FA2E48FFF76D
:1026C000C3FE4FF4E1300D900020ADF83800ADF8B6
:1026D0003A00ADF83C00ADF840000C20ADF83E00EB
:1026E0000DA92548FFF74EFF26208DF83000002069
:1026F0008DF831008DF8320001208DF833000CA8E0
:10270000FFF7E8FA40211C48FFF770FE012240F273
:1027100024411948FFF710FF01211748FFF77EFEFB
:1027200000211748FFF7A0F81548FFF7A9F812484D
:10273000001D00901348019000200290802003901B
:102740000020049080200590002006900790202013
:102750000890C001099000200A9069460848FFF7D8
:1027600035F9012240210448FFF764FE01210448A5
:10277000FFF77AF811B000BD0044004000080140A6
:102780006C000240C50100202DE9F04706460F46C7
:1027900014461D46DDF8209018E0206820B120681E
:1027A000401E305C00B915E02068315C401C305C94
:1027B00001EB00201FFA80F841462868FFF792F9E4
:1027C0002868801C28602068801C20602068305C9D
:1027D0000028E2D100BF2068401E305C90B1B9F102
:1027E000010F02D14FF0000802E038784FEA0028CC
:1027F00041462868FFF776F92868801C2860012088
:10280000206001E000202060BDE8F087490050EA28
:10281000C12018BF04204A0D18BF40F0010040F24B
:10282000FF72B2EB515F08BF40F00200012808BF01
:102830000520704730380A2801D201207047002057
:102840007047014600BF704710B56FF00400FFF7F6
:102850009BFC0A4800680A49B0FBF1F0094908707E
:102860000846007800EB4001C1EBC0104FF6FF7145
:1028700001EAC0000449088010BD000000000020EB
:1028800000127A0014000020160000200146114AB0
:1028900012884A434FF0E0235A6100229A611A4697
:1028A000126942F001021A6100BF4FF0E022106984
:1028B00000F001021AB100F48032002AF5D04FF086
:1028C000E022126922F001024FF0E0231A61002297
:1028D0009A6170471600002000BF054A128802F076
:1028E0004002002AF9D0C2B2014B1B1D1A8070476A
:1028F000003801404FF4E13000F012F8FFF7A4FF78
:10290000FFF7B4FE03E0FFF74FFB00B100E0FAE78A
:1029100000BFFFF7D3FAFFF7B1F900BFFEE70000F1
:1029200010B586B00446012144F20400FFF73CFADA
:102930004FF40070ADF8140003208DF81600182035
:102940008DF8170005A91C48FFF70BF94FF48060BC
:10295000ADF8140004208DF8170005A91648FFF7FC
:1029600000F925208DF8000003208DF801008DF876
:10297000020001208DF803006846FFF7ABF90194CF
:102980000020ADF80800ADF80A00ADF80C00ADF875
:1029900010000C20ADF80E0001A90848FFF7F2FD69
:1029A000012240F225510548FFF7C6FD01210348E9
:1029B000FFF734FD06B010BD0008014000380140AB
:1029C00010B500290AD00878002807D005487844B7
:1029D000FEF71EFB002801D0002010BD02487844FD
:1029E00010BD0000460100003E01000010B50029A6
:1029F0000AD00878002807D005487844FEF708FB7D
:102A0000002801D0002010BD0248784410BD00000D
:102A1000360100002E010000FEF77FB80400000818
:102A20000000000000000002000100001000000093
:102A300000000000000000003031323334353637FA
:102A400038394142434445464030580030313233F2
:102A500034353637383961626364656640307800F2
:102A600002400000000000A000000000054000003F
:102A7000000000C8000000000C4000000000409C66
:102A800000000000194000000020BCBE0000000053
:102A900034400000BFC91B8E00000004B540000098
:102AA000504BCFD06607E2CF010000006C41000020
:102AB0003E8251AADFEEA73401000000D942000097
:102AC000DCB5A0E23A301F97FFFFFFFFB4450000DE
:102AD000FD25A0C8E9A3C14FFFFFFFFFFF3F000096
:102AE0000000008000000000FF3F000000000080A8
:102AF00000000000402C00080000002054000000EE
:102B000028010008942C000854000020D40E000076
:102B1000440100081C00000043000000F8FFFFFF14
:102B20000C0000000E0000000F0000002E0000004E
:102B30001001000043000000F8FFFFFF004040408C
:102B40004040404040404141414141404040404080
:102B5000404040404040404040404040400502022C
:102B600002020202020202020202020202202020EB
:102B70002020202020202002020202020202909047
:102B80009090909010101010101010101010101045
:102B90001010101010101010020202020202888899
:102BA00088888888080808080808080808080808A5
:102BB000080808080808080802020202400000008D
:102BC0000000000000000000000000000000000005
:102BD00000000000000000000000000000000000F5
:102BE00000000000000000000000000000000000E5
:102BF00000000000000000000000000000000000D5
:102C000000000000000000000000000000000000C4
:102C100000000000000000000000000000000000B4
:102C200000000000000000000000000000000000A4
:102C30000000000000000000000000000000000094
:102C400000A24A040000000000000000010203048A
:102C50000607080900000000000000000000000056
:102C6000000001020304010203040607080902042C
:102C70000608000000000000000000000000000046
:102C80000000000000000000000000000000000044
:042C90000000000040
:0400000508000235B8
:00000001FF
